:02000002B0004C
:1040000000400B00CC520B00000006000C00050223
:084010000401A60F00000000EE
:04401800D84F0B0072
:10401C0009480A49884208B505D0094A824202D0AB
:10402C00121A00F021FF0748074A0021121A00F06B
:10403C0029FF014808BD00BF30E6032028520B00C1
:10404C00ACE60320ACE60320EDE7032070B5074E89
:10405C00074C00F001FEA41BA4080025AC4200D1C3
:10406C0070BD56F8043B98470135F7E7D0510B006B
:10407C00F4510B0000F013B808B500F015F8BDE8CA
:10408C00084000F0A1BD00F0E7B900F0EDB90078F0
:10409C00B0FA80F04009704701230370704701218A
:1040AC00122000F049BE000010B5174B174C1968D0
:1040BC002268122000F02CFC4FF47A7000F0ECF91E
:1040CC00122000F03CFC124B22681968122000F000
:1040DC001FFC4FF47A7000F0DFF9122000F02FFC77
:1040EC000C4B22681968122000F012FC4FF47A7005
:1040FC0000F0D2F9122000F022FCBDE810404FF481
:10410C007A7000F0C9B900BF34E6032030E6032012
:10411C0038E603203CE60320044B0022C3E90022CE
:10412C00A2F580329A60022000F00AB9ACE60320B6
:10413C0008B5024B1B685B6C019308BD4802030079
:10414C0008B5024B1B685B68019308BD180203009D
:10415C0008B5024B1B685B69019308BD180203008C
:10416C0008B5024B1B685B68019308BD2C02030069
:10417C0008B5024B1B689B68019308BD2C02030019
:10418C0008B5024B1B681B6A019308BD280203008B
:10419C0008B5024B1B685B6A019308BD280203003B
:1041AC0008B5024B1B689B6A019308BD28020300EB
:1041BC0008B5024B1B68DB6A019308BD280203009B
:1041CC0008B5024B1B681B6B019308BD280203004A
:1041DC0008B5024B1B685B6B019308BD28020300FA
:1041EC0008B5024B1B681B6C019308BD2802030029
:1041FC0008B5024B1B685B69019308BD64020300A0
:10420C0008B5024B1B689B68019308BD680203004C
:10421C0008B5024B1B68DB68019308BD68020300FC
:10422C0008B5024B1B681B68019308BD24020300F0
:10423C0008B5024B1B685B68019308BD24020300A0
:10424C0008B5024B1B68DB69019308BD3002030003
:10425C0008B5024B1B681B6A019308BD30020300B2
:10426C0008B5024B1B68DB68019308BD3C020300D8
:10427C0008B5024B1B681B69019308BD3C02030087
:10428C0008B5024B1B685B69019308BD3C02030037
:10429C0008B5024B1B689B69019308BD3C020300E7
:1042AC0008B5024B1B68DB69019308BD3C02030097
:1042BC0008B5024B1B681B6A019308BD3C02030046
:1042CC0008B5024B1B689B6A019308BD3C020300B6
:1042DC0008B5024B1B681B6C019308BD3C02030024
:1042EC0008B5024B1B681B68019308BD4C02030008
:1042FC0008B5024B1B681B69019308BD4C020300F7
:10430C0008B5024B1B685B69019308BD4C020300A6
:10431C0008B5024B1B689B69019308BD4C02030056
:10432C0008B5024B1B68DB69019308BD4C02030006
:10433C0008B5024B1B681B6A019308BD4C020300B5
:10434C0008B5024B1B685B68019308BD2002030093
:10435C0008B5024B1B685B69019308BD2002030082
:10436C0008B5034B1B68D3F88830019308BD0000D7
:10437C002002030008B5034B1B68D3F8943001935B
:10438C0008BD00002002030008B5024B1B68DB6B64
:10439C00019308BD4402030008B5024B1B685B681F
:1043AC00019308BD4002030008B5024B1B689B68D3
:1043BC00019308BD4002030008B5024B1B68DB6883
:1043CC00019308BD4002030008B5024B1B681B6932
:1043DC00019308BD4002030008B5024B1B685B69E2
:1043EC00019308BD4002030008B5024B1B689B6992
:1043FC00019308BD4002030008B5024B1B68DB6942
:10440C00019308BD4002030008B5024B1B681B6AF0
:10441C00019308BD4002030008B5024B1B681B6BDF
:10442C00019308BD4002030008B5024B1B685B6B8F
:10443C00019308BD4002030008B5024B1B681B6CBE
:10444C00019308BD4002030008B5024B1B685B6C6E
:10445C00019308BD4002030008B5024B1B681B68A2
:10446C00019308BD1C02030008B5024B1B685B6876
:10447C00019308BD1C02030008B5024B1B681B6CA2
:10448C00019308BD1C02030008B5024B1B685B6C52
:10449C00019308BD1C0203000021FFF759BF000067
:1044AC00024800230360FFF743BE00BFB8E60320B9
:1044BC00002240681146FFF7A7BF00224068114652
:1044CC00FFF7B2BF40680022FFF7A6BF406800228A
:1044DC0081F00101FFF790BF002340681A4619468E
:1044EC00FFF782BF002340681A461946FFF774BFD6
:1044FC00002240681146FFF767BF00224068114652
:10450C00FFF752BF406800220221FFF755BF00237E
:10451C0040681A46FFF740BF024B03225A60024A1A
:10452C001A607047BCE60320F44F0B007047F8B5D7
:10453C00064615460C468F18BC4206D0336814F854
:10454C00011B9B6830469847F6E72846F8BD007C6F
:10455C000022FFF715BE007C0021FFF719BE007C7E
:10456C000021FFF71DBE007C0021FFF721BE007C5F
:10457C000021FFF725BE10B514210446FFF785FD79
:10458C00204610BD38B5044615464FF47A73002208
:10459C00C4E90123094B2174084623602946FFF71F
:1045AC001FFEBF3008D16B69DB0705D56868FFF7C4
:1045BC005BFFE868FFF758FF204638BD30500B0012
:1045CC00704710B518210446FFF75FFD204610BD5B
:1045DC00F0B5037D062B8DB00E4600F104074FF0AD
:1045EC00000412D000F1080515F8011D0A2230460E
:1045FC0000F043F9AF42044419D0002CF4D02E2122
:10460C00304600F037F90444EEE72F236A4639466A
:10461C000A208DF80040FFF7EBFD684600F068FCBF
:10462C0033680246DB6869463046984704462046A4
:10463C000DB0F0BD10B5054B0446112240F8043BFB
:10464C00002100F01FFC204610BD00BF58500B008D
:10465C000346074A10B543F8042B01F1100251F838
:10466C00044B43F8044B9142F9D10A781A7010BDEF
:10467C0058500B0010B59DF8084044EA032343EA58
:10468C00024242EA016104234160037510BD00003F
:10469C0007B5064B0360CB7800938B784A78097882
:1046AC00FFF7E8FF03B05DF804FB00BF58500B00A8
:1046BC00014B024A1A607047C4E6032064500B0099
:1046CC00002340681A46FFF767BE406800220221AB
:1046DC00FFF772BE002240681146FFF765BE00224C
:1046EC0040681146FFF770BE002340681A46194611
:1046FC00FFF772BE002340681A461946FFF774BED6
:10470C0040680021FFF798BE40680021FFF79CBE6F
:10471C004068002281F00101FFF76EBE4068002264
:10472C00FFF77ABE002240681146FFF77DBE0022DB
:10473C0040681146FFF768BE2DE9F04395B014466A
:10474C000D460746FFF776FF00211C220DA80091AD
:10475C0000F098FB40230C9320466B460CAA0021DA
:10476C00FFF756FD044600284BD10246012168682C
:10477C00FFF72AFE0221804622466868FFF724FED6
:10478C00009E81462146002E3BD0002939D173680A
:10479C00022B03D00A2B11D0F669F4E7B8F1000F05
:1047AC00FAD0716906A8043107ADFFF771FF0FCD80
:1047BC003C1D0FC42B6823704146EDE7B9F1000F87
:1047CC00EAD07469102201A800F05CFB06238DF876
:1047DC00143001AD04F108031834186859682A46DE
:1047EC0003C20833A3421546F7D101A906A807ADA9
:1047FC00FFF72EFF0FCD3C1D0FC42B6823704946CD
:10480C00CAE70098FFF7FCFC384615B0BDE8F0830A
:10481C00024B034A1A6000225A607047C8E6032014
:10482C0070500B00F8B506460D468F180024BD429B
:10483C000CD0336815F8011B9B6830469847031E53
:10484C0001DB1C44F3E7002C08BF1C462046F8BDD6
:10485C0013B50446084659B1019100F049FB236891
:10486C000199DB680246204602B0BDE810401847AB
:10487C0002B010BD03689B68184730B58BB000239D
:10488C00012A8DF8243098BF0A2209AC0D46B1FBE1
:10489C00F2F101FB125303F0FF03092B94BF3033E9
:1048AC003733DBB2AA4204F8013DEFD92146FFF7BA
:1048BC00CFFF0BB030BD0000014B00229A60704757
:1048CC00D0E6032010B5044608462170FFF7B8FC6B
:1048DC0000236360204610BD054B02221A60054B75
:1048EC00054A9A600020C3E90000FFF729BD00BF0C
:1048FC00ECE60320E0E603200000FFFF024B1A6801
:10490C00024B1A60704700BF40E60320F0E603201C
:10491C00F8B587B2044638460D46164600F0CEF977
:10492C0060B102213846FFF71BFC022806D1324643
:10493C0029462046BDE8F840FFF772BCF8BD38B5F3
:10494C0085B20446284600F0B9F950B10221284638
:10495C00FFF706FC022804D12046BDE83840FFF7DB
:10496C0067BC38BD70474174704708B5007CFFF7D1
:10497C00A7FC20EAE07008BD08B5007CFFF778FCC6
:10498C0020EAE07008BD08B5007CFFF781FC40EA26
:10499C00E07008BD08B5007CFFF772FC40EAE070DF
:1049AC0008BD007CFFF77CBC37B5457C04462DB1B7
:1049BC00207C03B0BDE83040FFF752BC007C019175
:1049CC00FFF77EFC00280199F2DC284603B030BDCD
:1049DC0010B514210446FFF758FB204610BD00000B
:1049EC0010B54FF47A730446084611460022C4E908
:1049FC000123044B2360012320746374FFF768FCCC
:104A0C00204610BDC8500B0041747047704770476A
:104A1C0008B50021007CFFF77BFC40EAE07008BD84
:104A2C0008B50121007CFFF773FC40EAE07008BD7B
:104A3C0008B5007CFFF764FC20EAE07008BD08B5FF
:104A4C00007CFFF755FC20EAE07008BD13B5044666
:104A5C00007C0191FFF754FC0028019901DC607C7B
:104A6C0020B1207CFFF75CFC20EAE07002B010BDA6
:104A7C00007CFFF75DBC10B514210446FFF705FB65
:104A8C00204610BD10B54FF47A7304460846002139
:104A9C00C4E90113044B2360012320746374114691
:104AAC00FFF71EFC204610BDF8500B0010B5142269
:104ABC000446002100F0E6F9204610BD10B50F4C5D
:104ACC0088B003A8FFF7F2FF2178BFF35B8F11F0DA
:104ADC0001010FD120460191FFF7D9FA019948B194
:104AEC0003AA0748FFF7CEFF2046FFF7D5FA054883
:104AFC0000F0B4F9024808B010BD00BFF4E6032082
:104B0C00F8E60320194A0B00002240681146FFF713
:104B1C005BBC002240681146FFF776BC002240685F
:104B2C001146FFF781BC40680022FFF775BC406856
:104B3C00002281F00101FFF75FBC002340681A4698
:104B4C001946FFF751BC002340681A461946FFF777
:104B5C0043BC002240681146FFF726BC4068002287
:104B6C000221FFF729BC002340681A46FFF714BC4A
:104B7C00024B04225A60024A1A6070470CE7032069
:104B8C0028510B00014B1860704700BF44E603200E
:104B9C0008B50B4B43B1FFF791FF03681B699847AE
:104BAC00002801DDAFF30080064B43B100F030F973
:104BBC0003681B699847002801DDAFF3008008BD2E
:104BCC00000000000000000008B5FFF7E1FFFFF750
:104BDC00BFFA014B186008BD28E703200548064AB8
:104BEC00064908B5121A00F03FF9054B054A1A6040
:104BFC0008BD00BF00F4032004F4032024520B0072
:104C0C0000F403201E1C279A07B5002300931A46B4
:104C1C006FF07701FFF7AEFB03B05DF804FB00000B
:104C2C0007B543880A2B08D0502B0BD1094B1B68B6
:104C3C004BB103B05DF804EB1847FFF7E5FF03B089
:104C4C005DF804FB002300931A466FF07701FFF721
:104C5C0091FBF4E718E7032010B512480021FFF789
:104C6C0013FC114B1A68114B9A42114B0CBF0122C9
:104C7C0000221A7001D0FFF7B1FFFFF761FA04466A
:104C8C0000F008F90B4B13B12046AFF30080002164
:104C9C000848FFF779FBBDE8104007480021FFF7F3
:104CAC005FBB00BF914B0B0000F403201E1C279A26
:104CBC0014E70320000000002D4C0B00232813B533
:104CCC0002D9002002B010BDA0F10B03022B1AD8A0
:104CDC00174C2178BFF35B8F11F001010BD12046EB
:104CEC000191FFF7D4F9019928B11248FFF7EAFDB9
:104CFC002046FFF7D1F90F4B1878FFF7A9FA0028D7
:104D0C00DFD10120DEE7012809D800F041F80021AD
:104D1C00007CFFF75DFA80F00100C0B2D2E70938E1
:104D2C000128EED800F074F8007CFFF7C1FAF2E726
:104D3C001CE7032020E70320232838B504460D4642
:104D4C000AD8FF2908D0FFF7B9FF28B12946204619
:104D5C00BDE83840FFF70CBA38BD704738B50A4B80
:104D6C0003600123044643610849202000F074F8D5
:104D7C00202560600549A560284600F06DF8C4E95F
:104D8C000305204638BD00BF180001005C510B0024
:104D9C0030B50E4D2978BFF35B8F11F0010487B04D
:104DAC0011D12846FFF773F968B16846FFF7D6FFB3
:104DBC006A4621460648FFF7E5FB2846FFF76CF9E3
:104DCC00044800F04BF8024807B030BD2CE7032034
:104DDC0030E70320674D0B007047000038B50446E0
:104DEC0014252A46002100F04DF82580402507495E
:104DFC0025812846258200F02FF80449606028465A
:104E0C0000F02AF8E060204638BD00BF5C510B0072
:104E1C0030B50E4D2978BFF35B8F11F0010487B0CC
:104E2C0011D12846FFF733F968B101A8FFF7D6FF77
:104E3C0001AA21460648FFF7D3FD2846FFF72CF9B7
:104E4C00044800F00BF8024807B030BD44E70320DB
:104E5C0048E70320E54D0B00FFF715B90023014689
:104E6C001A46184600F04CB80A44914200F1FF3340
:104E7C0000D1704710B511F8014B03F8014F914266
:104E8C00F9D110BD02440346934200D1704703F898
:104E9C00011BF9E738B5104B1D68AB6B0446B3B971
:104EAC001820FFF7D9FA0246A86320B90B4B0C481F
:104EBC004221FFF7E1FA0B490B4BC0E900130B4BF6
:104ECC0083600B23838100210120C2E90401AB6BB9
:104EDC0000221C615A6138BD44E603205D510B0071
:104EEC0074510B000E33CDAB34126DE6ECDE0500C5
:104EFC00034613F8012B002AFBD1181A013870470E
:104F0C002DE9F843DFF8B8800646D8F800001F46B4
:104F1C000D46914600F056F8254B1C6834B9254CCB
:104F2C001C60254B13B11B68C4F8883063681F2BB9
:104F3C0007DDD8F8000000F047F84FF0FF30BDE86F
:104F4C00F8834EB3D4F8880088B91C4B23B9D8F831
:104F5C00000000F038F8F0E74FF48470FFF77CFAAB
:104F6C000028F4D00023C0E94033C4F888006368FB
:104F7C0040F8239001229A4000EB8301D0F80031D5
:104F8C001343C0F80031022EC1F8807002BFD0F874
:104F9C0004311343C0F804316368D8F800005A1C7C
:104FAC000233626044F8235000F00EF80020C6E78C
:104FBC00E8E703205CE703200000000065440B00D9
:104FCC00A8E6032070477047704700001D400B0097
:104FDC0059400B0081400B0085400B000000000085
:104FEC0000000000000000001B450B0011450B00E9
:104FFC0007450B00FD440B00F1440B00E5440B008E
:10500C000D470B0015470B00D9440B00D1440B0086
:10501C00C7440B00BD440B0045470B0000000000CB
:10502C000000000039450B0083450B005B450B006D
:10503C003B450B0063450B006B450B0073450B00A8
:10504C007B450B000000000000000000DD450B005C
:10505C00CD450B00CF450B006170700000000000C7
:10506C0000000000CD460B00D7460B00E1460B00BC
:10507C00EB460B00F5460B0001470B000D470B00F0
:10508C0015470B001D470B0029470B0031470B0040
:10509C003B470B0045470B0025592D256D2D2564ED
:1050AC005425483A254D3A2553257A00617363748B
:1050BC00696D6500000000000000000071490B00E4
:1050CC00DD490B00B5490B0031480B0085490B003D
:1050DC00A1490B0093490B00AF490B0073490B001E
:1050EC0077490B0000000000000000001B4A0B0079
:1050FC00834A0B00594A0B0031480B004B4A0B00FA
:10510C001D4A0B002D4A0B007D4A0B003D4A0B003B
:10511C00154A0B000000000000000000734B0B0050
:10512C00694B0B005F4B0B00154B0B00534B0B00EB
:10513C00474B0B000D470B0015470B003B4B0B006F
:10514C00334B0B00294B0B001F4B0B0045470B003F
:10515C00005245454E54206D616C6C6F6320737525
:10516C0063636565646564002F746D702F6A656E8A
:10517C006B696E732D4743432D31302D706970650B
:10518C006C696E652D34385F3230323031313234E7
:10519C005F313630363138303633392F7372632FF6
:1051AC006E65776C69622F6E65776C69622F6C69BE
:1051BC0062632F7374646C69622F72616E642E6308
:1051CC000000000025410B00AD440B0025450B00F1
:1051DC00BD460B001D480B00C5480B00E5480B00F5
:1051EC0009490B007D4B0B00000000000000000083
:0451FC0000000000AF
:10520000040000001400000003000000474E550099
:105210003122F89F90997E9C16CEE385224ED1C113
:045220009DF9C085AF
:045224000000000086
:10522800E8030000E8030000D0070000A00F00001A
:10523800B8500B0048E60320000000000000000002
:105248000000000000000000000000000000000056
:105258000000000000000000000000000000000046
:105268000000000000000000000000000000000036
:105278000000000000000000000000000000000026
:105288000000000000000000000000000000000016
:0C5298000000000000000000ECE7032014
:1052A400FFFFFFFF00000102030405060708090AC7
:1052B4000B0C0D0E0F101112131415161718191AC2
:0852C4001B1C1D1E1F20280009
:0452CC0078563412CA
:04000003B000401CED
:00000001FF
