:02000002B0004C
:1040000000400B00EC720B00000006000C000502E3
:084010000401A60F00000000EE
:0440180094690B009C
:10401C0009480A49884208B505D0094A824202D0AB
:10402C00121A02F0EDFB0748074A0021121A02F09F
:10403C00F5FB014808BD00BF90E4032028720B007B
:10404C002CE503202CE50320EDE7032070B5074E8B
:10405C00074C02F0A3F9A41BA4080025AC4200D124
:10406C0070BD56F8043B98470135F7E7CC710B004F
:10407C00F4710B0000F034BC08B500F0B7FCBDE8DF
:10408C00084002F043B901F033B801F031B801F047
:10409C0037B80078B0FA80F04009704701230370FC
:1040AC00704700002F2810B504460DD9094A0A495B
:1040BC000A2000F071FF094B04F01F04D3F810051F
:1040CC00E04000F0010010BD1F28F4D84FF0A043D1
:1040DC00F4E700BF754C0B00A8690B0000030050FF
:1040EC002DE9F843DFF82C81876898F80030484DAB
:1040FC00BFF35B8F13F0010F044609D14046FFF765
:10410C00C8FF28B100F0C8FD28604046FFF7C6FF85
:10411C00BFB22B683F01DE5D98F80030BFF35B8FB8
:10412C00D9074FEA461909D43A48FFF7B2FF28B12C
:10413C0000F0B2FD28603748FFF7B0FF2B683B4416
:10414C005E7806F01F0646EA09063046FFF7AAFF1E
:10415C003046FFF7A7FFE76898F80030BFF35B8F96
:10416C00DA07C6B209D42B48FFF793FF28B100F049
:10417C0093FD28602748FFF791FFBFB22B683F01E2
:10418C0013F8079098F80030BFF35B8FDB074FEA0A
:10419C00491909D41F48FFF77CFF28B100F07CFDBA
:1041AC0028601C48FFF77AFF2B681F447D7805F0C8
:1041BC001F0545EA09052846FFF774FF2846FFF757
:1041CC0071FF237CC0B203F003030EB143F0040370
:1041DC0008B143F008039A08013B22740D2B0BD84D
:1041EC00DFE803F0070C0F0C0A120707120A0C0F7A
:1041FC000C07636901336361BDE8F8836369013BB4
:10420C00F9E763690233F6E76369023BF3E700BF42
:10421C0030E503202CE5032070B50C1E0646154630
:10422C000BDA0A2A09D12D2101F022FA6142EAB2F5
:10423C003046BDE8704001F034BA2146F7E710B4BF
:10424C0003685A6899681B68541001EB6200D20726
:10425C0048BF0A595DF8044B48BFD3581847012A88
:10426C0038B5044602D10B68236003E0022A03D060
:10427C00032A0DD0002038BD0C200D68FFF703FF7A
:10428C0003460028F0D095E8070083E80700EBE729
:10429C0000680028EED00C21FFF7F9FEEAE70000D9
:1042AC00F0B58DB002AD85E80600064695E8030032
:1042BC0005AC84E805001F460C2000230A93FFF789
:1042CC00E2FE024620B194E8030082E80300976006
:1042DC000B4B0B930B4B0A939DF8503008920093A9
:1042EC009DF848209DF94C3008A9304601F016F88D
:1042FC000A9B1BB108A90322084698470DB0F0BDD4
:10430C004B420B006B420B000EB403B503AB002108
:10431C0053F8042B019301F0E2F902B05DF804EBC1
:10432C0003B0704738B584690A4B036005467CB10D
:10433C006368013B63605BB9236820469B689847C0
:10434C00A368013BA3601BB923682046DB68984730
:10435C00284638BD686F0B0010B50446FFF7E2FF26
:10436C0020461C21FFF793FE204610BD2DE9F04F8F
:10437C000F460446164689B00221384602F07EF8F4
:10438C000221304602F07AF8DFF858B1E6600023DB
:10439C00C4E90137236063614FF4FA6000F064FCF8
:1043AC00D4F808A09BF800304D4DBFF35B8F13F091
:1043BC00010F09D15846FFF76CFE28B100F06CFCD8
:1043CC0028605846FFF76AFE1FFA8AFA2B684FEAF4
:1043DC000A1A13F80A809BF80030BFF35B8FD907D9
:1043EC004FEA481909D43F48FFF753FE28B100F0B3
:1043FC0053FC28603B48FFF751FE2B68534493F85D
:10440C00018008F01F0848EA09084046FFF74AFEF9
:10441C004046FFF747FED4F80CA09BF80030BFF3E2
:10442C005B8FB0F1000818BF4FF00108DA0709D410
:10443C002C48FFF72EFE28B100F02EFC28602948EE
:10444C00FFF72CFE1FFA8AFA2B684FEA0A1A13F8A8
:10445C000A909BF80030BFF35B8FDB074FEA4919DA
:10446C0009D42048FFF715FE28B100F015FC286090
:10447C001C48FFF713FE2B689A449AF8015005F07C
:10448C001F0545EA09052846FFF70CFE2846FFF7ED
:10449C0009FE08B148F00208DFF84C9084F810804F
:1044AC0000254FF0FF3823462A4649463846CDE9C9
:1044BC0000580295CDF810900595FFF7F1FECDE967
:1044CC000695CDE90185009508AA304612E906004B
:1044DC002346FFF7E5FE204609B0BDE8F08F00BF8C
:1044EC0030E503202CE50320ED400B002DE9F041D5
:1044FC008CB005460F4668467749DDF8488014466F
:10450C001E4601F0ECF9DFF828E27449DEF80030C1
:10451C007348744ADFF81CC2AB4219D10B68BB421A
:10452C0016D10368A34213D11368B34210D1DCF83F
:10453C00003043450CD101F017FE6B49FFF7E4FE48
:10454C000024684601F080F920460CB0BDE8F081EB
:10455C00CEF800500F6004601660CCF80080002F7D
:10456C0000F0B5806149684601F0E7F9694608A892
:10457C0001F0D8F90A22414604A801F0F0F904A987
:10458C0008A801F034FA5A4901F03DFA0146684690
:10459C0001F0B9F904A801F057F908A801F054F991
:1045AC00694608A801F0BEF90A22314604A801F0B8
:1045BC00D6F904A908A801F01AFA4E4901F023FA19
:1045CC000146684601F09FF904A801F03DF908A8DE
:1045DC0001F03AF9694608A801F0A4F90A2221462B
:1045EC0004A801F0BCF904A908A801F000FA42499A
:1045FC0001F009FA0146684601F085F904A801F0BA
:10460C0023F908A801F020F93C493D480023502229
:10461C0001F0D8FA0446002893D001F0A5FD3949E1
:10462C0001F035F801F0A0FD009901F030F83649A1
:10463C00334801F019F83549314801F015F834497F
:10464C002F4801F011F80A222D482946FFF7E4FD06
:10465C0030492B4801F01BF82F49294801F017F875
:10466C002E49274801F000F82449254801F00FF89D
:10467C002B49234800F0F8FF0A220299204801F048
:10468C0010F81F4800F0F7FF26491D4800F0FFFF07
:10469C001B4800F0F0FF0099194800F0F8FF01F0FA
:1046AC0063FD214900F0F3FF01F05EFD144904465F
:1046BC0008A801F0B5F80899204600F0E8FF08A812
:1046CC0001F0C2F80E4801F033FC012439E7174918
:1046DC00684601F032F997E7BF6D0B00A0E50320A7
:1046EC00A8E5032098E50320CC690B00E8690B00D2
:1046FC00FA690B00026A0B00156A0B00606E0B0066
:10470C0034E50320176A0B002E6A0B00376E0B0082
:10471C00386A0B00416A0B006A6C0B00516A0B0083
:10472C00586A0B00696A0B00906A0B000A6A0B004E
:10473C009CE50320A4E503201FB5254904466846E3
:10474C0001F0CDF801F010FD22462249FFF7DCFD07
:10475C002149684601F02DF9204A2149128851F867
:10476C0024102048002301F02DFA28B31E491D48BF
:10477C0000F08DFF1D491B4800F089FF1C491948AA
:10478C0000F085FF1B49174800F081FF1A491548B6
:10479C0000F06AFF029913480A2200F082FF1148C8
:1047AC0000F069FF0F4800F066FF00990D4800F01B
:1047BC005BFF0C4800F05FFF0A4801F081FA10B172
:1047CC00084801F0B5FB684601F03EF804B010BD96
:1047DC00BF6D0B00996A0B00A76A0B00BCE40320A9
:1047EC00A8E403207CE50320D36B0B00FB6B0B00D0
:1047FC00216C0B005E6C0B00586A0B001FB5254931
:10480C000446684601F06BF801F0AEFC22462249E2
:10481C00FFF77AFD2149684601F0CBF8204A21497F
:10482C00128851F824102048002301F0CBF928B34A
:10483C001E491D4800F02BFF1D491B4800F027FFA7
:10484C001C49194800F023FF1B49174800F01FFFB3
:10485C001A49154800F008FF029913480A2200F083
:10486C0020FF114800F007FF0F4800F004FF0099EB
:10487C000D4800F0F9FE0C4800F0FDFE0A4801F06E
:10488C001FFA10B1084801F053FB684600F0DCFF3A
:10489C0004B010BDBF6D0B00756C0B00846C0B006D
:1048AC00BCE40320A8E403207CE50320D36B0B00BD
:1048BC00FB6B0B00216C0B005E6C0B00586A0B0041
:1048CC0010B50446008801F0EAFD6268031E18BFAB
:1048DC0001236360934214BF1846002010BD0000F2
:1048EC0030B5B42397B000244FF40872CDE90043DF
:1048FC0010214FF41663344800F048FF01211120B9
:10490C0001F0BCFD0121082001F0B8FD03210C20B1
:10491C0001F0B4FD01F028FC4FF4165101F014FC29
:10492C00204600F0B1F942F210750446002000F068
:10493C00ABF9001B61F10001A84271F1000307D231
:10494C0001F012FC01F004FC10B900F059FBEDE78A
:10495C0001F00AFC1D4C1E4D01F0FAFB00231A4617
:10496C001946606800F07CFB3822002108A801F091
:10497C0055FF4C230393174B04930A220023CDE9D4
:10498C000523194603AA6068079300F089FB0023EE
:10499C0060681A46194600F043FB00226068114615
:1049AC0000F046FB28B101F0DFFB2946FFF7ACFC19
:1049BC00F3E74FF47A7000F0E7FB01F0D5FB064902
:1049CC00FFF7A2FC17B030BD10E6032018E7032058
:1049DC00BB6D0B00B06D0B00BD6D0B0003460846A4
:1049EC000BB1FFF7A9BEFFF709BF00002DE9F3419A
:1049FC004148FFF765FF414B18B11A7882F001026C
:104A0C001A7018780121FFF7E9FF3D48FFF758FFAE
:104A1C003C4B18B11A7882F001021A7018780221F6
:104A2C00FFF7DCFF3848FFF74BFF18B1374A136824
:104A3C0001331360364D374C00F0A2FC6E6900F068
:104A4C00A1FC5E2E26602ADD00F09AFC5F266E61CA
:104A5C0000F098FC2660FF23009300235F22194688
:104A6C0020682D4F2D4D00F083FB38602C48FFF74C
:104A7C0027FF18B12B7883F001032B702B78A3B987
:104A8C0001F072FB2749FFF73FFC002300931A4605
:104A9C0019460220FFF72AFD02B0BDE8F081002E76
:104AAC00D9DC00F06DFC0026D1E7DFF860801E4EEB
:104ABC0001F05AFBD8F800301C49072493FBF4F2A0
:104ACC00C2EBC2029B1A022256F82330FFF71CFCE1
:104ADC00D8F8003093FBF4F4C4EBC4041C1BFF2384
:104AEC00009356F824203B6801210220FFF7FEFCBE
:104AFC002B78002BD0D1C3E7B0E5032020E60320B0
:104B0C00B8E5032021E60320C0E50320E0E50320FF
:104B1C00F8E50320E4E50320ACE5032022E60320BE
:104B2C00D8E50320C06D0B0050E50320CE6D0B00C3
:104B3C0010B52C492C4800F0D2FE2C4A2C4B126894
:104B4C001A602C4A2C4812685A602C4A12689A60D7
:104B5C002B4A1268DA602B4A12681A612A4A1268C8
:104B6C005A612A4A12689A6101F02CFA284801F01D
:104B7C0029FA284B02201860002101F07FFC264BFB
:104B8C0003241C602046002101F078FC234B0420F8
:104B9C001860002101F072FC214B052018600021E7
:104BAC0001F06CFC1F4B06201860002101F066FC24
:104BBC001D4B0C201860002101F060FC1B4800F01C
:104BCC00D1FD0F221A480E21FFF7D0FB194B002202
:104BDC00C3E90022A2F580329A602046BDE810405D
:104BEC0000F0EAB9BF6D0B00E8E503206CE503208B
:104BFC0050E503209CE4032034E50320A4E40320C7
:104C0C0094E4032090E4032098E40320A0E4032020
:104C1C007CE50320B0E50320B8E50320C0E50320C4
:104C2C00C8E50320D0E50320D8E5032010E60320D7
:104C3C00F8E5032070E5032008B500F02DF8014BD2
:104C4C00186008BD30E6032008B5024B1B685B6C8E
:104C5C00019308BD4802030008B5024B1B685B6852
:104C6C00019308BD1802030008B5024B1B68DB68F2
:104C7C00019308BD1802030008B5024B1B685B6961
:104C8C00019308BD1802030008B5024B1B68DB6DCD
:104C9C00019308BD1802030008B5024B1B681B6882
:104CAC00019308BD2C02030008B5024B1B685B681E
:104CBC00019308BD2C02030008B5024B1B689B68CE
:104CCC00019308BD2C02030008B5024B1B68DB687E
:104CDC00019308BD2C02030008B5024B1B685B69ED
:104CEC00019308BD2C02030008B5024B1B689B699D
:104CFC00019308BD2C02030008B5024B1B68DB694D
:104D0C00019308BD2C02030008B5024B1B681B6AFB
:104D1C00019308BD2C02030008B5024B1B685B6AAB
:104D2C00019308BD2C02030008B5024B1B681B6ADB
:104D3C00019308BD2802030008B5024B1B685B6A8F
:104D4C00019308BD2802030008B5024B1B689B6A3F
:104D5C00019308BD2802030008B5024B1B68DB6AEF
:104D6C00019308BD2802030008B5024B1B681B6B9E
:104D7C00019308BD2802030008B5024B1B685B6B4E
:104D8C00019308BD2802030008B5024B1B681B6C7D
:104D9C00019308BD2802030008B5024B1B685B6930
:104DAC00019308BD6C02030008B5024B1B685B69DC
:104DBC00019308BD6402030008B5024B1B681B6A13
:104DCC00019308BD6402030008B5024B1B689B6A83
:104DDC00019308BD6402030008B5024B1B689B6875
:104DEC00019308BD6802030008B5024B1B68DB6821
:104DFC00019308BD6802030008B5024B1B681B69D0
:104E0C00019308BD2402030008B5024B1B685B69C3
:104E1C00019308BD2402030008B5024B1B689B6973
:104E2C00019308BD3802030008B5024B1B68DB690F
:104E3C00019308BD3802030008B5024B1B681B6ABE
:104E4C00019308BD3802030008B5024B1B689B6A2E
:104E5C00019308BD3802030008B5024B1B681B6B9D
:104E6C00019308BD3802030008B5024B1B689B6B0D
:104E7C00019308BD3802030008B5024B1B68DB69BF
:104E8C00019308BD3002030008B5024B1B681B6A76
:104E9C00019308BD3002030008B5024B1B68DB68A8
:104EAC00019308BD3C02030008B5024B1B681B694B
:104EBC00019308BD3C02030008B5024B1B685B69FB
:104ECC00019308BD3C02030008B5024B1B689B69AB
:104EDC00019308BD3C02030008B5024B1B68DB695B
:104EEC00019308BD3C02030008B5024B1B681B6A0A
:104EFC00019308BD3C02030008B5024B1B689B6A7A
:104F0C00019308BD3C02030008B5024B1B681B6CE7
:104F1C00019308BD3C02030008B5024B1B681B68DB
:104F2C00019308BD4C02030008B5024B1B685B687B
:104F3C00019308BD4C02030008B5024B1B681B69AA
:104F4C00019308BD4C02030008B5024B1B685B695A
:104F5C00019308BD4C02030008B5024B1B689B690A
:104F6C00019308BD4C02030008B5024B1B68DB69BA
:104F7C00019308BD4C02030008B5024B1B681B6A69
:104F8C00019308BD4C02030008B5024B1B689B6AD9
:104F9C00019308BD4C02030008B5024B1B685B6B08
:104FAC00019308BD6002030008B5024B1B681B6D22
:104FBC00019308BD6002030008B5024B1B685B68D7
:104FCC00019308BD2002030008B5024B1B685B6906
:104FDC00019308BD2002030008B5034B1B68D3F8EE
:104FEC008830019308BD00002002030008B5034B74
:104FFC001B68D3F89430019308BD00002002030015
:10500C0008B5024B1B689B68019308BD4402030062
:10501C0008B5024B1B68DB6B019308BD440203000F
:10502C0008B5024B1B685B68019308BD4002030086
:10503C0008B5024B1B689B68019308BD4002030036
:10504C0008B5024B1B68DB68019308BD40020300E6
:10505C0008B5024B1B681B69019308BD4002030095
:10506C0008B5024B1B685B69019308BD4002030045
:10507C0008B5024B1B689B69019308BD40020300F5
:10508C0008B5024B1B68DB69019308BD40020300A5
:10509C0008B5024B1B681B6A019308BD4002030054
:1050AC0008B5024B1B689B6A019308BD40020300C4
:1050BC0008B5024B1B681B6B019308BD4002030033
:1050CC0008B5024B1B685B6B019308BD40020300E3
:1050DC0008B5024B1B681B6C019308BD4002030012
:1050EC0008B5024B1B685B6C019308BD40020300C2
:1050FC0008B5024B1B681B68019308BD1C0203001A
:10510C0008B5024B1B685B68019308BD1C020300C9
:10511C0008B5024B1B689B68019308BD1C02030079
:10512C0008B5024B1B685B6A019308BD1C020300A7
:10513C0008B5024B1B68DB6A019308BD1C02030017
:10514C0008B5024B1B68DB6B019308BD1C02030006
:10515C0008B5024B1B681B6C019308BD1C020300B5
:10516C0008B5024B1B685B6C019308BD1C02030065
:10517C008A4210B507D0441A0298C01A4443501AF8
:10518C0094FBF0F0184410BD0021FFF71DBF10B5C3
:10519C008368044613B1032201469847204610BD8C
:1051AC00024800230360FFF74FBD00BF34E6032025
:1051BC00002240681146FFF76BBF00224068114681
:1051CC00FFF77EBF40680022FFF772BF40680022E5
:1051DC0081F00101FFF754BF002340681A461946BD
:1051EC00FFF746BF002340681A461946FFF738BF41
:1051FC00002240681146FFF72BBF00224068114681
:10520C00FFF716BF406800220221FFF719BF0023E9
:10521C0040681A46FFF704BF024B03225A60024A49
:10522C001A60704738E603207C6E0B007047F8B5A7
:10523C00064615460C468F18BC4206D0336814F847
:10524C00011B9B6830469847F6E72846F8BD007C62
:10525C000022FFF769BD007C0021FFF76DBD007CCB
:10526C000021FFF771BD007C0021FFF775BD007CAC
:10527C000021FFF779BD10B514210446FEF707FF96
:10528C00204610BD38B5044615464FF47A730022FB
:10529C00C4E90123094B2174084623602946FFF712
:1052AC0073FDBF3008D16B69DB0705D56868FFF764
:1052BC0027FFE868FFF724FF204638BDB86E0B00C7
:1052CC00826810B50AB901F07FF9BDE81040C368D7
:1052DC0018470000F8B5104F57F8204006460D4609
:1052EC0034B12046FFF753FF10212046FEF7CFFEC6
:1052FC001020FEF7C8FE044650B100238360AB6853
:10530C0033B1022229469847EB68E360AB68A3608F
:10531C0047F826402046F8BD40E60320F0B587B09C
:10532C000546039117461E46FFF7E6FC03992846EF
:10533C00FFF7D0FF0446E8B100218E424FF0040382
:10534C00ADF815108DF817108DF81430A2BF05A903
:10535C009DF830308DF81630009102460749A8BFF1
:10536C008DF815603B462846FFF7BEFC10B10020B7
:10537C0007B0F0BD201E18BF0120F9E7CD520B007D
:10538C00FFF7CABCFFF7C0BC704710B51821044624
:10539C00FEF77DFE204610BDF0B5037D062B8DB0CB
:1053AC000E4600F104074FF0000412D000F108057E
:1053BC0015F8011D0A22304600F073F9AF4204447F
:1053CC0019D0002CF4D02E21304600F051F90444B1
:1053DC00EEE72F236A4639460A208DF80040FFF786
:1053EC00E3FC684601F062FA33680246DB68694602
:1053FC0030469847044620460DB0F0BD10B5054B1D
:10540C000446112240F8043B002101F007FA204623
:10541C0010BD00BFE06E0B000346074A10B543F801
:10542C00042B01F1100251F8044B43F8044B914248
:10543C00F9D10A781A7010BDE06E0B00037D042BB5
:10544C0004D14068003818BF01207047062B07D1E3
:10545C0043683BB983682BB9C3681BB90069F1E792
:10546C00002070470120704710B59DF8084044EAB1
:10547C00032343EA024242EA0161042341600375BB
:10548C0010BD000007B5064B0360CB7800938B78FA
:10549C004A780978FFF7E8FF03B05DF804FB00BF1A
:1054AC00E06E0B00014B024A1A607047D0E60320F5
:1054BC00EC6E0B00002340681A46FFF7B1BD406844
:1054CC0000220221FFF7BCBD002240681146FFF705
:1054DC00AFBD002240681146FFF7BABD00234068FB
:1054EC001A461946FFF7BCBD002340681A461946F8
:1054FC00FFF7BEBD40680021FFF7EABD4068002100
:10550C00FFF7EEBD4068002281F00101FFF7B8BD46
:10551C0040680022FFF7CCBD002240681146FFF71F
:10552C00CFBD002240681146FFF7B2BD2DE9F04314
:10553C0095B014460D460746FFF760FF00211C226C
:10554C000DA8009101F06AF940230C9320466B469C
:10555C000CAA0021FFF748FC044600284BD1024658
:10556C0001216868FFF774FD0221804622466868B5
:10557C00FFF76EFD009E81462146002E3BD0002990
:10558C0039D17368022B03D00A2B11D0F669F4E7DA
:10559C00B8F1000FFAD0716906A8043107ADFFF716
:1055AC0071FF0FCD3C1D0FC42B6823704146EDE7F6
:1055BC00B9F1000FEAD07469102201A801F02EF99C
:1055CC0006238DF8143001AD04F108031834186863
:1055DC0059682A4603C20833A3421546F7D101A9DC
:1055EC0006A807ADFFF718FF0FCD3C1D0FC42B68A5
:1055FC0023704946CAE70098FFF7EEFB384615B012
:10560C00BDE8F083024B034A1A6000225A607047CF
:10561C00D4E60320F86E0B00F8B506460D468F183D
:10562C000024BD420CD0336815F8011B9B68304632
:10563C009847031E01DB1C44F3E7002C08BF1C46F3
:10564C002046F8BD13B50446084659B1019101F046
:10565C002DF923680199DB680246204602B0BDE8AB
:10566C001040184702B010BD08B5FFF7EBFF08BD9E
:10567C0003689B68184738B50D210546FFF7F8FFFE
:10568C000A2104462846FFF7F3FF204438BD38B5FD
:10569C000546FFF7D7FF04462846FFF7ECFF2044EA
:1056AC0038BD30B58BB00023012A8DF8243098BF5B
:1056BC000A2209AC0D46B1FBF2F101FB125303F0C7
:1056CC00FF03092B94BF30333733DBB2AA4204F803
:1056DC00013DEFD92146FFF7B5FF0BB030BD2DE9E9
:1056EC00F04186B000AF05460E46381D1421144615
:1056FC003B60FFF715FD13280ED8391D2846FFF720
:10570C00A1FF04461EB12846FFF7B5FF044420460E
:10571C001837BD46BDE8F08100F1080323F00703FC
:10572C00E846ADEB030D2246411C3B686846FFF78B
:10573C00F7FC69462846FFF785FF0446C546E1E7B6
:10574C00014B00229A607047DCE60320044A4FF4B8
:10575C001663C0E90023B42303810023C3607047A0
:10576C00FFFF200208B5FFF7F1FF08BD10B5044696
:10577C00B0F90000431C07D080B2FFF745FB204670
:10578C00FFF7E4FF012010BD0020FCE72DE9F041FC
:10579C000D4604460221284690461F46FFF784FA20
:1057AC00022803D000263046BDE8F081284600F0E0
:1057BC0027FE06460028F5D0B4F90030013302D09C
:1057CC002046FFF7D3FFBDF91830E380BDF91C303C
:1057DC002580A4F80280A78023812846FFF70CFBC4
:1057EC00E1E710B5044608462170FFF745FB00239E
:1057FC006360204610BD10B50446FFF73DFAE0602B
:10580C00236820465B699847002808DAFFF734FACA
:10581C00E368C01AA3689842F2D34FF0FF3010BD72
:10582C0038B50D460749044600F059F82846FFF7ED
:10583C00E2FF002804DBC1B2204600F0CBF8F5E70C
:10584C00204638BDBF6D0B0010B504460068FFF74D
:10585C0057FC204610BD10B50446006808B1FFF790
:10586C004FFC0023C4E90133236010BD38B5044656
:10587C000D4600680131FFF74BFC10B1C4E900057F
:10588C00012038BD10B50368044623B143688B4230
:10589C0001D3012010BD2046FFF7E8FF0028F9D006
:1058AC00A368002BF5D122681370F2E737B50D46CB
:1058BC00114601920446FFF7E5FF019A28B92046EC
:1058CC00FFF7C9FF204603B030BDA260294620680F
:1058DC0000F096FF2268A3680021D154F2E7002360
:1058EC0013B5C0E9003304468360037341B1084625
:1058FC00019100F0DBFF019902462046FFF7D6FF2D
:10590C00204602B010BD884210B5044605D00B6885
:10591C002BB18A681946FFF7C9FF204610BDFFF767
:10592C009AFFFAE710B500230446C0E90033836000
:10593C000373FFF7E8FF204610BD13B5044659B1B9
:10594C000846019100F0B2FF019902462046FFF78C
:10595C00ADFF204602B010BDFFF77DFFF9E710B593
:10596C0004468AB00023C4E90033A36023730846BD
:10597C0001A900F093FC01A92046FFF7DEFF2046A9
:10598C000AB010BD70B505460E4609B9002070BDB1
:10599C006AB1846814442146FFF774FF0028F5D0DF
:1059AC002868AB683146184400F078FFAC600120E1
:1059BC00EDE713B50446084651B1019100F076FFAE
:1059CC0001990246204602B0BDE81040FFF7DABF4D
:1059DC0002B010BD07B500238DF80410012201A9F7
:1059EC008DF80530FFF7CEFF03B05DF804FB10B562
:1059FC008A6809680446FFF7C5FF10B92046FFF70F
:105A0C002AFF204610BD13B5044629B92046FFF7DE
:105A1C0022FF204602B010BD0846019100F046FF5F
:105A2C00019902462046FFF7ADFF0028EED0F0E7C3
:105A3C00054B02221A60054B054A9A600020C3E907
:105A4C000000FFF7B9BA00BFF8E60320ECE603202C
:105A5C000000FFFF13B503688DF80710DC6B012203
:105A6C004FF0FF330DF10701A04702B010BD10B489
:105A7C000368DC6B4FF0FF33A4465DF8044B6047C2
:105A8C0013B5134602688DF80710D46B0DF107019E
:105A9C000122A04702B010BD10B54369B3F88620AF
:105AAC00B3F884309A42044608D06369B3F8842072
:105ABC00511CA3F884101344187910BD03681B699A
:105ACC0098470028F1D14FF0FF30F6E77047436953
:105ADC001868C043C00F704770470000064B9942CE
:105AEC0010B500F10C0405D0084600F071FD00283B
:105AFC0008BF0024204610BD6C6E0B0010B5AC2105
:105B0C000446FEF7C4FA204610BDAC21FEF7BFBA1E
:105B1C002DE9F0414FF0000886B01C46C0F8048017
:105B2C0005460E4617464146102202A800F076FEA6
:105B3C00631C09D04FF47A73B4FBF3F203FB1244E9
:105B4C00CDE902285C430494686910230093006833
:105B5C0002AB41F2050240F6FF71FFF75DF9002838
:105B6C0007DAFFF7EDFA03686B60002006B0BDE8BA
:105B7C00F0816869002300683A463146FFF76CF9FA
:105B8C00031EEEDB1846F1E730B587B0044601ADD5
:105B9C006846FFF777FC0FCD04340FC42B682370D5
:105BAC0007B030BD70B54D69054B04468C3544F8D3
:105BBC00043B06460FCD0FC42B682370304670BDD6
:105BCC00E06E0B002DE9F0439846036893B00D4648
:105BDC000024DB6A06461746984728466B46224641
:105BEC0021460094FFF700F90546002863D1009B7D
:105BFC00002B4BD05B69002B48D006A8FFF7FEFBAF
:105C0C00009B5C696378022B04D1211D06A8FFF769
:105C1C00BBFF26E00A2B24D11122294601A800F053
:105C2C00FDFDA368002B38D004F108030DF1040C22
:105C3C00183418685968624603C20833A342944664
:105C4C00F7D1062301A90CA88DF81430FFF7E4FB5B
:105C5C000DF1340CBCE80F0007AC0FC4DCF80030BD
:105C6C00237006A8FFF7EAFB80B1336807ADD3F8C1
:105C7C002090124B0C930FCD0DAC0FC42B682370DE
:105C8C003A4643460CA93046C84705460098FFF7EC
:105C9C00A3F8284613B0BDE8F083E368002BC3D10A
:105CAC004FF6FF70D4F81090FFF786F88145BBD102
:105CBC0004F11401AAE72546E8E700BFE06E0B00EB
:105CCC0038B543691A68002A054610DAB3F88620FD
:105CDC00B3F884309A420AD103681B69984704468A
:105CEC0028B92B682846DB6A9847204638BD012026
:105CFC00FCE710B54369B3F88620B3F884309A42B8
:105D0C00044605D06369B3F884201344187910BD98
:105D1C0003681B6998470028F4D14FF0FF30F6E771
:105D2C00F8B543691746B3F88620B3F884309A4225
:105D3C0005460E4616D06969B1F88430B1F8864034
:105D4C00E41ABC4228BF3C46043322461944304670
:105D5C0000F056FD6A69B2F884302344A2F884300E
:105D6C002046F8BD03681B6998470028E3D14FF023
:105D7C00FF34F5E742690023A2F884304269A2F8A7
:105D8C00863070472DE9F0411F4603680C46DB6AEC
:105D9C008AB0054616469847237DD5F81480042B07
:105DAC000CBF02200A2006220121FFF75DF8C8F87B
:105DBC0000006B691B68002B08DA2B682846DB6A2D
:105DCC000024984720460AB0BDE8F0812846FFF72A
:105DDC00D1FFB7B1002303A9F8B20393ADF810308B
:105DEC00FEF7DAFF0028E8D1686906230093006803
:105DFC0003AB41F20B0240F6FF71FFF70DF80028E0
:105E0C00DBD11C22002103A800F008FD237D042B0C
:105E1C001DD14FF407733046ADF80C30FEF7D4FFAC
:105E2C00ADF80E006068FEF7C7FF04906B691C228A
:105E3C00186803A9FFF700F80028BED104340FCC72
:105E4C006D698C350FC523682B700124BAE740F6B9
:105E5C001C233046ADF80C30FEF7B6FF05AEADF89E
:105E6C000E00231D04F1140718685968324603C24A
:105E7C000833BB421646F7D1D8E7000030B542696B
:105E8C00B2F886308BB004462BB1B2F884209A421B
:105E9C0001D1FFF76FFF61690868002818DBB1F8C2
:105EAC0086507F2D14D804310823C5F18002294473
:105EBC00FEF7CAFF002813DD6369B3F886200AB920
:105ECC00A3F884206369B3F886201044A3F88600F5
:105EDC006369B3F88600B3F88430C01A0BB030BDD8
:105EEC00FFF72EF903680B2BF2D0FFF729F90368A3
:105EFC000B2BEDD020230025CDE90235FFF720F93F
:105F0C0003680193084B0949009302AA2B463220DF
:105F1C00FFF74AF863691868FEF786FF63694FF06C
:105F2C00FF321A60D4E700BF336F0B002C6F0B00ED
:105F3C0010B5436904461868002801DBFEF774FFAE
:105F4C0063694FF0FF321A606069112200218C30B6
:105F5C0000F064FC2046BDE81040FFF70BBF10B505
:105F6C00002304460160C0F884308830FFF746FAFD
:105F7C00204610BD73B500234FF47A72C0E901328C
:105F8C000E4A0361026043610446AC200191FEF7A6
:105F9C007AF8051E05F10C0608D00123C5E901337A
:105FAC00074B01992B603046FFF7D9FF2046C4E917
:105FBC000565FFF7DFFE02B070BD00BF686F0B0018
:105FCC004C6F0B0010B54FF0FF310446FFF7D2FFBA
:105FDC00204610BD10B504460068002801DBFEF712
:105FEC0023FF204610BD0C30FFF7F4BF024B1A689C
:105FFC00024B1A60704700BFC0E40320FCE603208C
:10600C0070474174704708B5007CFEF775FF20EAB5
:10601C00E07008BD08B5007CFEF746FF20EAE07092
:10602C0008BD08B5007CFEF74FFF40EAE07008BDE4
:10603C0008B5007CFEF740FF40EAE07008BD007C2C
:10604C00FEF74ABF37B5457C04462DB1207C03B022
:10605C00BDE83040FEF720BF007C0191FEF74CFFFD
:10606C0000280199F2DC284603B030BD10B514218C
:10607C000446FEF70CF8204610BD000010B54FF496
:10608C007A730446084611460022C4E90123044BE6
:10609C002360012320746374FEF736FF204610BD85
:1060AC00D06F0B00417470477047704708B50021E2
:1060BC00007CFEF751FF40EAE07008BD08B50121F5
:1060CC00007CFEF749FF40EAE07008BD08B5007C93
:1060DC00FEF73AFF20EAE07008BD08B5007CFEF739
:1060EC002BFF20EAE07008BD13B50446007C01913B
:1060FC00FEF72AFF0028019901DC607C20B1207C8E
:10610C00FEF732FF20EAE07002B010BD007CFEF713
:10611C0033BF10B514210446FDF7B9FF204610BD5E
:10612C0010B54FF47A73044608460021C4E90113F4
:10613C00044B23600123207463741146FEF7ECFEBC
:10614C00204610BD00700B00007C0022FEF7ECBE58
:10615C00007CFEF719BF10B514220446002100F094
:10616C005DFB204610BD000010B50F4C88B003A895
:10617C00FFF7F1FF2178BFF35B8F11F001010FD115
:10618C0020460191FDF785FF019948B103AA074804
:10619C00FFF7C6FF2046FDF781FF054800F02AFBFC
:1061AC00024808B010BD00BF00E7032004E703203D
:1061BC00B5600B00002240681146FEF749BF002273
:1061CC0040681146FEF764BF002240681146FEF796
:1061DC0077BF40680022FEF76BBF4068002281F059
:1061EC000101FEF74DBF002340681A461946FEF721
:1061FC003FBF002340681A461946FEF731BF002204
:10620C0040681146FEF714BF406800220221FEF7D9
:10621C0017BF002340681A46FEF702BF024B042248
:10622C005A60024A1A60704718E7032030700B005E
:10623C0010B5044600F03AFB01382318204683427F
:10624C0006D90278197800F8011B03F80129F6E742
:10625C0010BD70B50C46911E22291DD8254630B9AB
:10626C00234430229D4210D205F8012BFAE7B0FBF3
:10627C00F2F602FB1600C1B2092894BF3031573137
:10628C00C9B205F8011B3046E9E7002320462B7004
:10629C00FFF7CEFF204670BD0020FCE738B5031E8B
:1062AC000C4615460EDAB3F1004F4FF02D0214BF19
:1062BC005842184601230A702A461944FFF7C9FFB1
:1062CC00204638BD0123F9E7014B1860704700BF29
:1062DC00C4E4032008B50B4B43B1FFF745FF03683B
:1062EC001B699847002801DDAFF30080064B43B1D2
:1062FC0000F044F903681B699847002801DDAFF3EF
:10630C00008008BD000000000000000008B5FFF789
:10631C00E1FFFEF7B1FC014B186008BD28E7032034
:10632C000548064A064908B5121A00F069FA054BE9
:10633C00054A1A6008BD00BF00F4032004F40320D2
:10634C0024720B0000F403201E1C279A07B50023AF
:10635C0000931A466FF07701FEF748FE03B05DF824
:10636C0004FB000007B543880A2B08D0502B0BD137
:10637C00094B1B684BB103B05DF804EB1847FFF7F2
:10638C00E5FF03B05DF804FB002300931A466FF0A1
:10639C007701FEF72BFEF4E724E7032010B5124833
:1063AC000021FEF7DDFE114B1A68114B9A42114B7E
:1063BC000CBF012200221A7001D0FFF7B1FFFEF7CB
:1063CC004BFC044600F032FA0B4B13B12046AFF3F2
:1063DC00008000210848FEF71BFEBDE8104007486E
:1063EC000021FEF7F9BD00BFD5620B0000F40320BD
:1063FC001E1C279A20E703200000000071630B008D
:10640C00232813B502D9002002B010BDA0F10B0354
:10641C00022B1AD8174C2178BFF35B8F11F00101B6
:10642C000BD120460191FDF734FE019928B1124899
:10643C00FFF7D7F92046FDF731FE0F4B1878FEF722
:10644C0023FD0028DFD10120DEE7012809D800F068
:10645C0055F80021007CFEF78FFC80F00100C0B2E3
:10646C00D2E709380128EED800F088F8007CFEF756
:10647C003BFDF2E724E6032028E60320232838B569
:10648C0004460D460AD8FF2908D0FFF7B9FF28B1FA
:10649C0029462046BDE83840FEF70EBC38BD10B585
:1064AC000446FEF711FC031FDBB2012B08D9204672
:1064BC00FFF7A6FF20B12046BDE81040FEF70CBC4C
:1064CC00002010BD7047000038B50A4B0360012353
:1064DC00044643610849202000F074F820256060D0
:1064EC000549A560284600F06DF8C4E9030520466F
:1064FC0038BD00BF1800010064700B0030B50E4DA4
:10650C002978BFF35B8F11F0010487B011D12846B5
:10651C00FDF7BFFD68B16846FFF7D6FF6A46214616
:10652C000648FEF7AFFE2846FDF7B8FD044800F01C
:10653C0061F9024807B030BD2CE7032030E7032097
:10654C00D1640B007047000038B5044614252A4668
:10655C00002100F063F92580402507492581284654
:10656C00258200F02FF804496060284600F02AF8D4
:10657C00E060204638BD00BF64700B0030B50E4D96
:10658C002978BFF35B8F11F0010487B011D1284635
:10659C00FDF77FFD68B101A8FFF7D6FF01AA2146E0
:1065AC000648FFF76BFD2846FDF778FD044800F020
:1065BC0021F9024807B030BD44E7032048E7032027
:1065CC0051650B00FDF761BD08B5FEF7B1FD00008C
:1065DC00014900F0F9B800BF80700B007FB50024B2
:1065EC001023CDE90234036815469E6912686B4688
:1065FC00CDE90044B0479DF8043003F00603062BA8
:10660C0003BF009B2B600120204604B070BD009896
:10661C00904214BF012006207047000010B5034BB8
:10662C000360044600F0CDF8204610BDC0700B008E
:10663C0010B50446FFF7F2FF20460821FDF727FDB1
:10664C00204610BD2DE9F0411F46DDE90834DDF888
:10665C00188098450646154607D1079900F0B4F8FE
:10666C0018B165710020BDE8F0813946304600F064
:10667C00ABF80028F6D00123C4F800802571A37173
:10668C00F0E738B515461C4600F09EF820B10823FB
:10669C00E36006232560237138BD73B505460C46AF
:1066AC0001921E4600F090F850B9032E08D82368CA
:1066BC00019A5B692946204602B0BDE87040184734
:1066CC0002B070BD10B5034B03600446FFF7A6FF84
:1066DC00204610BD20710B0010B50446FFF7F2FFE9
:1066EC0020460C21FDF7D3FC204610BDF7B5089FC2
:1066FC00974205460E4614460AD0A86802680897C9
:10670C00156A31462246AC4603B0BDE8F0406047FE
:10671C001946019300F058F8019B0028EDD0062093
:10672C0003B0F0BD2DE9F14F0D461946DDE90A4BDA
:10673C00DDE90CA681461746984600F045F890B165
:10674C00002D3460377109DB61198A450CBF0621B5
:10675C000121B171002001B0BDE8F08F0235F9D1F3
:10676C000123B371F6E7544506D15946484600F06B
:10677C002BF808B17771EDE7D9F808000368CDE97B
:10678C000CA6CDE90A4BDC693A4643462946A44699
:10679C0001B0BDE8F04F60472DE9F04107460C46CB
:1067AC0015461E46FFF76DFF48B9B86803689F6928
:1067BC002A4633462146BC46BDE8F0416047BDE859
:1067CC00F081704700207047814208B50ED04068B8
:1067DC0003782A2B0CD049680B782A2B08BF01317F
:1067EC0000F052F8B0FA80F0400908BD0120FCE737
:1067FC000020FAE7002301461A46184600F05EB85E
:10680C000A44914200F1FF3300D1704710B511F8E2
:10681C00014B03F8014F9142F9D110BD02440346DC
:10682C00934200D1704703F8011BF9E738B5104BC0
:10683C001D68AB6B0446B3B91820FEF759FC024631
:10684C00A86320B90B4B0C484221FEF781FC0B4985
:10685C000B4BC0E900130B4B83600B23838100218E
:10686C000120C2E90401AB6B00221C615A6138BDE6
:10687C00C4E4032059710B0070710B000E33CDABC7
:10688C0034126DE6ECDE050010F8012B11F8013B1B
:10689C00012A28BF9A42F7D0D01A7047034611F844
:1068AC00012B03F8012B002AF9D17047034613F88A
:1068BC00012B002AFBD1181A013870472DE9F84337
:1068CC00DFF8B8800646D8F800001F460D46914602
:1068DC0000F056F8254B1C6834B9254C1C60254B30
:1068EC0013B11B68C4F8883063681F2B07DDD8F818
:1068FC00000000F047F84FF0FF30BDE8F8834EB3CE
:10690C00D4F8880088B91C4B23B9D8F8000000F0E3
:10691C0038F8F0E74FF48470FEF7EAFB0028F4D067
:10692C000023C0E94033C4F88800636840F8239022
:10693C0001229A4000EB8301D0F800311343C0F8D8
:10694C000031022EC1F8807002BFD0F8043113431D
:10695C00C0F804316368D8F800005A1C0233626036
:10696C0044F8235000F00EF80020C6E7E8E70320B7
:10697C005CE7032000000000FD500B0028E503201D
:10698C0070477047704700001D400B0059400B00CA
:10699C0081400B0085400B000000000041737365C3
:1069AC007274696F6E4661696C757265202A705FCE
:1069BC0070696E203C20283332202B203136290080
:1069CC004E6F204368616E6765202D2043616E63B6
:1069DC00656C6C696E6720434D440A007B226F6EB8
:1069EC00223A747275652C22736174223A002C223F
:1069FC00627269223A002C22687565223A007B2269
:106A0C006F6E223A66616C73657D0053656E6469C6
:106A1C006E6720436F6D6D616E6420746F204875D6
:106A2C006500505554202F6170692F002F6C6967D9
:106A3C006874732F002F737461746520485454501C
:106A4C002F312E3100486F73743A2000436F6E74EF
:106A5C00656E742D4C656E6774683A2000436F6EDA
:106A6C0074656E742D547970653A20746578742F42
:106A7C00706C61696E3B636861727365743D5554EB
:106A8C00462D380046726F6D204875650053776946
:106A9C007463684F4E202569200A003C3F786D6C6A
:106AAC002076657273696F6E3D22312E302220651F
:106ABC006E636F64696E673D227574662D38223F74
:106ACC003E3C733A456E76656C6F706520786D6CE4
:106ADC006E733A733D22687474703A2F2F73636827
:106AEC00656D61732E786D6C736F61702E6F72674C
:106AFC002F736F61702F656E76656C6F70652F22CA
:106B0C0020733A656E636F64696E675374796C6554
:106B1C003D22687474703A2F2F736368656D6173CE
:106B2C002E786D6C736F61702E6F72672F736F613F
:106B3C00702F656E636F64696E672F223E3C733AEB
:106B4C00426F64793E3C753A53657442696E61726A
:106B5C0079537461746520786D6C6E733A753D224F
:106B6C0075726E3A42656C6B696E3A7365727669D2
:106B7C0063653A62617369636576656E743A312256
:106B8C003E3C42696E61727953746174653E313C6E
:106B9C002F42696E61727953746174653E3C2F7536
:106BAC003A53657442696E61727953746174653ECF
:106BBC003C2F733A426F64793E3C2F733A456E76A4
:106BCC00656C6F70653E00504F5354202F75706E7E
:106BDC00702F636F6E74726F6C2F62617369636573
:106BEC0076656E743120485454502F312E31004349
:106BFC006F6E74656E742D547970653A2074657877
:106C0C00742F786D6C3B20636861727365743D758D
:106C1C0074662D3800534F4150414354494F4E3AFE
:106C2C00202275726E3A42656C6B696E3A736572AE
:106C3C00766963653A62617369636576656E743A09
:106C4C00312353657442696E617279537461746552
:106C5C002200436F6E6E656374696F6E3A206B65CC
:106C6C0065702D616C697665007377697463684F24
:106C7C004646202569200A003C3F786D6C207665DD
:106C8C007273696F6E3D22312E302220656E636FF8
:106C9C0064696E673D227574662D38223F3E3C73E5
:106CAC003A456E76656C6F706520786D6C6E733AD4
:106CBC00733D22687474703A2F2F736368656D612D
:106CCC00732E786D6C736F61702E6F72672F736F8C
:106CDC0061702F656E76656C6F70652F2220733A2C
:106CEC00656E636F64696E675374796C653D226879
:106CFC007474703A2F2F736368656D61732E786DA1
:106D0C006C736F61702E6F72672F736F61702F656C
:106D1C006E636F64696E672F223E3C733A426F64F8
:106D2C00793E3C753A53657442696E61727953745D
:106D3C0061746520786D6C6E733A753D2275726E58
:106D4C003A42656C6B696E3A736572766963653A43
:106D5C0062617369636576656E743A31223E3C42BA
:106D6C00696E61727953746174653E303C2F42696F
:106D7C006E61727953746174653E3C2F753A53653C
:106D8C007442696E61727953746174653E3C2F7301
:106D9C003A426F64793E3C2F733A456E76656C6F60
:106DAC0070653E00496F544E6574776F726B002CA2
:106DBC00000A0A005348555420455220444F574E60
:106DCC000A0073657474696E6720636F6C6F722050
:106DDC006F662062756C6220256920746F20636F6A
:106DEC006C6F7220253036690A003139322E3136FB
:106DFC00382E312E3330003139322E3136382E3197
:106E0C002E3331003139322E3136382E312E333289
:106E1C00003139322E3136382E312E3333003139A0
:106E2C00322E3136382E312E3334004D516C5A7A85
:106E3C0069524F30576169354D734D486C6C3878D9
:106E4C00415541517177383551727238744D333721
:106E5C00463354003139322E3136382E312E35002E
:106E6C000000000000000000000000000000000016
:106E7C001B520B0011520B0007520B00FD510B0063
:106E8C00F1510B00E5510B0001550B0009550B009E
:106E9C00D9510B00D1510B00C7510B00BD510B0048
:106EAC0039550B00000000000000000039520B00A7
:106EBC0083520B005B520B003B520B0063520B00D6
:106ECC006B520B0073520B007B520B000000000046
:106EDC0000000000A5530B0095530B0097530B00BB
:106EEC00617070000000000000000000C1540B0035
:106EFC00CB540B00D5540B00DF540B00E9540B00A2
:106F0C00F5540B0001550B0009550B0011550B00E6
:106F1C001D550B0025550B002F550B0039550B003B
:106F2C00776972696E670072656376206572726F3D
:106F3C0072203D20256400000000000000000000CD
:106F4C00E55A0B00095B0B00F35F0B00175B0B00A2
:106F5C00E95A0B00000000000000000031430B0058
:106F6C0065430B00615A0B007B5A0B00895E0B00CA
:106F7C00A55A0B00FF5C0B00D95A0B00915D0B005E
:106F8C00D15B0B002D5D0B003D5F0B00CD5C0B004E
:106F9C00DB5A0B008D5A0B001D5B0B00B15B0B0019
:106FAC0025592D256D2D25645425483A254D3A2516
:106FBC0053257A0061736374696D650000000000ED
:106FCC00000000000D600B0079600B0051600B009D
:106FDC0025560B0021600B003D600B002F600B0051
:106FEC004B600B000F600B0013600B0000000000E7
:106FFC0000000000B7600B001F610B00F5600B0078
:10700C0025560B00E7600B00B9600B00C9600B0044
:10701C0019610B00D9600B00B1600B00000000007F
:10702C00000000001F620B0015620B000B620B00CE
:10703C00C1610B00FF610B00F3610B0001550B00EC
:10704C0009550B00E7610B00DF610B00D5610B00EC
:10705C00CB610B0039550B0000537431395F537001
:10706C005F6D616B655F7368617265645F746167A6
:10707C0000000000C0700B0065700B0020710B004D
:10708C0094700B0044710B004E31305F5F63787865
:10709C00616269763131375F5F636C6173735F7402
:1070AC007970655F696E666F450000000000000036
:1070BC0088700B0029660B003D660B00D1670B0036
:1070CC00D1670B00A7660B00E9650B008F660B0000
:1070DC0051660B001B660B0020710B00F0700B004F
:1070EC0088700B004E31305F5F637878616269762F
:1070FC003132305F5F73695F636C6173735F747996
:10710C0070655F696E666F4500000000000000004E
:10711C00E4700B00D1660B00E5660B00D1670B0029
:10712C00D1670B00A7660B00E9650B00A5670B0088
:10713C0031670B00F9660B00C0700B004C710B0033
:10714C00537439747970655F696E666F005245458A
:10715C004E54206D616C6C6F632073756363656551
:10716C00646564002F746D702F6A656E6B696E7345
:10717C002D4743432D31302D706970656C696E65F8
:10718C002D34385F32303230313132345F31363079
:10719C00363138303633392F7372632F6E65776C16
:1071AC0069622F6E65776C69622F6C6962632F73ED
:1071BC0074646C69622F72616E642E63000000004F
:1071CC003D4B0B00454C0B00AD510B0025520B00F9
:1071DC00B1540B0011560B004D570B003D5A0B00D0
:1071EC00F95F0B0029620B0000000000000000009A
:0471FC00000000008F
:10720000040000001400000003000000474E550079
:107210008D95E2E8ABD65D42D268C98B52FBEE3C5D
:04722000DFF305157E
:047224000000000066
:10722800C8AF0000E45700008CB9000088130000C4
:1072380050C3000010270000F66D0B00036E0B0012
:10724800106E0B001D6E0B002A6E0B0001C00000B3
:10725800C06F0B00C8E4032000000000000000001D
:107268000000000000000000000000000000000016
:107278000000000000000000000000000000000006
:1072880000000000000000000000000000000000F6
:1072980000000000000000000000000000000000E6
:1072A80000000000000000000000000000000000D6
:0C72B8000000000000000000ECE70320D4
:1072C400FFFFFFFF00000102030405060708090A87
:1072D4000B0C0D0E0F101112131415161718191A82
:0872E4001B1C1D1E1F202800C9
:0472EC00785634128A
:04000003B000401CED
:00000001FF
