:02000002B0004C
:1040000000400B00AC920B00000006000C00050203
:084010000401A60F00000000EE
:04401800307F0B00EA
:10401C0009480A49884208B505D0094A824202D0AB
:10402C00121A03F0BBFE0748074A0021121A03F0CC
:10403C00C3FE014808BD00BF44E00320D88D0B002F
:10404C00F0E40320F0E40320EDE7032070B5074E05
:10405C00074C03F037FCA41BA4080025AC4200D18C
:10406C0070BD56F8043B98470135F7E77C8D0B0083
:10407C00A48D0B0000F040BC08B500F0E3FCBDE8DB
:10408C00084003F0D7BB02F035BA02F033BA02F0A5
:10409C0039BA000008B5034A03490C2002F086F92E
:1040AC00FEE700BFE95F0B00447F0B000078B0FA1D
:1040BC0080F0400970470123037070472F2810B51A
:1040CC0004460DD9094A0A490A2002F06FF9094B36
:1040DC0004F01F04D3F81005E04000F0010010BDFF
:1040EC001F28F4D84FF0A043F4E700BFE95F0B00A2
:1040FC00597F0B00000300502DE9F843DFF82C81A9
:10410C00876898F80030484DBFF35B8F13F0010FB0
:10411C00044609D14046FFF7C9FF28B101F076FFEC
:10412C0028604046FFF7C7FFBFB22B683F01DE5D3A
:10413C0098F80030BFF35B8FD9074FEA461909D4C2
:10414C003A48FFF7B3FF28B101F060FF2860374809
:10415C00FFF7B1FF2B683B445E7806F01F0646EA7A
:10416C0009063046FFF7AAFF3046FFF7A7FFE768BE
:10417C0098F80030BFF35B8FDA07C6B209D42B482E
:10418C00FFF794FF28B101F041FF28602748FFF7A3
:10419C0092FFBFB22B683F0113F8079098F80030DC
:1041AC00BFF35B8FDB074FEA491909D41F48FFF7B0
:1041BC007DFF28B101F02AFF28601C48FFF77BFF28
:1041CC002B681F447D7805F01F0545EA0905284634
:1041DC00FFF774FF2846FFF771FF237CC0B203F092
:1041EC0003030EB143F0040308B143F008039A082B
:1041FC00013B22740D2B0BD8DFE803F0070C0F0CDE
:10420C000A120707120A0C0F0C076369013363616A
:10421C00BDE8F8836369013BF9E763690233F6E7AC
:10422C006369023BF3E700BFF4E40320F0E40320EE
:10423C0070B50C1E064615460BDA0A2A09D12D213B
:10424C0002F02CFC6142EAB23046BDE8704002F04C
:10425C003EBC2146F7E710B403685A6899681B689E
:10426C00541001EB6200D20748BF0A595DF8044BA9
:10427C0048BFD3581847012A38B5044602D10B68F9
:10428C00236003E0022A03D0032A0DD0002038BD9E
:10429C000C200D68FFF7F7FE03460028F0D095E8D8
:1042AC00070083E80700EBE700680028EED00C213C
:1042BC00FFF7EDFEEAE70000F0B58DB002AD85E842
:1042CC000600064695E8030005AC84E805001F4689
:1042DC000C2000230A93FFF7D6FE024620B194E887
:1042EC00030082E8030097600B4B0B930B4B0A9374
:1042FC009DF85030089200939DF848209DF94C3061
:10430C0008A9304602F020FA0A9B1BB108A9032227
:10431C00084698470DB0F0BD63420B0083420B007A
:10432C000EB403B503AB002153F8042B019302F038
:10433C00ECFB02B05DF804EB03B0704738B5846950
:10434C000A4B036005467CB16368013B63605BB953
:10435C00236820469B689847A368013BA3601BB960
:10436C0023682046DB689847284638BD188B0B001D
:10437C0010B50446FFF7E2FF20461C21FFF787FE2D
:10438C00204610BD2DE9F04F0F460446164689B065
:10439C000221384603F006FB0221304603F002FBF3
:1043AC00DFF858B1E6600023C4E90137236063618C
:1043BC004FF4FA6001F012FED4F808A09BF800301C
:1043CC004D4DBFF35B8F13F0010F09D15846FFF72A
:1043DC006DFE28B101F01AFE28605846FFF76BFEFF
:1043EC001FFA8AFA2B684FEA0A1A13F80A809BF80C
:1043FC000030BFF35B8FD9074FEA481909D43F4807
:10440C00FFF754FE28B101F001FE28603B48FFF78E
:10441C0052FE2B68534493F8018008F01F0848EAB9
:10442C0009084046FFF74AFE4046FFF747FED4F81E
:10443C000CA09BF80030BFF35B8FB0F1000818BFE5
:10444C004FF00108DA0709D42C48FFF72FFE28B1EA
:10445C0001F0DCFD28602948FFF72DFE1FFA8AFACF
:10446C002B684FEA0A1A13F80A909BF80030BFF336
:10447C005B8FDB074FEA491909D42048FFF716FE7A
:10448C0028B101F0C3FD28601C48FFF714FE2B680F
:10449C009A449AF8015005F01F0545EA090528468B
:1044AC00FFF70CFE2846FFF709FE08B148F002089A
:1044BC00DFF84C9084F8108000254FF0FF3823462D
:1044CC002A4649463846CDE900580295CDF8109059
:1044DC000595FFF7F1FECDE90695CDE9018500952F
:1044EC0008AA304612E906002346FFF7E5FE2046EF
:1044FC0009B0BDE8F08F00BFF4E40320F0E4032022
:10450C0005410B002DE9F0418CB005460F4668467D
:10451C007749DDF8488014461E4602F062FCDFF84D
:10452C0028E27449DEF800307348744ADFF81CC284
:10453C00AB4219D10B68BB4216D10368A34213D10D
:10454C001368B34210D1DCF8003043450CD103F0B2
:10455C009FF86B49FFF7E4FE0024684602F0F6FB77
:10456C0020460CB0BDE8F081CEF800500F6004601E
:10457C001660CCF80080002F00F0B58061496846C9
:10458C0002F05DFC694608A802F04EFC0A22414686
:10459C0004A802F066FC04A908A802F0AAFC5A4977
:1045AC0002F0B3FC0146684602F02FFC04A802F0AE
:1045BC00CDFB08A802F0CAFB694608A802F034FC3F
:1045CC000A22314604A802F04CFC04A908A802F007
:1045DC0090FC4E4902F099FC0146684602F015FC2D
:1045EC0004A802F0B3FB08A802F0B0FB694608A8C7
:1045FC0002F01AFC0A22214604A802F032FC04A99B
:10460C0008A802F076FC424902F07FFC014668469D
:10461C0002F0FBFB04A802F099FB08A802F096FB41
:10462C003C493D480023502202F04EFD0446002830
:10463C0093D003F02DF8394902F03FFA03F028F833
:10464C00009902F03AFA3649334802F023FA354918
:10465C00314802F01FFA34492F4802F01BFA0A22A3
:10466C002D482946FFF7E4FD30492B4802F025FA86
:10467C002F49294802F021FA2E49274802F00AFA5C
:10468C002449254802F019FA2B49234802F002FA72
:10469C000A220299204802F01AFA1F4802F001FA85
:1046AC0026491D4802F009FA1B4802F0FAF9009954
:1046BC00194802F002FA02F0EBFF214902F0FDF971
:1046CC0002F0E6FF1449044608A802F02BFB0899F7
:1046DC00204602F0F2F908A802F038FB0E4802F06E
:1046EC00A9FE012439E71749684602F0A8FB97E7B1
:1046FC008F830B0064E503206CE503205CE503204D
:10470C007D7F0B00997F0B00AB7F0B00B37F0B0001
:10471C00C67F0B0086840B00F8E40320C87F0B00D7
:10472C00DF7F0B005D840B00E97F0B00F27F0B0039
:10473C001B820B0002800B0009800B001A800B00FF
:10474C0041800B00BB7F0B0060E5032068E5032074
:10475C001FB525490446684602F043FB02F098FF5A
:10476C0022462249FFF7DCFD2149684602F0A3FBF3
:10477C00204A2149128851F824102048002302F0C5
:10478C00A3FC28B31E491D4802F097F91D491B488C
:10479C0002F093F91C49194802F08FF91B4917488C
:1047AC0002F08BF91A49154802F074F90299134872
:1047BC000A2202F08CF9114802F073F90F4802F04A
:1047CC0070F900990D4802F065F90C4802F069F98E
:1047DC000A4802F0F7FC10B1084802F02BFE6846BC
:1047EC0002F0B4FA04B010BD8F830B004A800B00AA
:1047FC0058800B0070E003205CE0032040E50320B0
:10480C0084810B00AC810B00D2810B000F820B005A
:10481C0009800B001FB525490446684602F0E1FAF1
:10482C0002F036FF22462249FFF77AFD21496846FD
:10483C0002F041FB204A2149128851F824102048EB
:10484C00002302F041FC28B31E491D4802F035F943
:10485C001D491B4802F031F91C49194802F02DF989
:10486C001B49174802F029F91A49154802F012F9A8
:10487C00029913480A2202F02AF9114802F011F9A0
:10488C000F4802F00EF900990D4802F003F90C489C
:10489C0002F007F90A4802F095FC10B1084802F042
:1048AC00C9FD684602F052FA04B010BD8F830B00AC
:1048BC0026820B0035820B0070E003205CE00320A5
:1048CC0040E5032084810B00AC810B00D2810B00EE
:1048DC000F820B0009800B0010B50446008803F012
:1048EC008BF86268031E18BF01236360934214BFE8
:1048FC001846002010BD0000F0B53C2297B00221F4
:10490C003748384C384F364D384E01F005F834489E
:10491C0000F036FF0221324800F045FD344801F02A
:10492C00F0F8334801F026F931480A2101F011FB67
:10493C000121122003F036F80121082003F032F88F
:10494C0003210C2003F02EF802F0A2FE4FF41651B6
:10495C0002F092FE00231A461946606801F082FDAF
:10496C003822002108A803F027FA4C230393214B8B
:10497C0004930A220023CDE90523194603AA606893
:10498C00079301F08FFD002360681A46194601F069
:10499C0049FD00226068114601F04CFDA0B102F007
:1049AC0077FE3946FFF7BCFC012300931E231A4601
:1049BC0028463C2100F074FB31462846FFF7B0FC3A
:1049CC00284600F039FFE4E74FF47A7001F0DEFD81
:1049DC0002F05EFE0849FFF7A3FC17B0F0BD00BF64
:1049EC00ACE5032018E703206C830B006E830B00EF
:1049FC0010E6032061830B008D830B0003460846F1
:104A0C000BB1FFF7A5BEFFF705BF0000F8B50B4CC7
:104A1C000B4E20600D4617462168A94208DC3A4629
:104A2C0089B2304601F052FA236801332360F3E770
:104A3C00BDE8F840024801F09DB800BFE8E503204E
:104A4C0010E6032000222DE9F3411146122002F05A
:104A5C0059FDAA48AA4DFFF73FFF18B12B7883F0F8
:104A6C0001032B702B78A74C4BB326783EBBA64882
:104A7C0000F086FEA448022100F08BFCA248012124
:104A8C0000F08CFC3246A048314600F07FFC9F4978
:104A9C009D48FFF745FC9C4800F0CEFE9C4801F079
:104AAC007FFA06216FF07F423046FFF7AFFF984840
:104ABC0001F060F802F0ECFD9649FFF731FC9648E6
:104ACC00FFF70AFF18B1237883F0010323702B78CA
:104ADC00002B7AD02378002B00F0BC808A4800F0A1
:104AEC004FFE14228848002100F050FC8B49864868
:104AFC00FFF716FC844800F09FFE02F0C9FD8849C0
:104B0C00FFF70EFC824801F04BFA6FF07F420C214C
:104B1C000020FFF77BFF7E4801F02CF88148FFF75F
:104B2C00DBFE814B18B11A7882F001021A701878EA
:104B3C000121FFF763FF7D48FFF7CEFE7C4B18B1D8
:104B4C001A7882F001021A707A4D18787A4C022188
:104B5C00FFF754FF01F02AFE6E6901F029FE5E2E6C
:104B6C00266040F39C8001F021FE5F266E6101F00F
:104B7C001FFE2660FF230093002320686F4F5F22E7
:104B8C00194601F0F7FC38606D48FFF7A5FE18B127
:104B9C006C4A1368013313606B486C4DFFF79CFE35
:104BAC0018B12B7883F001032B702B78002B7DD15F
:104BBC0002F06EFD6649FFF7B3FB002300931A4623
:104BCC0019460120FFF79EFC44E02378002B41D1CD
:104BDC0001F014FA5F4F604B604E18603B68C01ACE
:104BEC0041F28833984206DD337883F00103337049
:104BFC0001F004FA386036787EB3594A0C21002053
:104C0C00FFF704FF424800F0B5FF00231A4619468F
:104C1C0000930120FFF776FC3B4800F0B1FD3A48C9
:104C2C00022100F0B6FB0121374800F0B7FB3648F3
:104C3C0000F0A6FD34480A21142200F0A7FB4949D4
:104C4C003148FFF76DFB304800F0F6FD2B78002B58
:104C5C007FF440AF02B0BDE8F0812D4801F0A0F91F
:104C6C002B4800F087FF374B3F491A68072392FB0C
:104C7C00F3F3C3EBC303D21AFF2300932F4B51F86A
:104C8C0022201B6801210846FFF73CFC32463146C6
:104C9C00122002F037FC1C4800F072FDD3E7002E06
:104CAC003FF768AF01F082FD00265FE7DFF89480E4
:104CBC002D4E02F0EDFCD8F800302C49072493FB64
:104CCC00F4F2C2EBC2029B1A012256F82330FFF712
:104CDC0027FBD8F8003093FBF4F4C4EBC4041C1B82
:104CEC00FF23009301213B6856F824200846FFF768
:104CFC0009FC2B78002BADD15AE700BF8CE50320C3
:104D0C000AE603200BE60320ACE5032090830B009E
:104D1C0010E603209B830B0094E50320C0830B005B
:104D2C00D1830B0074E5032008E603207CE5032007
:104D3C0009E60320F0E50320D4E5032070E5032009
:104D4C0084E50320A4E503209CE503200CE6032066
:104D5C00E6830B00ECE50320A8E50320D0E5032057
:104D6C0000A5FF00B0830B0014E50320F4830B00B7
:104D7C0038B53149314802F034F8314A314B1268B8
:104D8C001A60314A314812685A60314A12689A6086
:104D9C00304A1268DA60304A12681A612F4A126877
:104DAC005A612F4A12689A6102F08EFB2D4802F06C
:104DBC008BFB2D4A022313601846002102F0F2FDF2
:104DCC002A4A032414602046002102F0EBFD284AF5
:104DDC0004201060002102F0E5FD264A0520106039
:104DEC00002102F0DFFD244A06201060002102F0B1
:104DFC00D9FD224A0C2515602846002102F0D2FD6F
:104E0C0013211F4800F0A6FC0223294607221D4847
:104E1C0000F09EFE0F221C480E21FFF7B3FA1B4B2D
:104E2C000022C3E90022A2F580329A602046BDE838
:104E3C00384001F0CBBA00BF8F830B00D8E50320BC
:104E4C0030E5032014E5032050E00320F8E40320B0
:104E5C0058E0032048E0032044E003204CE003200A
:104E6C0054E0032040E5032074E503207CE5032097
:104E7C0084E503208CE5032094E503209CE50320C6
:104E8C00ACE5032010E60320F0E5032034E5032015
:104E9C0013B50B4C2178BFF35B8F11F001010BD1D3
:104EAC0020460191FFF702F9019928B1054801F05C
:104EBC0069FE2046FFF7FFF8024802B010BD00BFA4
:104ECC0024E6032028E603202DE9F04F85B01F4689
:104EDC00BDF93880BDF83C30A8EB0209A7EB010AFC
:104EEC00B9F1000FB8BFC9F10009BAF1000FB8BF92
:104EFC00CAF1000AD14583460C46154604DD3A46F4
:104F0C002C4647460D469046BC4205DD2A46454692
:104F1C00904622463C4617463E1BB2B20092A8EB86
:104F2C00050282EAE271A1EBE271C6F3C03202FA29
:104F3C0086F64545B4BF01224FF0FF320191761041
:104F4C000292BC421CDCDBF800200393D145D2F862
:104F5C001080C7BF294622462A4621465846C047DC
:104F6C00019A039BB61AB1B236B2002E05DA029A38
:104F7C001544009A56182DB236B2013424B2E0E72B
:104F8C0005B0BDE8F08F2DE9F347BDF82C8007681C
:104F9C00BDF92890CDF800800446FF6916468A4674
:104FAC001D46B8472368CDF8008009F1FF32324422
:104FBC00DF6951462B46204612B2B8472368CDF81C
:104FCC0000809F6932464B4651462046B8476B1EBF
:104FDC0003EB0A012368CDF828809D6932464B46C5
:104FEC0009B22046AC4602B0BDE8F047604737B581
:104FFC00013B13440468BDF8185001951BB2009393
:10500C0064690B46A04703B030BD37B5BDF81850E6
:10501C000468CDE90025013B0B4464691BB2A04731
:10502C0003B030BD2DE9F347BDF92890BDF82C80B5
:10503C00054692460C46CE18B4420BDA2B68CDF8D6
:10504C0000809F6921464B46524628460134B8479A
:10505C0024B2F1E702B0BDE8F08713B50268019104
:10506C00B0F90E100091546AB0F90C3000221146C0
:10507C00A04702B010BD704730B54281C2814FF0DD
:10508C00FF320024054D426101224460056001811C
:10509C00818104610283827630BD00BF98890B0048
:1050AC002DE9F04F9DB29146C5F1010287B01F4624
:1050BC0013B2C5EBC5325200019313B204931FFA1D
:1050CC0089F3BDF840B00093036815FA89F20446E1
:1050DC00D3F8108012B25B460E46C047009B216885
:1050EC005A1BD1F810805B46314612B22046C0479D
:1050FC00226815FA86F11FFA86F85B46166909B222
:10510C004A462046B0472268A8EB050116695B4663
:10511C004A4609B22046B04700230393039BBB4287
:10512C0076DA019B002B0ADB049A023213B2049349
:10513C00019B13FA82F2013F13B23FB20193039A1F
:10514C002168013213B20393019B0D6996B203EBF4
:10515C004602013213B20193009B08EB060A13FAC4
:10516C0087F20FFA8AFA12B25B4602925146204637
:10517C00A847A8EB06092168029A0D690FFA89F96C
:10518C005B4649462046A847BBB202932168009B68
:10519C00029A9A1A0B6912B21D4605925B46514649
:1051AC002046A8472168059AD1F810A05B464946CD
:1051BC002046D047029B216808EB0309009BD1F8DD
:1051CC0010A09A190FFA89F912B25B46059249465A
:1051DC002046D047029B2168059AD1F810A0A8EB75
:1051EC0003052DB25B4629462046D047009B21681B
:1051FC009A1B12B20E6902925B4649462046B04792
:10520C002168029A0E695B4629462046B04785E71D
:10521C0007B0BDE8F08F00002DE9F04F2DED028BAB
:10522C008DB007460491BDF860100591BDF864106F
:10523C000691B0F90C1004989DF86850814252DD2B
:10524C00B7F90E1091424EDD062111FB0504002C1E
:10525C0049DD02EBC504002C45DD03EB83030B9306
:10526C0093B2079308339BB2089100240993052C41
:10527C001CBF2C4B0B9A079E16BF1B1900239B5C63
:10528C000393049AABB20A9304FB05F313FA82F36B
:10529C001BB204EB020A08EE103AB0460FFA85F97D
:1052AC000FFA8AFA039BDB072FD5012D3B681FD120
:1052BC00D3F810B0059B32B251463846D847039B01
:1052CC005B0803930A9B01369844099BB6B2B34220
:1052DC001FFA88F8E6D1089B013B013413F0FF0359
:1052EC0064B20893C3D10DB0BDEC028BBDE8F08F56
:1052FC00059ACDE9009218EE101AD3F824B00FFAE3
:10530C0088F24B463846D847D9E7DDE90523934266
:10531C00D5D0012D3B6803D1D3F810B0069BCAE75A
:10532C00069AE6E792840B0030B50A2985B004464C
:10533C0007D1027E638A03EBC203638200232382BC
:10534C0021E00D291FD0037E0293C38A0193838A27
:10535C000093B0F912200B46B0F91010FFF75CFF68
:10536C00207E238A00EB400103EB4103A17E1BB29C
:10537C000246238239B1B4F90C106FF0050505FB18
:10538C0000118B42D6DC012005B030BD0182428277
:10539C007047012938BF012101767047C182818293
:1053AC007047407E704701F00303B0F90A20437642
:1053BC00C907B0F9083059BF8381C2818281C3818A
:1053CC007047B0F90C007047B0F90E007047000040
:1053DC00F0B5457EBDF81440022D69D0032D00F0C8
:1053EC009980012D6CD10589D2432A4412B2002A2E
:1053FC005DDBB0F90850954259DD0029BEBF5B1842
:10540C001BB20021B0F90A00CD188542C4BF431A63
:10541C001BB2002B4BDDC1F3C400DFF820C102EB43
:10542C00C01211F00701DBB20CEB02001AD0C1F173
:10543C000805404EEDB2AB42775D3FBFA5EB030EC6
:10544C00FF2646FA0EF637401CF80260012C0CBF02
:10545C003E43BE43AB420CF8026028D308390B44E0
:10546C00DBB28030072B19D9012C4FF0FF3518BF58
:10547C000025EDB200F180011A46083AD2B2072A93
:10548C0001F8805C01F18001F7D8A3F10802C2F3A6
:10549C00C402013200EBC21003F007033BB1264AF1
:1054AC00D25C0378012C0CBF134393430370F0BD03
:1054BC004589D2432A44CD180189491B12B209B23D
:1054CC00002AF4DBB0F90A509542F0DD0029BEBF8A
:1054DC005B181BB20021B0F90870CE18BE42C4BFD5
:1054EC006B1A1BB2002BE2DDD010802510FB0511CE
:1054FC001248014402F0070001228240012CD2B272
:10550C000B440CD18B42D2D011F8010B104301F893
:10551C00010CF7E7CD184189491B09B267E7D24363
:10552C00D2B28B42C3D011F8010B104001F8010C20
:10553C00F7E700BF7CE0032074E0032084E0032045
:10554C00F0B5457EBDF81440022D34D0032D00F08B
:10555C009B80012D37D1D5180289521B12B200291C
:10556C00C0F29180B0F90A508D4240F38C80002A31
:10557C00BEBF9B181BB20022B0F90870D618BE42F1
:10558C00C4BFAB1A1BB2002B7DDDC810802510FBED
:10559C0005224548024401F0070001218140012CFD
:1055AC00C9B2134475D19A426DD012F8010B08435D
:1055BC0002F8010CF7E70589C9432944D51842893B
:1055CC00521B09B212B200295DDBB0F908508D42B2
:1055DC0059DD002ABEBF9B181BB20022B0F90A008D
:1055EC00D5188542C4BF831A1BB2002B4BDDC2F306
:1055FC00C400DFF8B4C001EBC01112F00702DBB23B
:10560C000CEB01001AD0C2F10805284EEDB2AB42EA
:10561C00775D3FBFA5EB030EFF2646FA0EF637402B
:10562C001CF80160012C0CBF3E43BE43AB420CF88E
:10563C00016028D3083A1344DBB28030072B19D908
:10564C00012C4FF0FF3518BF0025EDB200F18001A1
:10565C001A46083AD2B2072A01F8805C01F180019F
:10566C00F7D8A3F10802C2F3C402013200EBC21056
:10567C0003F007033BB10E4AD25C0378012C0CBF3C
:10568C00134393430370F0BD4589C943294409B2C0
:10569C0065E7C943C9B29A42F5D012F8010B08402C
:1056AC0002F8010CF7E700BF84E003207CE0032044
:1056BC0074E0032070470000F8B50D1E0646144632
:1056CC001F462DDBFFF77DFEA84229DD002C27DBD2
:1056DC003046FFF779FEA04222DD3046FFF761FE2F
:1056EC0002281ED0032825D0012804D13389E24397
:1056FC001A442C4615B2002C2246B8BFE21DD2101B
:10570C00802112FB01550E49012204F007044B576E
:10571C0002FA04F464B297420CBF2343A3434B55E3
:10572C00F8BD318972890139E4434D1B14442DB203
:10573C0024B2E0E77389013B5B1B25461CB2DAE718
:10574C0084E0032010B524210446FEF7A0FC20467B
:10575C0010BD000038B5402204460D468021FFF7ED
:10576C008BFC064B2360FF2384F8213063774FF6C4
:10577C00FF73E38384F82050204638BDD0890B009A
:10578C0002484FF48062002102F016BB84E0032033
:10579C0007B590F8223043B10191FFF779FB0199DD
:1057AC0003B05DF804EB01F0A1BA0B46817F407F9A
:1057BC00012203B05DF804EB02F031B938B590F971
:1057CC001D30013304460D461DD090F921000121F6
:1057DC0080B202F0F8F894F91F00002180B202F0B8
:1057EC00F2F894F92100002180B202F0ECF829467D
:1057FC002046FFF7CDFF94F921000121BDE8384088
:10580C0080B202F0E0B802F047F994F91B1000F0F6
:10581C0063FF02F041F9036800219B68984702F08E
:10582C003BF9036829469B68984702F035F9BDE8B7
:10583C00384000F058BF0000F8B521210446FFF7AE
:10584C00BDFF00212046FFF7B9FF7F212046FFF75F
:10585C00B5FF22212046FFF7B1FF00212046FFF7BC
:10586C00ADFF07212046FFF7A9FF94F91D30294F02
:10587C0001332AD094F92100012180B202F0A3F85F
:10588C0094F91F00012180B202F09DF894F92100D7
:10589C00002180B202F097F8012000F09FFB4FF43A
:1058AC008065013D17F8011B2046ADB2FFF770FF74
:1058BC00002DF6D1012000F091FB94F9210001217B
:1058CC00BDE8F84080B202F07EB8002502F0E4F8A2
:1058DC0094F91B1000F000FF02F0DEF80368402181
:1058EC009B68984705F11006B6B202F0D5F803682C
:1058FC00795D9B6898476B1C9DB2AE42F5D102F066
:10590C00CBF800F0F0FEB6F5806F00D1F8BD35464F
:10591C00DCE700BF84E0032038B590F91D30017737
:10592C00013304460D46C27600F0C98090F91F0081
:10593C00012180B202F036F894F92100012180B2E5
:10594C0002F030F894F82230002B00F0A68094F985
:10595C002100012180B202F036F8FFF799FA0121FB
:10596C0001F02EF9FFF794FA102101F099F9FFF7E5
:10597C008FFA002101F038F9FFF78AFA01F00CF9DF
:10598C0094F92000012180B202F00CF894F9200067
:10599C00012180B202F017F8012000F0F7FD94F914
:1059AC002000002180B202F00EF80A2000F0EEFD7B
:1059BC0094F92000012180B202F005F82046AE21B6
:1059CC00FFF7FCFE2046D521FFF7F8FE204680218C
:1059DC00FFF7F4FE2046A821FFF7F0FE20463F21FA
:1059EC00FFF7ECFE2046D321FFF7E8FE204600210E
:1059FC00FFF7E4FE20464021FFF7E0FE8D21204614
:105A0C00FFF7DCFE012D0CBF102114212046FFF7FF
:105A1C00D5FE20462021FFF7D1FE20460021FFF7BE
:105A2C00CDFE2046A121FFF7C9FE2046C821FFF775
:105A3C00C5FE2046DA21FFF7C1FE20461221FFF7F2
:105A4C00BDFE81212046FFF7B9FE012D0CBF9F2121
:105A5C00CF212046FFF7B2FED9212046FFF7AEFE3C
:105A6C00012D0CBF2221F1212046FFF7A7FE204675
:105A7C00DB21FFF7A3FE20464021FFF79FFE2046C7
:105A8C00A421FFF79BFE2046A621FFF797FE204698
:105A9C00AF21BDE83840FFF791BE94F91D000121FC
:105AAC0080B201F07FFF94F91E00012180B201F059
:105ABC0079FF94F82230002B3FF462AF47E701F0F6
:105ACC00EBFF00F0FFFD5BE738B50446C0680D4600
:105ADC0008B100F017FDA379062B0CBF042003209E
:105AEC0010FB05F080B2A08000F004FDE06028B14E
:105AFC00A288002102F060F9658038BDA08060802A
:105B0C00FBE710B504460121C07901F04BFFE079A9
:105B1C00002101F058FF0123237010BD37B5037825
:105B2C0005460C461BB1C079002101F03BFF2B78D8
:105B3C00EC715BB1A0B20121019001F033FF01982F
:105B4C00002103B0BDE8304001F03DBF03B030BDD3
:105B5C0070B50025044616468371C0E903550570DF
:105B6C000572FFF7B1FF20463146FFF7D7FF2046FD
:105B7C0070BD0000C368002B00F0A4812DE9F04F2C
:105B8C008379023BDBB2042B9CBFBF4A52F8234003
:105B9C0085B0054688BF322400F028FA2B69C01A5C
:105BAC00A042F9D3B94CAE88D4F800351BB9D4F85F
:105BBC006035002B7EDBB64CD4F8003523B9D4F815
:105BCC006035002BC0F26E81B24CD4F80035002B3E
:105BDC0000F04481EB79B04AB04C1268190102EB29
:105BEC000313575CAE495B78D1F8FC2042F080720D
:105BFC00C1F8FC20226803F01F0343EA4713012776
:105C0C003A432260A988D5F80C80D4F804909F40C0
:105C1C00002944D04FF0000E72464FF0A04118F806
:105C2C0001CB0820802663689B1A462BFBD962683F
:105C3C00D1F808351CEA060F43EA0703C1F808350A
:105C4C002FD063689B1A282BFBD9D1F80C3501385F
:105C5C0043EA07034FEA5606C1F80C35E3D1AB888B
:105C6C000EF1010E1FFA8EFE7345D8D84FF4307129
:105C7C0003FB01F163689B1A462BFBD96368A3EB0A
:105C8C0009098945C0F0E4804FF4967000F0A6F93C
:105C9C00A988D5F80C80D4F804900029BAD10A460A
:105CAC00E8E763689B1A112BCFD863689B1A112BFA
:105CBC00F7D9CAE7D4F86435002BBFF67CAFD4F81B
:105CCC006835002BBFF677AFD4F86C35002BBFF6D8
:105CDC0072AF3601331D1846009300F00BFC002800
:105CEC003FF478AFAB88002B00F0ED80EA68013B05
:105CFC0012FA83F702F1FF3E002348F2060248F243
:105D0C000D011EF801CF1CF0800F0CBF93468B4683
:105D1C001CF0400F0CBF16460E461CF0200F0CBF9B
:105D2C009046884603F10109CDF80880019603F1ED
:105D3C0002081FFA89F9019E20F813B01FFA88F89F
:105D4C0020F81960029E20F8186003F103081CF07B
:105D5C00100F1FFA88F80CBF93468B4620F818B02A
:105D6C0003F104081CF0080F1FFA88F80CBF9346C7
:105D7C008B4620F818B003F105081CF0040F1FFA2D
:105D8C0088F80CBF93468B4620F818B003F1080A2C
:105D9C0003F1060807339BB21CF0020F1FFA88F8B8
:105DAC000CBF93468B46CDF80CA01CF0010F20F8CD
:105DBC0018B015BF20F8131020F813201FFA8AF31F
:105DCC00BDF80C3077459CD1591C023389B29BB27B
:105DDC0049005B004FF400474752009AC7522E4BC4
:105DEC0056081F6800221423C4F80425C4F80C2597
:105DFC00C4F80835C4F81425C4F81025C4F82005D7
:105E0C00C4F82465C4F82825C4F82C25EB7907EBD5
:105E1C00031C1B010121FE5C9CF8013003F01F03E5
:105E2C0043EA4613C4F86035C4F80015C4F81021D1
:105E3C00A160D4F81031002BFBD000234FF0FF32BF
:105E4C00C4F81031C4F80035C4F8602500F05AFBD2
:105E5C0000F0CCF8286105B0BDE8F08FD4F86035BF
:105E6C00002BBFF6B7AED4F86435002BBFF6B2AE3C
:105E7C00D4F86835002BBFF6ADAED4F86C35002BDA
:105E8C00BFF6A8AE25E700BF008A0B0000C001409A
:105E9C00001002400020024030E60320001000E019
:105EAC0000ED00E0D4F86435002BBFF68DAED4F8CD
:105EBC006835002BBFF688AED4F86C35002BBFF6D6
:105ECC0083AE06E770470423022183E743888B42A5
:105EDC00F0B52DD9067AC2F30743C2F30724D5B225
:105EEC003EB1734374437543C3F30723C4F30724D0
:105EFC002D0A90F806C0C768BCF1060F0CBF04262B
:105F0C0003264E43ACF1020CB919BCF1060F1DD897
:105F1C00DFE80CF0041C08040F040400BC554B70A3
:105F2C008D7005E0FE2B28BFFE23BB554D708C7089
:105F3C00F0BDBB554C708D70037A120E13B9D2B2F2
:105F4C00CA70F5E75A43C2F30722F9E7BB554C7008
:105F5C00E6E7037A4A1CD2B2934270B51FD0013BDC
:105F6C0013F0FF03C4680CD0FF291FBF110201F10D
:105F7C00FF31B1FBF3F39BB204BF4FF6FF71B1FBE2
:105F8C00F3F325468688291B89B28E4206D92978D7
:105F9C005943C1F3072105F8011BF3E7027270BDE9
:105FAC008288C068002101F007BF000008B500F02E
:105FBC002DF8014B186008BD30E6032008B5024BE4
:105FCC001B685B6C019308BD4802030008B5024BCB
:105FDC001B685B68019308BD1802030008B5024BEF
:105FEC001B68DB68019308BD1802030008B5024B5F
:105FFC001B681B69019308BD1802030008B5024B0E
:10600C001B685B69019308BD1802030008B5024BBD
:10601C001B681B68019308BD2C02030008B5024BDA
:10602C001B685B68019308BD2C02030008B5024B8A
:10603C001B689B68019308BD2C02030008B5024B3A
:10604C001B68DB68019308BD2C02030008B5024BEA
:10605C001B681B69019308BD2C02030008B5024B99
:10606C001B685B69019308BD2C02030008B5024B49
:10607C001B689B69019308BD2C02030008B5024BF9
:10608C001B68DB69019308BD2C02030008B5024BA9
:10609C001B681B6A019308BD2C02030008B5024B58
:1060AC001B685B6A019308BD2C02030008B5024B08
:1060BC001B68DB68019308BD2802030008B5024B7E
:1060CC001B689B69019308BD2802030008B5024BAD
:1060DC001B68DB69019308BD2802030008B5024B5D
:1060EC001B681B6A019308BD2802030008B5024B0C
:1060FC001B685B6A019308BD2802030008B5024BBC
:10610C001B689B6A019308BD2802030008B5024B6B
:10611C001B68DB6A019308BD2802030008B5024B1B
:10612C001B681B6B019308BD2802030008B5024BCA
:10613C001B685B6B019308BD2802030008B5024B7A
:10614C001B681B6C019308BD2802030008B5024BA9
:10615C001B685B69019308BD6C02030008B5024B18
:10616C001B685B69019308BD6402030008B5024B10
:10617C001B681B6A019308BD6402030008B5024B3F
:10618C001B689B6A019308BD6402030008B5024BAF
:10619C001B689B68019308BD6802030008B5024B9D
:1061AC001B68DB68019308BD6802030008B5024B4D
:1061BC001B681B68019308BD2402030008B5024B41
:1061CC001B689B69019308BD3802030008B5024B9C
:1061DC001B68DB69019308BD3802030008B5024B4C
:1061EC001B681B6A019308BD3802030008B5024BFB
:1061FC001B689B6A019308BD3802030008B5024B6B
:10620C001B681B6B019308BD3802030008B5024BD9
:10621C001B689B6B019308BD3802030008B5024B49
:10622C001B681B68019308BD3002030008B5024BC4
:10623C001B689B68019308BD3002030008B5024B34
:10624C001B68DB68019308BD3002030008B5024BE4
:10625C001B681B69019308BD3002030008B5024B93
:10626C001B685B69019308BD3002030008B5024B43
:10627C001B68DB69019308BD3002030008B5024BB3
:10628C001B681B6A019308BD3002030008B5024B62
:10629C001B685B6A019308BD3002030008B5024B12
:1062AC001B681B6C019308BD3002030008B5024B40
:1062BC001B685B6C019308BD3002030008B5024BF0
:1062CC001B68DB68019308BD3C02030008B5024B58
:1062DC001B681B69019308BD3C02030008B5024B07
:1062EC001B685B69019308BD3C02030008B5024BB7
:1062FC001B689B69019308BD3C02030008B5024B67
:10630C001B68DB69019308BD3C02030008B5024B16
:10631C001B681B6A019308BD3C02030008B5024BC5
:10632C001B689B6A019308BD3C02030008B5024B35
:10633C001B681B6C019308BD3C02030008B5024BA3
:10634C001B681B68019308BD4C02030008B5024B87
:10635C001B685B68019308BD4C02030008B5024B37
:10636C001B681B69019308BD4C02030008B5024B66
:10637C001B685B69019308BD4C02030008B5024B16
:10638C001B689B69019308BD4C02030008B5024BC6
:10639C001B68DB69019308BD4C02030008B5024B76
:1063AC001B681B6A019308BD4C02030008B5024B25
:1063BC001B685B6B019308BD6002030008B5024BC0
:1063CC001B681B6D019308BD6002030008B5024BEE
:1063DC001B685B68019308BD2002030008B5024BE3
:1063EC001B685B69019308BD2002030008B5034BD1
:1063FC001B68D3F88830019308BD0000200203000D
:10640C0008B5034B1B68D3F89430019308BD00000A
:10641C002002030008B5024B1B68DB6B019308BD1F
:10642C004402030008B5024B1B685B68019308BD6E
:10643C004002030008B5024B1B689B68019308BD22
:10644C004002030008B5024B1B68DB68019308BDD2
:10645C004002030008B5024B1B681B69019308BD81
:10646C004002030008B5024B1B685B69019308BD31
:10647C004002030008B5024B1B689B69019308BDE1
:10648C004002030008B5024B1B68DB69019308BD91
:10649C004002030008B5024B1B681B6A019308BD40
:1064AC004002030008B5024B1B689B6A019308BDB0
:1064BC004002030008B5024B1B681B6B019308BD1F
:1064CC004002030008B5024B1B685B6B019308BDCF
:1064DC004002030008B5024B1B681B6C019308BDFE
:1064EC004002030008B5024B1B685B6C019308BDAE
:1064FC004002030008B5024B1B681B68019308BDE2
:10650C001C02030008B5024B1B685B68019308BDB5
:10651C001C02030008B5024B1B689B68019308BD65
:10652C001C02030008B5024B1B685B6A019308BD93
:10653C001C02030008B5024B1B68DB6A019308BD03
:10654C001C02030008B5024B1B68DB6B019308BDF2
:10655C001C02030008B5024B1B681B6C019308BDA1
:10656C001C02030008B5024B1B685B6C019308BD51
:10657C001C0203008A4210B507D0441A0298C01AB4
:10658C004443501A94FBF0F0184410BD0021FFF75F
:10659C0025BF10B58368044613B103220146984702
:1065AC00204610BD024800230360FFF707BD00BF63
:1065BC0034E60320002240681146FFF76BBF00222F
:1065CC0040681146FFF77EBF40680022FFF772BF9C
:1065DC004068002281F00101FFF754BF002340689E
:1065EC001A461946FFF746BF002340681A4619465B
:1065FC00FFF738BF002240681146FFF72BBF00227F
:10660C0040681146FFF716BF406800220221FFF7D1
:10661C0019BF002340681A46FFF704BF024B032240
:10662C005A60024A1A60704738E60320248A0B002D
:10663C007047F8B5064615460C468F18BC4206D076
:10664C00336814F8011B9B6830469847F6E72846D8
:10665C00F8BD007C0022FFF741BD007C0021FFF754
:10666C0045BD007C0021FFF749BD007C0021FFF7F0
:10667C004DBD007C0021FFF751BD10B5142104461F
:10668C00FDF705FD204610BD38B5044615464FF400
:10669C007A730022C4E90123094B21740846236054
:1066AC002946FFF74BFDBF3008D16B69DB0705D5D9
:1066BC006868FFF727FFE868FFF724FF204638BD1E
:1066CC00608A0B000023007C1A461946FFF7EEBCCB
:1066DC00007C0022FFF7F2BCC9B2FFF7F9BF007CC7
:1066EC000022FFF7F3BC0121FFF7F9BF826810B558
:1066FC000AB901F037FABDE81040C368184700002A
:10670C00F8B5104F57F8204006460D4634B12046D8
:10671C00FFF73FFF10212046FDF7B9FC1020FDF7D5
:10672C00B2FC044650B100238360AB6833B1022243
:10673C0029469847EB68E360AB68A36047F82640AE
:10674C002046F8BD40E60320F0B587B0054603911E
:10675C0017461E46FFF792FC03992846FFF7D0FF19
:10676C000446E8B100218E424FF00403ADF8151039
:10677C008DF817108DF81430A2BF05A99DF8303094
:10678C008DF81630009102460749A8BF8DF81560A8
:10679C003B462846FFF76AFC10B1002007B0F0BD5D
:1067AC00201E18BF0120F9E7F9660B00FFF776BC35
:1067BC00FFF76CBC704710B518210446FDF767FC59
:1067CC00204610BDF0B5037D062B8DB00E4600F1B2
:1067DC0004074FF0000412D000F1080515F8011D54
:1067EC000A22304600F073F9AF42044419D0002C51
:1067FC00F4D02E21304600F051F90444EEE72F235B
:10680C006A4639460A208DF80040FFF7A7FC684617
:10681C0001F01AFB33680246DB686946304698473C
:10682C00044620460DB0F0BD10B5054B04461122B0
:10683C0040F8043B002101F0BFFA204610BD00BF18
:10684C00888A0B000346074A10B543F8042B01F164
:10685C00100251F8044B43F8044B9142F9D10A78D9
:10686C001A7010BD888A0B00037D042B04D140687C
:10687C00003818BF01207047062B07D143683BB97D
:10688C0083682BB9C3681BB90069F1E70020704716
:10689C000120704710B59DF8084044EA032343EAF1
:1068AC00024242EA016104234160037510BD0000FD
:1068BC0007B5064B0360CB7800938B784A78097840
:1068CC00FFF7E8FF03B05DF804FB00BF888A0B00FC
:1068DC00014B024A1A607047D0E60320948A0B00E1
:1068EC00002340681A46FFF79DBD40680022022134
:1068FC00FFF7A8BD002240681146FFF79BBD0022A0
:10690C0040681146FFF7A6BD002340681A46194699
:10691C00FFF7A8BD002340681A461946FFF7AABD29
:10692C0040680021FFF7D6BD40680021FFF7DABDB3
:10693C004068002281F00101FFF7A4BD40680022ED
:10694C00FFF7B8BD002240681146FFF7BBBD00221F
:10695C0040681146FFF79EBD2DE9F04395B01446F3
:10696C000D460746FFF760FF00211C220DA8009181
:10697C0001F022FA40230C9320466B460CAA00210E
:10698C00FFF70CFC044600284BD102460121686835
:10699C00FFF760FD0221804622466868FFF75AFD2A
:1069AC00009E81462146002E3BD0002939D17368C8
:1069BC00022B03D00A2B11D0F669F4E7B8F1000FC3
:1069CC00FAD0716906A8043107ADFFF771FF0FCD3E
:1069DC003C1D0FC42B6823704146EDE7B9F1000F45
:1069EC00EAD07469102201A801F0E6F906238DF8AB
:1069FC00143001AD04F108031834186859682A469C
:106A0C0003C20833A3421546F7D101A906A807AD66
:106A1C00FFF718FF0FCD3C1D0FC42B6823704946A0
:106A2C00CAE70098FFF7B2FB384615B0BDE8F08313
:106A3C00024B034A1A6000225A607047D4E60320C6
:106A4C00A08A0B00F8B506460D468F180024BD42EF
:106A5C000CD0336815F8011B9B6830469847031E11
:106A6C0001DB1C44F3E7002C08BF1C462046F8BD94
:106A7C0013B50446084659B1019101F0E5F92368B4
:106A8C000199DB680246204602B0BDE81040184769
:106A9C0002B010BD08B5FFF7EBFF08BD03689B689B
:106AAC00184738B50D210546FFF7F8FF0A210446B3
:106ABC002846FFF7F3FF204438BD38B50546FFF7ED
:106ACC00D7FF04462846FFF7ECFF204438BD30B50D
:106ADC008BB00023012A8DF8243098BF0A2209AC10
:106AEC000D46B1FBF2F101FB125303F0FF03092B2E
:106AFC0094BF30333733DBB2AA4204F8013DEFD9EF
:106B0C002146FFF7B5FF0BB030BD2DE9F04186B043
:106B1C0000AF05460E46381D142114463B60FFF7A6
:106B2C0001FD13280ED8391D2846FFF7A1FF044696
:106B3C001EB12846FFF7B5FF044420461837BD4662
:106B4C00BDE8F08100F1080323F00703E846ADEB44
:106B5C00030D2246411C3B686846FFF7E3FC69467F
:106B6C002846FFF785FF0446C546E1E7014B0022A6
:106B7C009A607047DCE603200021FFF797BB0021E9
:106B8C00FFF78CBB10B5044608462170FFF76EFB6F
:106B9C0000236360204610BD13B504460078FFF750
:106BAC00EEFF58B9207801904FF6FF71FFF736FBD6
:106BBC00019802B0BDE81040FFF7DEBF02B010BD77
:106BCC0013B5044600780191FFF7D9FF019948B934
:106BDC0020780190FFF72AFB019802B0BDE8104025
:106BEC00FFF7CABF02B010BD13B50446007801917F
:106BFC00FFF7C5FF019948B920780190FFF71EFBFC
:106C0C00019802B0BDE81040FFF7B6BF02B010BD4E
:106C1C00400830B51860002418688842E5B206D9DF
:106C2C000134082C02D040081860F5E70725024B08
:106C3C005B5D137030BD00BFD48A0B002DE9F041B1
:106C4C0088B000230446007802930E461746FFF7DF
:106C5C0096FF054600BB94F800800146142203A859
:106C6C0001F0AAF80B232A4603A94046ADF80C30D4
:106C7C00FFF70CFB04988DF8075002AB0DF10702DF
:106C8C0007FB06F1FFF7C4FF20789DF80710FFF70C
:106C9C00DDFA2078FFF770FF029808B0BDE8F081AC
:106CAC0038B5044600780D46FFF769FF0346D0B9A6
:106CBC00616899B10C4A12F8010B854202D001337C
:106CCC00082BF8D10133DBB20122D9402046FFF763
:106CDC00B5FF2078BDE83840FFF74EBF2078294635
:106CEC00FFF7B4FAF5E738BDD48A0B0008B5007885
:106CFC00FFF7B4FAC0B208BD10B50446FFF77EF931
:106D0C00E060236820465B699847002808DAFFF7A3
:106D1C0075F9E368C01AA3689842F2D34FF0FF30BC
:106D2C0010BD000038B50D460749044600F059F86F
:106D3C002846FFF7E1FF002804DBC1B2204600F033
:106D4C00CBF8F5E7204638BD8F830B0010B5044611
:106D5C000068FFF7D7FB204610BD10B5044600684D
:106D6C0008B1FFF7CFFB0023C4E90133236010BD4A
:106D7C0038B504460D4600680131FFF7CBFB10B166
:106D8C00C4E90005012038BD10B50368044623B1E1
:106D9C0043688B4201D3012010BD2046FFF7E8FF6A
:106DAC000028F9D0A368002BF5D122681370F2E704
:106DBC0037B50D46114601920446FFF7E5FF019ADF
:106DCC0028B92046FFF7C9FF204603B030BDA260AA
:106DDC002946206800F0E2FF2268A3680021D15404
:106DEC00F2E7002313B5C0E9003304468360037354
:106DFC0041B10846019101F027F80199024620465D
:106E0C00FFF7D6FF204602B010BD884210B50446ED
:106E1C0005D00B682BB18A681946FFF7C9FF2046CD
:106E2C0010BDFFF79AFFFAE710B500230446C0E93E
:106E3C00003383600373FFF7E8FF204610BD13B5E2
:106E4C00044659B10846019100F0FEFF0199024633
:106E5C002046FFF7ADFF204602B010BDFFF77DFFC7
:106E6C00F9E710B504468AB00023C4E90033A360E7
:106E7C002373084601A900F0A5FC01A92046FFF7E1
:106E8C00DEFF20460AB010BD70B505460E4609B9A6
:106E9C00002070BD6AB1846814442146FFF774FF6A
:106EAC000028F5D02868AB683146184400F0C4FFC0
:106EBC00AC600120EDE713B50446084651B10191D1
:106ECC0000F0C2FF01990246204602B0BDE8104016
:106EDC00FFF7DABF02B010BD07B500238DF8041020
:106EEC00012201A98DF80530FFF7CEFF03B05DF844
:106EFC0004FB10B58A6809680446FFF7C5FF10B992
:106F0C002046FFF72AFF204610BD13B5044629B9C9
:106F1C002046FFF722FF204602B010BD0846019123
:106F2C0000F092FF019902462046FFF7ADFF0028C2
:106F3C00EED0F0E7054B02221A60054B054A9A6029
:106F4C000020C3E90000FFF741BA00BFF8E60320B8
:106F5C00ECE603200000FFFF13B503688DF8071063
:106F6C00DC6B01224FF0FF330DF10701A04702B09B
:106F7C0010BD10B40368DC6B4FF0FF33A4465DF812
:106F8C00044B604713B5134602688DF80710D46B99
:106F9C000DF107010122A04702B010BD10B54369E5
:106FAC00B3F88620B3F884309A42044608D063695B
:106FBC00B3F88420511CA3F884101344187910BD25
:106FCC0003681B6998470028F1D14FF0FF30F6E7B2
:106FDC00704743691868C043C00F70477047000082
:106FEC00064B994210B500F10C0405D0084600F090
:106FFC00BDFD002808BF0024204610BD148A0B00DC
:10700C0010B5AC210446FDF742F8204610BDAC216A
:10701C00FDF73DB82DE9F0414FF0000886B01C4655
:10702C00C0F8048005460E4617464146102202A8B9
:10703C0000F0C2FE631C09D04FF47A73B4FBF3F278
:10704C0003FB1244CDE902285C43049468691023C5
:10705C000093006802AB41F2050240F6FF71FFF7A6
:10706C00ADF8002807DAFFF76DFA03686B600020B3
:10707C0006B0BDE8F0816869002300683A463146E5
:10708C00FFF7BCF8031EEEDB1846F1E730B587B00E
:10709C00044601AD6846FFF70BFC0FCD04340FC45A
:1070AC002B68237007B030BD70B54D69054B044695
:1070BC008C3544F8043B06460FCD0FC42B68237067
:1070CC00304670BD888A0B002DE9F0439846036862
:1070DC0093B00D460024DB6A0646174698472846AF
:1070EC006B46224621460094FFF758F805460028C7
:1070FC0063D1009B002B4BD05B69002B48D006A8BA
:10710C00FFF792FB009B5C696378022B04D1211D75
:10711C0006A8FFF7BBFF26E00A2B24D11122294633
:10712C0001A800F049FEA368002B38D004F1080335
:10713C000DF1040C183418685968624603C2083300
:10714C00A3429446F7D1062301A90CA88DF814305C
:10715C00FFF778FB0DF1340CBCE80F0007AC0FC443
:10716C00DCF80030237006A8FFF77EFB80B1336893
:10717C0007ADD3F82090124B0C930FCD0DAC0FC470
:10718C002B6823703A4643460CA93046C84705463F
:10719C000098FEF7FBFF284613B0BDE8F083E368C8
:1071AC00002BC3D14FF6FF70D4F81090FEF7DEFF22
:1071BC008145BBD104F11401AAE72546E8E700BFDD
:1071CC00888A0B0038B543691A68002A054610DA1C
:1071DC00B3F88620B3F884309A420AD103681B694D
:1071EC009847044628B92B682846DB6A98472046FE
:1071FC0038BD0120FCE710B54369B3F88620B3F81D
:10720C0084309A42044605D06369B3F88420134451
:10721C00187910BD03681B6998470028F4D14FF00A
:10722C00FF30F6E7F8B543691746B3F88620B3F894
:10723C0084309A4205460E4616D06969B1F88430FE
:10724C00B1F88640E41ABC4228BF3C4604332246BF
:10725C001944304600F0A2FD6A69B2F88430234428
:10726C00A2F884302046F8BD03681B6998470028B3
:10727C00E3D14FF0FF34F5E742690023A2F88430E4
:10728C004269A2F8863070472DE9F0411F46036829
:10729C000C46DB6A8AB0054616469847237DD5F81E
:1072AC001480042B0CBF02200A2006220121FEF7B9
:1072BC00ADFFC8F800006B691B68002B08DA2B685F
:1072CC002846DB6A0024984720460AB0BDE8F081C6
:1072DC002846FFF7D1FFB7B1002303A9F8B20393F7
:1072EC00ADF81030FEF732FF0028E8D168690623AC
:1072FC000093006803AB41F20B0240F6FF71FEF7FE
:10730C005DFF0028DBD11C22002103A800F054FDF6
:10731C00237D042B1DD14FF407733046ADF80C3090
:10732C00FEF72CFFADF80E006068FEF71FFF04900F
:10733C006B691C22186803A9FEF750FF0028BED108
:10734C0004340FCC6D698C350FC523682B70012468
:10735C00BAE740F61C233046ADF80C30FEF70EFFB2
:10736C0005AEADF80E00231D04F11407186859681A
:10737C00324603C20833BB421646F7D1D8E70000A9
:10738C0030B54269B2F886308BB004462BB1B2F8F6
:10739C0084209A4201D1FFF76FFF616908680028C9
:1073AC0018DBB1F886507F2D14D804310823C5F1B1
:1073BC0080022944FEF71AFF002813DD6369B3F835
:1073CC0086200AB9A3F884206369B3F88620104498
:1073DC00A3F886006369B3F88600B3F88430C01A4A
:1073EC000BB030BDFFF7AEF803680B2BF2D0FFF7F4
:1073FC00A9F803680B2BEDD020230025CDE902352D
:10740C00FFF7A0F803680193084B0949009302AAFF
:10741C002B463220FEF7D2FF63691868FEF7D6FEC2
:10742C0063694FF0FF321A60D4E700BFE38A0B00A8
:10743C00DC8A0B0010B5436904461868002801DB90
:10744C00FEF7C4FE63694FF0FF321A6060691122C7
:10745C0000218C3000F0B0FC2046BDE81040FFF756
:10746C000BBF10B5002304460160C0F8843088308F
:10747C00FFF7DAF9204610BD73B500234FF47A728A
:10748C00C0E901320E4A0361026043610446AC203C
:10749C000191FCF7F8FD051E05F10C0608D001233F
:1074AC00C5E90133074B01992B603046FFF7D9FF33
:1074BC002046C4E90565FFF7DFFE02B070BD00BFD2
:1074CC00188B0B00FC8A0B0010B54FF0FF310446F3
:1074DC00FFF7D2FF204610BD10B504460068002807
:1074EC0001DBFEF773FE204610BD0C30FFF7F4BF36
:1074FC00024B1A68024B1A60704700BF84E40320E9
:10750C00FCE60320F8B587B2044638460D4616460D
:10751C0000F00AFA60B102213846FEF77FFD02281E
:10752C0006D1324629462046BDE8F840FEF73EBE5D
:10753C00F8BD70474174704708B5007CFEF7EEFE4D
:10754C0020EAE07008BD08B5007CFEF7BFFE20EA1B
:10755C00E07008BD08B5007CFEF7C8FE40EAE0709C
:10756C0008BD08B5007CFEF7B9FE40EAE07008BD26
:10757C00007CFEF7C3BE37B5457C04462DB1207C9C
:10758C0003B0BDE83040FEF799BE007C0191FEF7D8
:10759C00C5FE00280199F2DC284603B030BD10B5B9
:1075AC0014210446FCF773FD204610BD10B54FF4B2
:1075BC007A730446084611460022C4E90123044BA1
:1075CC002360012320746374FEF7B0FE204610BDC7
:1075DC00808B0B00417470477047704708B50021D1
:1075EC00007CFEF7CBFE40EAE07008BD08B5012137
:1075FC00007CFEF7C3FE40EAE07008BD08B5007CD5
:10760C00FEF7B4FE20EAE07008BD08B5007CFEF77A
:10761C00A5FE20EAE07008BD13B50446007C01917C
:10762C00FEF7A4FE0028019901DC607C20B1207CCF
:10763C00FEF7ACFE20EAE07002B010BD007CFEF755
:10764C00ADBE10B514210446FCF721FD204610BD3B
:10765C0010B54FF47A73044608460021C4E90113AF
:10766C00044B23600123207463741146FEF766FEFD
:10767C00204610BDB08B0B00007C0022FEF766BECE
:10768C0010B514220446002100F096FB204610BDD4
:10769C0010B50F4C88B003A8FFF7F2FF2178BFF3A9
:1076AC005B8F11F001010FD120460191FCF7FEFC1C
:1076BC00019948B103AA0748FFF7CAFF2046FCF717
:1076CC00FAFC054800F064FB024808B010BD00BF8E
:1076DC0000E7032004E70320E5750B000022406857
:1076EC001146FEF7B7BE002240681146FEF7D2BE27
:1076FC00002240681146FEF7E5BE40680022FEF706
:10770C00D9BE4068002281F00101FEF7BBBE002308
:10771C0040681A461946FEF7ADBE002340681A466B
:10772C001946FEF79FBE002240681146FEF782BE46
:10773C00406800220221FEF785BE002340681A46ED
:10774C00FEF770BE024B04225A60024A1A60704760
:10775C0018E70320E08B0B0010B5044600F074FB17
:10776C00013823182046834206D90278197800F88C
:10777C00011B03F80129F6E710BD70B50C46911EEC
:10778C0022291DD8254630B9234430229D4210D2DF
:10779C0005F8012BFAE7B0FBF2F602FB1600C1B2BA
:1077AC00092894BF30315731C9B205F8011B304656
:1077BC00E9E7002320462B70FFF7CEFF204670BD73
:1077CC000020FCE738B5031E0C4615460EDAB3F163
:1077DC00004F4FF02D0214BF5842184601230A7077
:1077EC002A461944FFF7C9FF204638BD0123F9E7A3
:1077FC00014B1860704700BF88E4032008B50B4BA1
:10780C0043B1FFF745FF03681B699847002801DD6A
:10781C00AFF30080064B43B100F07EF903681B699F
:10782C009847002801DDAFF3008008BD0000000080
:10783C000000000008B5FFF7E1FFFEF7DFFB014B8E
:10784C00186008BD28E703200548064A064908B514
:10785C00121A00F0A3FA054B054A1A6008BD00BFC6
:10786C0000F4032004F40320D48D0B0000F4032057
:10787C001E1C279A07B5002300931A466FF0770158
:10788C00FEF7BEFD03B05DF804FB000007B54388AE
:10789C000A2B08D0502B0BD1094B1B684BB103B0F2
:1078AC005DF804EB1847FFF7E5FF03B05DF804FB48
:1078BC00002300931A466FF07701FEF7A1FDF4E761
:1078CC0024E7032010B512480021FEF74BFE114BA4
:1078DC001A68114B9A42114B0CBF012200221A70EC
:1078EC0001D0FFF7B1FFFEF771FB044600F06CFA14
:1078FC000B4B13B12046AFF3008000210848FEF774
:10790C0089FDBDE8104007480021FEF76FBD00BFA0
:10791C00FD770B0000F403201E1C279A20E70320A0
:10792C000000000099780B00232813B502D9002021
:10793C0002B010BDA0F10B03022B1AD8174C217802
:10794C00BFF35B8F11F001010BD120460191FCF7C5
:10795C00ADFB019928B11248FFF714F92046FCF74A
:10796C00AAFB0F4B1878FEF789FC0028DFD1012009
:10797C00DEE7012809D800F08FF80021007CFEF723
:10798C00D5FB80F00100C0B2D2E709380128EED84F
:10799C0000F0C2F8007CFEF7B9FCF2E724E6032005
:1079AC0028E60320232838B504460D460AD8FF29BB
:1079BC0008D0FFF7B9FF28B129462046BDE838406A
:1079CC00FEF734BB38BD38B504460D46FEF736FB22
:1079DC00FF2810D0062804D84D2323FA00F0C30743
:1079EC0009D42046FFF7A0FF28B129462046BDE860
:1079FC003840FEF72BBB38BD10B50446FEF71EFB16
:107A0C00031FDBB2012B08D92046FFF78DFF20B1F5
:107A1C002046BDE81040FEF721BB002010BD2DE92B
:107A2C00F04190461F46072406460D46C4F1070157
:107A3C00B8F1000F12D147FA01F101F00101304603
:107A4C00FFF7C1FF01212846FFF7BDFF00212846A3
:107A5C00FFF7B9FF013CE9D2BDE8F08147FA04F128
:107A6C00EBE7704738B50A4B0360012304464361CA
:107A7C000849202000F074F8202560600549A560B5
:107A8C00284600F06DF8C4E90305204638BD00BF58
:107A9C0018000100148C0B0030B50E4D2978BFF383
:107AAC005B8F11F0010487B011D12846FCF7FEFA68
:107ABC0068B16846FFF7D6FF6A4621460648FEF7CE
:107ACC00E3FD2846FCF7F7FA044800F061F9024898
:107ADC0007B030BD2CE7032030E703206F7A0B0092
:107AEC007047000038B5044614252A46002100F0E2
:107AFC0063F925804025074925812846258200F019
:107B0C002FF804496060284600F02AF8E06020460F
:107B1C0038BD00BF148C0B0030B50E4D2978BFF367
:107B2C005B8F11F0010487B011D12846FCF7BEFA27
:107B3C0068B101A8FFF7D6FF01AA21460648FFF756
:107B4C0035FD2846FCF7B7FA044800F021F9024845
:107B5C0007B030BD44E7032048E70320ED7A0B0063
:107B6C00FCF793BA08B5FEF7E5FC0000014900F0FC
:107B7C00F9B800BF308C0B007FB500241023CDE981
:107B8C000234036815469E6912686B46CDE90044C1
:107B9C00B0479DF8043003F00603062B03BF009B8F
:107BAC002B600120204604B070BD0098904214BF99
:107BBC00012006207047000010B5034B03600446FB
:107BCC0000F0CDF8204610BD708C0B0010B50446AB
:107BDC00FFF7F2FF20460821FCF759FA204610BDAA
:107BEC002DE9F0411F46DDE90834DDF81880984591
:107BFC000646154607D1079900F0B4F818B165711F
:107C0C000020BDE8F0813946304600F0ABF8002882
:107C1C00F6D00123C4F800802571A371F0E738B5C4
:107C2C0015461C4600F09EF820B10823E36006239D
:107C3C002560237138BD73B505460C4601921E466E
:107C4C0000F090F850B9032E08D82368019A5B69AC
:107C5C002946204602B0BDE87040184702B070BDFE
:107C6C0010B5034B03600446FFF7A6FF204610BD7A
:107C7C00D08C0B0010B50446FFF7F2FF20460C2108
:107C8C00FCF705FA204610BDF7B5089F974205464C
:107C9C000E4614460AD0A86802680897156A314641
:107CAC002246AC4603B0BDE8F0406047194601934C
:107CBC0000F058F8019B0028EDD0062003B0F0BD71
:107CCC002DE9F14F0D461946DDE90A4BDDE90CA60D
:107CDC0081461746984600F045F890B1002D346067
:107CEC00377109DB61198A450CBF06210121B1717D
:107CFC00002001B0BDE8F08F0235F9D10123B3713A
:107D0C00F6E7544506D15946484600F02BF808B121
:107D1C007771EDE7D9F808000368CDE90CA6CDE939
:107D2C000A4BDC693A4643462946A44601B0BDE8F5
:107D3C00F04F60472DE9F04107460C4615461E46AC
:107D4C00FFF76DFF48B9B86803689F692A46334648
:107D5C002146BC46BDE8F0416047BDE8F081704764
:107D6C0000207047814208B50ED0406803782A2B5A
:107D7C000CD049680B782A2B08BF013100F052F85F
:107D8C00B0FA80F0400908BD0120FCE70020FAE7BA
:107D9C00002301461A46184600F05EB80A44914288
:107DAC0000F1FF3300D1704710B511F8014B03F807
:107DBC00014F9142F9D110BD02440346934200D1C8
:107DCC00704703F8011BF9E738B5104B1D68AB6B16
:107DDC000446B3B91820FEF78DFB0246A86320B900
:107DEC000B4B0C484221FEF7B5FB0B490B4BC0E982
:107DFC0000130B4B83600B23838100210120C2E90C
:107E0C000401AB6B00221C615A6138BD88E403206D
:107E1C00098D0B00208D0B000E33CDAB34126DE6AB
:107E2C00ECDE050010F8012B11F8013B012A28BFEC
:107E3C009A42F7D0D01A7047034611F8012B03F879
:107E4C00012B002AF9D17047034613F8012B002AA5
:107E5C00FBD1181A013870472DE9F843DFF8B880C8
:107E6C000646D8F800001F460D46914600F056F81D
:107E7C00254B1C6834B9254C1C60254B13B11B6871
:107E8C00C4F8883063681F2B07DDD8F8000000F0B9
:107E9C0047F84FF0FF30BDE8F8834EB3D4F88800B4
:107EAC0088B91C4B23B9D8F8000000F038F8F0E77B
:107EBC004FF48470FEF71EFB0028F4D00023C0E9B9
:107ECC004033C4F88800636840F8239001229A403C
:107EDC0000EB8301D0F800311343C0F80031022EBF
:107EEC00C1F8807002BFD0F804311343C0F80431DC
:107EFC006368D8F800005A1C0233626044F82350BF
:107F0C0000F00EF80020C6E7E8E703205CE703204A
:107F1C000000000001650B00ECE403207047704783
:107F2C00704700001D400B0059400B0081400B00B6
:107F3C0085400B000000000043616C6C206F6E20CC
:107F4C0070757265207669727475616C004173731B
:107F5C00657274696F6E4661696C757265202A7002
:107F6C005F70696E203C20283332202B203136295B
:107F7C00004E6F204368616E6765202D2043616E53
:107F8C0063656C6C696E6720434D440A007B226FFD
:107F9C006E223A747275652C22736174223A002C2D
:107FAC0022627269223A002C22687565223A007BA3
:107FBC00226F6E223A66616C73657D0053656E6448
:107FCC00696E6720436F6D6D616E6420746F20481D
:107FDC00756500505554202F6170692F002F6C6906
:107FEC00676874732F002F73746174652048545440
:107FFC00502F312E3100486F73743A2000436F6E4E
:10800C0074656E742D4C656E6774683A2000436F0E
:10801C006E74656E742D547970653A20746578743D
:10802C002F706C61696E3B636861727365743D554A
:10803C0054462D380046726F6D2048756500537795
:10804C00697463684F4E202569200A003C3F786DA7
:10805C006C2076657273696F6E3D22312E30222052
:10806C00656E636F64696E673D227574662D382288
:10807C003F3E3C733A456E76656C6F706520786D4B
:10808C006C6E733A733D22687474703A2F2F73635D
:10809C0068656D61732E786D6C736F61702E6F7285
:1080AC00672F736F61702F656E76656C6F70652FBF
:1080BC002220733A656E636F64696E675374796CD2
:1080CC00653D22687474703A2F2F736368656D6117
:1080DC00732E786D6C736F61702E6F72672F736F68
:1080EC0061702F656E636F64696E672F223E3C73FF
:1080FC003A426F64793E3C753A53657442696E61DD
:10810C007279537461746520786D6C6E733A753D39
:10811C002275726E3A42656C6B696E3A7365727653
:10812C006963653A62617369636576656E743A3149
:10813C00223E3C42696E61727953746174653E31C2
:10814C003C2F42696E61727953746174653E3C2FA9
:10815C00753A53657442696E6172795374617465D2
:10816C003E3C2F733A426F64793E3C2F733A456E16
:10817C0076656C6F70653E00504F5354202F7570B0
:10818C006E702F636F6E74726F6C2F6261736963A4
:10819C006576656E743120485454502F312E310061
:1081AC00436F6E74656E742D547970653A207465E6
:1081BC0078742F786D6C3B20636861727365743DC5
:1081CC007574662D3800534F4150414354494F4EFE
:1081DC003A202275726E3A42656C6B696E3A736521
:1081EC0072766963653A62617369636576656E740C
:1081FC003A312353657442696E61727953746174B8
:10820C00652200436F6E6E656374696F6E3A206B06
:10821C006565702D616C6976650073776974636848
:10822C004F4646202569200A003C3F786D6C20762D
:10823C00657273696F6E3D22312E302220656E633C
:10824C006F64696E673D227574662D38223F3E3C23
:10825C00733A456E76656C6F706520786D6C6E73D5
:10826C003A733D22687474703A2F2F736368656D8E
:10827C0061732E786D6C736F61702E6F72672F73D4
:10828C006F61702F656E76656C6F70652F22207331
:10829C003A656E636F64696E675374796C653D22E1
:1082AC00687474703A2F2F736368656D61732E78E0
:1082BC006D6C736F61702E6F72672F736F61702F9F
:1082CC00656E636F64696E672F223E3C733A426F32
:1082DC0064793E3C753A53657442696E61727953A8
:1082EC007461746520786D6C6E733A753D2275728D
:1082FC006E3A42656C6B696E3A736572766963654A
:10830C003A62617369636576656E743A31223E3CFC
:10831C0042696E61727953746174653E303C2F42D0
:10832C00696E61727953746174653E3C2F753A5372
:10833C00657442696E61727953746174653E3C2F49
:10834C00733A426F64793E3C2F733A456E76656C96
:10835C006F70653E00496F544E6574776F726B0099
:10836C002C006920616D20747279696E670A746FD4
:10837C00206765742069740A746F67657468657228
:10838C00000A0A0048454C4C4F0A4C4F56450062B7
:10839C007574746F6E2034206973207072657373FA
:1083AC0065640D00444F20594F550A4C4F564520DB
:1083BC004D453F005748415420444F20550A4E45E7
:1083CC0045443C3300427574746F6E732061726562
:1083DC0020636C69636B45440D005348555420452C
:1083EC005220444F574E0A0073657474696E6720AF
:1083FC00636F6C6F72206F662062756C62202569EA
:10840C0020746F20636F6C6F7220253036690A0000
:10841C003139322E3136382E312E3330003139325B
:10842C002E3136382E312E3331003139322E313651
:10843C00382E312E3332003139322E3136382E313E
:10844C002E3333003139322E3136382E312E33342F
:10845C00004D516C5A7A69524F30576169354D73E2
:10846C004D486C6C387841554151717738355172A3
:10847C007238744D3337463354003139322E31361D
:10848C00382E312E350000000000003E5B4F5B3E65
:10849C003E6B4F6B3E1C3E7C3E1C183C7E3C181CBD
:1084AC00577D571C1C5E7F5E1C00183C1800FFE7B4
:1084BC00C3E7FF0018241800FFE7DBE7FF30483A5A
:1084CC00060E2629792926407F050507407F0525BC
:1084DC003F5A3CE73C5A7F3E1C1C08081C1C3E7F44
:1084EC0014227F22145F5F005F5F06097F017F000B
:1084FC006689956A606060606094A2FFA29408042B
:10850C007E040810207E201008082A1C08081C2A4B
:10851C0008081E101010100C1E0C1E0C30383E38A3
:10852C0030060E3E0E06000000000000005F00004A
:10853C000007000700147F147F14242A7F2A1223BB
:10854C001308646236495620500008070300001CCB
:10855C002241000041221C002A1C7F1C2A08083ED4
:10856C0008080080703000080808080800006060E7
:10857C000020100804023E5149453E00427F400055
:10858C0072494949462141494D331814127F10272D
:10859C00454545393C4A494931412111090736497C
:1085AC00494936464949291E000014000000403450
:1085BC000000000814224114141414140041221455
:1085CC000802015909063E415D594E7C1211127C7C
:1085DC007F494949363E414141227F4141413E7FDD
:1085EC00494949417F090909013E414151737F08BD
:1085FC0008087F00417F41002040413F017F081463
:10860C0022417F404040407F021C027F7F040810C3
:10861C007F3E4141413E7F090909063E4151215EA1
:10862C007F09192946264949493203017F01033F35
:10863C004040403F1F2040201F3F4038403F6314C4
:10864C0008146303047804036159494D43007F41C6
:10865C0041410204081020004141417F0402010203
:10866C000440404040400003070800205454784028
:10867C007F284444383844444428384444287F38BC
:10868C005454541800087E090218A4A49C787F083E
:10869C0004047800447D40002040403D007F1028B9
:1086AC00440000417F40007C047804787C0804047A
:1086BC00783844444438FC1824241818242418FC12
:1086CC007C08040408485454542404043F44243CB7
:1086DC004040207C1C2040201C3C4030403C442826
:1086EC001028444C9090907C4464544C44000836C0
:1086FC00410000007700000041360800020102042E
:10870C00023C2623263C1EA1A161123A4040207A4D
:10871C003854545559215555794121545478412197
:10872C005554784020545579400C1E5272123955CC
:10873C0055555939545454593955545458000045C9
:10874C007C410002457D420001457C40F0292429F2
:10875C00F0F0282528F07C545545002054547C54C6
:10876C007C0A097F493249494932324848483232F9
:10877C004A4848303A4141217A3A42402078009D9B
:10878C00A0A07D39444444393D4040403D3C24FF49
:10879C002424487E4943662B2FFC2F2BFF0929F6F6
:1087AC0020C0887E090320545479410000447D4147
:1087BC003048484A32384040227A007A0A0A727DA0
:1087CC000D19317D2629292F2826292929263048BB
:1087DC004D4020380808080808080808382F10C829
:1087EC00ACBA2F102834FA00007B000008142A14AD
:1087FC002222142A1408AA005500AAAA55AA55AA7E
:10880C00000000FF00101010FF00141414FF0010E3
:10881C0010FF00FF1010F010F0141414FC001414CE
:10882C00F700FF0000FF00FF1414F404FC141417ED
:10883C00101F10101F101F1414141F00101010F014
:10884C00000000001F101010101F10101010F0105E
:10885C00000000FF101010101010101010FF10006E
:10886C000000FF140000FF00FF00001F10170000A5
:10887C00FC04F414141710171414F404F40000FF7F
:10888C0000F714141414141414F700F71414141718
:10889C001410101F101F141414F4141010F010F0F6
:1088AC0000001F101F0000001F14000000FC14002B
:1088BC0000F010F01010FF10FF141414FF1410101F
:1088CC00101F00000000F010FFFFFFFFFFF0F0F0A2
:1088DC00F0F0FFFFFF0000000000FFFF0F0F0F0F75
:1088EC000F38444438447C2A2A3E147E0202060681
:1088FC00027E027E0263554941633844443C044085
:10890C007E201E2006027E020299A5E7A5991C2A4C
:10891C00492A1C4C7201724C304A4D4D303048780B
:10892C004830BC625A463D3E494949007E0101012E
:10893C007E2A2A2A2A2A44445F444440514A44400D
:10894C0040444A51400000FF0103E080FF00000852
:10895C00086B6B083612362436060F090F0600001A
:10896C0018180000001010003040FF0101001F011A
:10897C00011E00191D1712003C3C3C3C000000007D
:10898C0000000000000000000000000000000000DB
:10899C000000000035530B00516A0B00A1400B0086
:1089AC00D54E0B00FB4F0B0017500B00934F0B00D9
:1089BC0031500B0067500B0083500B00000000007F
:1089CC0000000000C1560B0051570B0035530B0033
:1089DC00516A0B00C5560B00D54E0B004D550B00C4
:1089EC00DD530B00934F0B0031500B0067500B0005
:1089FC0083500B002C01000018000000F401000053
:108A0C002C010000500000000000000000000000DD
:108A1C0000000000000000001F660B0015660B0034
:108A2C000B660B0001660B00F5650B00E9650B008E
:108A3C002D690B0035690B00DD650B00D5650B004E
:108A4C00CB650B00C1650B0065690B0000000000D5
:108A5C00000000003D660B0087660B005F660B0094
:108A6C003F660B0067660B006F660B0077660B00AA
:108A7C007F660B000000000000000000D1670B00B7
:108A8C00C1670B00C3670B00617070000000000031
:108A9C0000000000ED680B00F7680B0001690B008B
:108AAC000B690B0015690B0021690B002D690B007C
:108ABC0035690B003D690B0049690B0051690B00CE
:108ACC005B690B0065690B00000810182028303812
:108ADC00776972696E670072656376206572726F72
:108AEC0072203D2025640000000000000000000002
:108AFC00E96F0B000D700B00F7740B001B700B0073
:108B0C00ED6F0B00000000000000000049430B005B
:108B1C007D430B00656F0B007F6F0B008D730B009B
:108B2C00A96F0B0003720B00DD6F0B0095720B002D
:108B3C00D5700B0031720B0041740B00D1710B001E
:108B4C00DF6F0B00916F0B0021700B00B5700B00E9
:108B5C0025592D256D2D25645425483A254D3A254A
:108B6C0053257A0061736374696D65000000000021
:108B7C00000000003F750B00AB750B0083750B00FC
:108B8C00516A0B0053750B006F750B0061750B0070
:108B9C007D750B0041750B0045750B000000000046
:108BAC0000000000E7750B004F760B0025760B00DC
:108BBC00516A0B0017760B00E9750B00F9750B0069
:108BCC0049760B0009760B00E1750B0000000000E4
:108BDC000000000047770B003D770B0033770B004C
:108BEC00E9760B0027770B001B770B002D690B0028
:108BFC0035690B000F770B0007770B00FD760B0028
:108C0C00F3760B0065690B0000537431395F5370B8
:108C1C005F6D616B655F7368617265645F746167DA
:108C2C0000000000708C0B00158C0B00D08C0B001E
:108C3C00448C0B00F48C0B004E31305F5F63787802
:108C4C00616269763131375F5F636C6173735F7436
:108C5C007970655F696E666F45000000000000006A
:108C6C00388C0B00C57B0B00D97B0B006D7D0B008A
:108C7C006D7D0B00437C0B00857B0B002B7C0B006C
:108C8C00ED7B0B00B77B0B00D08C0B00A08C0B008A
:108C9C00388C0B004E31305F5F6378786162697697
:108CAC003132305F5F73695F636C6173735F7479CA
:108CBC0070655F696E666F45000000000000000083
:108CCC00948C0B006D7C0B00817C0B006D7D0B007C
:108CDC006D7D0B00437C0B00857B0B00417D0B00F5
:108CEC00CD7C0B00957C0B00708C0B00FC8C0B006E
:108CFC00537439747970655F696E666F00524545BF
:108D0C004E54206D616C6C6F632073756363656585
:108D1C00646564002F746D702F6A656E6B696E7379
:108D2C002D4743432D31302D706970656C696E652C
:108D3C002D34385F32303230313132345F313630AD
:108D4C00363138303633392F7372632F6E65776C4A
:108D5C0069622F6E65776C69622F6C6962632F7321
:108D6C0074646C69622F72616E642E630000000083
:108D7C007D4D0B00B95F0B00B1650B0029660B0034
:108D8C00DD680B003D6A0B00796B0B00416F0B002B
:108D9C00FD740B0051770B00000000000000000078
:048DAC0000000000C3
:108DB000040000001400000003000000474E5500AE
:108DC000376DC07DCDAF0F1B249139FCB515E75E23
:048DD000CFA1A0ADE2
:048DD400000000009B
:108DD800C8AF0000E45700008CB9000088130000F9
:108DE80050C30000102700001C840B0029840B00CE
:108DF80036840B0043840B0050840B0001C0000034
:108E0800000103070F1F3F7F0080C0E0F0F8FCFE61
:108E1800000000000000000000000000000000004A
:108E2800000000000000000000000000000000003A
:108E3800000000000000000000000000000000002A
:108E4800000000000000000000000000000000809A
:108E5800808000000000000000000000000000000A
:108E6800008080C0C000000000000000000000007A
:108E780000000000000000000000000000000000EA
:108E880000000000000000000000000000000000DA
:108E980000000000000000000000000000000000CA
:108EA8000000000080C0E0F0F8FCF8E000000000DE
:108EB800000000000000000000000000008080802A
:108EC800808000808000000000808080808000FF1B
:108ED800FFFF00000000808080800000808000008C
:108EE80080FFFF80800080800080808080008080FC
:108EF8000000000000808000008C8E84000080F854
:108F0800F8F88000000000000000000000000000E9
:108F1800F0F0F0F0F0F0F0F0F0F0F0F0E0E0C08009
:108F280000E0FCFEFFFFFF7FFFFFFFFFFF000000E8
:108F38000000000000000000000000FEFFC7010163
:108F4800010183FFFF00007CFEC70101010183FFCF
:108F5800FFFF0038FEC78301010183C7FFFF000040
:108F680001FFFF010100FFFF0701010100007FFF72
:108F780080000000FFFF7F0000FFFFFF000001FFEF
:108F8800FFFF0100000000000000000000000000DA
:108F9800030F3F7F7FFFFFFFFFFFFFFFE7C7C78F7D
:108FA8008F9FBFFFFFC3C0F0FFFFFFFFFFFCFCFC6C
:108FB800FCFCFCFCFCF8F8F0F0E0C0000103030343
:108FC800030301030300000000010303030301017D
:108FD8000301000000010303030301010303000070
:108FE800000303000000030300000000000000016C
:108FF8000303030303010000000103010000000351
:109008000301000000000000000000000000000054
:1090180000000080C0E0F0F9FFFFFFFFFF3F1F0FD7
:1090280087C7F7FFFF1F1F3DFCF8F8F8F87C7DFFA6
:10903800FFFFFFFFFFFFFF7F3F0F070030300000FB
:109048000000000000000000000000000000000018
:1090580000000000FEFEFC00000000000000000010
:1090680000000000000000000000000000E0C00058
:109078000000000000000000000030300000000088
:1090880000000000000000000000000000000000D8
:1090980000C0FEFFFFFFFFFFFFFFFFFF7F7F3F1FB7
:1090A8000F071F7FFFFFF8F8FFFFFFFFFFFEF8E045
:1090B800000000010000000000000000FEFE0000AB
:1090C80000FCFEFC0C06060EFCF80000F0F81C0E76
:1090D8000606060CFFFFFF0000FEFE00000000FC75
:1090E800FEFC00183C7E66E6CE84000006FFFF0604
:1090F80006FCFEFC0C0606060000FEFE0000C0F89A
:10910800FC4E4646464E7C7840183C76E6CECC80EF
:109118000000000000000000000000000000000047
:109128000000000001070F1F1F3F3F3F3F1F0F03B5
:109138000000000000000000000000000F0F000009
:10914800000F0F0F000000000F0F000003070E0CA8
:1091580018180C060F0F0F0000010F0E0C180C0F3B
:10916800070100040E0C180C0F070000000F0F0079
:10917800000F0F0F0000000000000F0F0000000795
:10918800070C0C181C0C060600040E0C180C0F0714
:1091980000000000000000000000000000000000C7
:1091A80000000000000000000000000000000000B7
:1091B80000000000000000000000000000000000A7
:1091C8000000000000000000000000000000000097
:1091D8000000000000000000000000000000000087
:1091E8000000000000000000000000000000000077
:1091F8000000000000000000000000000000000067
:109208000000000000000000000000000000000056
:10921800708B0B008CE403200000000000000000AD
:109228000000000000000000000000000000000036
:109238000000000000000000000000000000000026
:109248000000000000000000000000000000000016
:109258000000000000000000000000000000000006
:1092680000000000000000000000000000000000F6
:0C9278000000000000000000ECE70320F4
:10928400FFFFFFFF00000102030405060708090AA7
:109294000B0C0D0E0F101112131415161718191AA2
:0892A4001B1C1D1E1F202800E9
:0492AC0078563412AA
:04000003B000401CED
:00000001FF
