:02000002B0004C
:1040000000400B002C900B00000006000C00050285
:084010000401A60F00000000EE
:04401800D87C0B0045
:10401C0009480A49884208B505D0094A824202D0AB
:10402C00121A03F08FFD0748074A0021121A03F0F9
:10403C0097FD014808BD00BF44E00320588B0B00DE
:10404C00F0E40320F0E40320EDE7032070B5074E05
:10405C00074C03F00BFBA41BA4080025AC4200D1B9
:10406C0070BD56F8043B98470135F7E7FC8A0B0006
:10407C00248B0B0000F040BC08B500F0EFFCBDE851
:10408C00084003F0ABBA02F01FB902F01DB902F000
:10409C0023B9000008B5034A03490C2002F070F85C
:1040AC00FEE700BFDD5D0B00EC7C0B000078B0FA86
:1040BC0080F0400970470123037070472F2810B51A
:1040CC0004460DD9094A0A490A2002F059F8094B4D
:1040DC0004F01F04D3F81005E04000F0010010BDFF
:1040EC001F28F4D84FF0A043F4E700BFDD5D0B00B0
:1040FC00017D0B00000300502DE9F843DFF82C8103
:10410C00876898F80030484DBFF35B8F13F0010FB0
:10411C00044609D14046FFF7C9FF28B101F070FEF3
:10412C0028604046FFF7C7FFBFB22B683F01DE5D3A
:10413C0098F80030BFF35B8FD9074FEA461909D4C2
:10414C003A48FFF7B3FF28B101F05AFE2860374810
:10415C00FFF7B1FF2B683B445E7806F01F0646EA7A
:10416C0009063046FFF7AAFF3046FFF7A7FFE768BE
:10417C0098F80030BFF35B8FDA07C6B209D42B482E
:10418C00FFF794FF28B101F03BFE28602748FFF7AA
:10419C0092FFBFB22B683F0113F8079098F80030DC
:1041AC00BFF35B8FDB074FEA491909D41F48FFF7B0
:1041BC007DFF28B101F024FE28601C48FFF77BFF2F
:1041CC002B681F447D7805F01F0545EA0905284634
:1041DC00FFF774FF2846FFF771FF237CC0B203F092
:1041EC0003030EB143F0040308B143F008039A082B
:1041FC00013B22740D2B0BD8DFE803F0070C0F0CDE
:10420C000A120707120A0C0F0C076369013363616A
:10421C00BDE8F8836369013BF9E763690233F6E7AC
:10422C006369023BF3E700BFF4E40320F0E40320EE
:10423C0070B50C1E064615460BDA0A2A09D12D213B
:10424C0002F016FB6142EAB23046BDE8704002F063
:10425C0028BB2146F7E710B403685A6899681B68B5
:10426C00541001EB6200D20748BF0A595DF8044BA9
:10427C0048BFD3581847012A38B5044602D10B68F9
:10428C00236003E0022A03D0032A0DD0002038BD9E
:10429C000C200D68FFF7F7FE03460028F0D095E8D8
:1042AC00070083E80700EBE700680028EED00C213C
:1042BC00FFF7EDFEEAE70000F0B58DB002AD85E842
:1042CC000600064695E8030005AC84E805001F4689
:1042DC000C2000230A93FFF7D6FE024620B194E887
:1042EC00030082E8030097600B4B0B930B4B0A9374
:1042FC009DF85030089200939DF848209DF94C3061
:10430C0008A9304602F00AF90A9B1BB108A903223E
:10431C00084698470DB0F0BD63420B0083420B007A
:10432C000EB403B503AB002153F8042B019302F038
:10433C00D6FA02B05DF804EB03B0704738B5846967
:10434C000A4B036005467CB16368013B63605BB953
:10435C00236820469B689847A368013BA3601BB960
:10436C0023682046DB689847284638BD98880B00A0
:10437C0010B50446FFF7E2FF20461C21FFF787FE2D
:10438C00204610BD2DE9F04F0F460446164689B065
:10439C000221384603F0DAF90221304603F0D6F94F
:1043AC00DFF858B1E6600023C4E90137236063618C
:1043BC004FF4FA6001F00CFDD4F808A09BF8003023
:1043CC004D4DBFF35B8F13F0010F09D15846FFF72A
:1043DC006DFE28B101F014FD28605846FFF76BFE06
:1043EC001FFA8AFA2B684FEA0A1A13F80A809BF80C
:1043FC000030BFF35B8FD9074FEA481909D43F4807
:10440C00FFF754FE28B101F0FBFC28603B48FFF796
:10441C0052FE2B68534493F8018008F01F0848EAB9
:10442C0009084046FFF74AFE4046FFF747FED4F81E
:10443C000CA09BF80030BFF35B8FB0F1000818BFE5
:10444C004FF00108DA0709D42C48FFF72FFE28B1EA
:10445C0001F0D6FC28602948FFF72DFE1FFA8AFAD6
:10446C002B684FEA0A1A13F80A909BF80030BFF336
:10447C005B8FDB074FEA491909D42048FFF716FE7A
:10448C0028B101F0BDFC28601C48FFF714FE2B6816
:10449C009A449AF8015005F01F0545EA090528468B
:1044AC00FFF70CFE2846FFF709FE08B148F002089A
:1044BC00DFF84C9084F8108000254FF0FF3823462D
:1044CC002A4649463846CDE900580295CDF8109059
:1044DC000595FFF7F1FECDE90695CDE9018500952F
:1044EC0008AA304612E906002346FFF7E5FE2046EF
:1044FC0009B0BDE8F08F00BFF4E40320F0E4032022
:10450C0005410B002DE9F0418CB005460F4668467D
:10451C007749DDF8488014461E4602F04CFBDFF864
:10452C0028E27449DEF800307348744ADFF81CC284
:10453C00AB4219D10B68BB4216D10368A34213D10D
:10454C001368B34210D1DCF8003043450CD102F0B3
:10455C0073FF6B49FFF7E4FE0024684602F0E0FAB3
:10456C0020460CB0BDE8F081CEF800500F6004601E
:10457C001660CCF80080002F00F0B58061496846C9
:10458C0002F047FB694608A802F038FB0A224146B4
:10459C0004A802F050FB04A908A802F094FB5A49A5
:1045AC0002F09DFB0146684602F019FB04A802F0DC
:1045BC00B7FA08A802F0B4FA694608A802F01EFB84
:1045CC000A22314604A802F036FB04A908A802F01E
:1045DC007AFB4E4902F083FB0146684602F0FFFA73
:1045EC0004A802F09DFA08A802F09AFA694608A8F5
:1045FC0002F004FB0A22214604A802F01CFB04A9C9
:10460C0008A802F060FB424902F069FB01466846CB
:10461C0002F0E5FA04A802F083FA08A802F080FA86
:10462C003C493D480023502202F038FC0446002847
:10463C0093D002F001FF394902F029F902F0FCFE97
:10464C00009902F024F93649334802F00DF9354946
:10465C00314802F009F934492F4802F005F90A22D1
:10466C002D482946FFF7E4FD30492B4802F00FF99D
:10467C002F49294802F00BF92E49274802F0F4F88B
:10468C002449254802F003F92B49234802F0ECF8A1
:10469C000A220299204802F004F91F4802F0EBF8B4
:1046AC0026491D4802F0F3F81B4802F0E4F8009983
:1046BC00194802F0ECF802F0BFFE214902F0E7F8CD
:1046CC0002F0BAFE1449044608A802F015FA08993B
:1046DC00204602F0DCF808A802F022FA0E4802F09C
:1046EC0093FD012439E71749684602F092FA97E7DF
:1046FC0018810B0068E5032070E5032060E50320BA
:10470C00257D0B00417D0B00537D0B005B7D0B0069
:10471C006E7D0B0009820B00F8E40320707D0B000A
:10472C00877D0B00E0810B00917D0B009A7D0B00C7
:10473C00C37F0B00AA7D0B00B17D0B00C27D0B006B
:10474C00E97D0B00637D0B0064E503206CE5032021
:10475C001FB525490446684602F02DFA02F06CFE9E
:10476C0022462249FFF7DCFD2149684602F08DFA0A
:10477C00204A2149128851F824102048002302F0C5
:10478C008DFB28B31E491D4802F081F81D491B48BA
:10479C0002F07DF81C49194802F079F81B491748BA
:1047AC0002F075F81A49154802F05EF802991348A0
:1047BC000A2202F076F8114802F05DF80F4802F078
:1047CC005AF800990D4802F04FF80C4802F053F8D3
:1047DC000A4802F0E1FB10B1084802F015FD6846EA
:1047EC0002F09EF904B010BD18810B00F27D0B0095
:1047FC00007E0B0070E003205CE0032044E5032006
:10480C002C7F0B00547F0B007A7F0B00B77F0B00C3
:10481C00B17D0B001FB525490446684602F0CBF963
:10482C0002F00AFE22462249FFF77AFD214968462A
:10483C0002F02BFA204A2149128851F82410204802
:10484C00002302F02BFB28B31E491D4802F01FF871
:10485C001D491B4802F01BF81C49194802F017F8B7
:10486C001B49174802F013F81A49154801F0FCFFD0
:10487C00029913480A2202F014F8114801F0FBFFC8
:10488C000F4801F0F8FF00990D4801F0EDFF0C48BE
:10489C0001F0F1FF0A4802F07FFB10B1084802F06A
:1048AC00B3FC684602F03CF904B010BD18810B0053
:1048BC00CE7F0B00DD7F0B0070E003205CE003205B
:1048CC0044E503202C7F0B00547F0B007A7F0B00F8
:1048DC00B77F0B00B17D0B0010B50446008802F0C9
:1048EC005FFF6268031E18BF01236360934214BF0D
:1048FC001846002010BD000030B53C2295B00221B6
:10490C002C482D4C2D4D00F001FF2A4800F032FEB2
:10491C002B4800F0F0FF2A4801F026F828480A211D
:10492C0001F011FA0121122002F010FF01210820E0
:10493C0002F00CFF03210C2002F008FF02F07CFDBA
:10494C004FF4165102F06CFD00231A4619466068AC
:10495C0001F072FC3822002106A803F001F94C2367
:10496C000193184B02930A220023CDE90323194625
:10497C0001AA6068059301F07FFC002360681A4669
:10498C00194601F039FC00226068114601F03CFC2C
:10499C0028B102F051FD2946FFF7C2FCF3E74FF4B2
:1049AC007A7001F0DDFC02F047FD0749FFF7B8FC17
:1049BC0015B030BDB0E5032018E7032014810B00BF
:1049CC0010E6032009810B0016810B0003460846F4
:1049DC000BB1FFF7BDBEFFF71DBF000070B505465C
:1049EC000E461C46B2B10D48012100F0DAFB0B4813
:1049FC00012100F0DBFB094832B229B200F0CEFBFA
:104A0C00074906482246FFF78BFCBDE87040034877
:104A1C0000F00CBE014800F0ADFDF6E7B0E5032058
:104A2C0019810B00F8B50B4C0B4E20600D46174648
:104A3C002168A94208DC3A4689B2304601F040F9B7
:104A4C00236801332360F3E7BDE8F840024800F027
:104A5C008BBF00BFE8E5032010E603202DE9F341EE
:104A6C0089488A4DFFF738FF18B12B7883F0010382
:104A7C002B702B78864C33B3267826BB85480121C6
:104A8C0000F08FFB8348012100F090FB32468148F7
:104A9C00314600F083FB80497E48FFF741FC7D489E
:104AAC0000F0C4FD7D4801F075F910214FF47F0230
:104ABC003046FFF7B7FF794800F056FF02F0BCFC18
:104ACC007749FFF72DFC7748FFF706FF18B12378DD
:104ADC0083F0010323702B78002B71D02378002BEB
:104AEC0000F09A8014226B486F4C002100F056FBAA
:104AFC006E496848FFF714FC664800F097FD02F019
:104B0C009BFC6B49FFF70CFC6A48FFF7E5FE18B1FC
:104B1C00237883F00103237020780121FFF756FFDF
:104B2C00654B22781B7832210020FFF757FF634832
:104B3C00FFF7D2FE624B18B11A7882F001021A709C
:104B4C00604D1878604C0221FFF740FF01F018FD12
:104B5C006E6901F017FD5E2E266067DD01F010FD19
:104B6C005F266E6101F00EFD2660FF23009300238B
:104B7C002068564F5F22194601F0E6FB3860544816
:104B8C00FFF7AAFE18B1534A136801331360524859
:104B9C00524DFFF7A1FE18B12B7883F001032B7057
:104BAC002B78002B48D102F047FC4D49FFF7B8FB9E
:104BBC00002300931A4619460120FFF7A3FC2BE0B3
:104BCC0023784BBB01F014F9464E474B1860336801
:104BDC00C01A42F21073984221DD4FF47F420C212F
:104BEC000420FFF71FFF2D4800F0BEFE01F000F976
:104BFC003060284800F0BEFC28222648142100F022
:104C0C00CDFA3A492348FFF78BFB224800F00EFD02
:104C1C002B78002B7FF462AF02B0BDE8F0811F4807
:104C2C0001F0B8F81D4800F09FFEE2E7002E9CDC76
:104C3C0001F0A6FC002694E7DFF898802C4E02F0D9
:104C4C00FBFBD8F800302B49072493FBF4F2C2EBA2
:104C5C00C2029B1A012256F82330FFF761FBD8F8E9
:104C6C00003093FBF4F4C4EBC4041C1BFF2300932F
:104C7C0001213B6856F824200846FFF743FC2B78AB
:104C8C00002BC9D18FE700BF90E503200AE6032073
:104C9C000BE60320B0E503201C810B0010E603207B
:104CAC002A810B0098E5032008E6032044810B00C1
:104CBC0054810B0078E5032034E5032080E50320C4
:104CCC0009E60320F0E50320D4E5032074E5032076
:104CDC0088E50320A8E50320A0E503200CE60320CB
:104CEC0069810B00ECE50320ACE503203F810B0050
:104CFC0014E5032077810B0038B53149314801F0B8
:104D0C005AFF314A314B12681A60314A31481268E5
:104D1C005A60314A12689A60304A1268DA60304A36
:104D2C0012681A612F4A12685A612F4A12689A61E6
:104D3C0002F0B4FA2D4802F0B1FA2D4A02231360A6
:104D4C001846002102F002FD2A4A03241460204672
:104D5C00002102F0FBFC284A04201060002102F024
:104D6C00F5FC264A05201060002102F0EFFC244AD5
:104D7C0006201060002102F0E9FC224A0C25156087
:104D8C002846002102F0E2FC13211F4800F0DCFB56
:104D9C000223294607221D4800F0D4FD0F221C488F
:104DAC000E21FFF7EFFA1B4B0022C3E90022A2F5FC
:104DBC0080329A602046BDE8384001F0F1B900BF5E
:104DCC0018810B00D8E5032030E5032014E50320FF
:104DDC0050E00320F8E4032058E0032048E00320CF
:104DEC0044E003204CE0032054E0032044E503207E
:104DFC0078E5032080E5032088E5032090E5032077
:104E0C0098E50320A0E50320B0E5032010E603207D
:104E1C00F0E5032038E5032013B50B4C2178BFF3E4
:104E2C005B8F11F001010BD120460191FFF73EF988
:104E3C00019928B1054801F08FFD2046FFF73BF999
:104E4C00024802B010BD00BF24E6032028E6032070
:104E5C002DE9F04F85B01F46BDF93880BDF83C30C8
:104E6C00A8EB0209A7EB010AB9F1000FB8BFC9F111
:104E7C000009BAF1000FB8BFCAF1000AD145834648
:104E8C000C46154604DD3A462C4647460D469046E0
:104E9C00BC4205DD2A464546904622463C4617460E
:104EAC003E1BB2B20092A8EB050282EAE271A1EBC2
:104EBC00E271C6F3C03202FA86F64545B4BF012250
:104ECC004FF0FF32019176100292BC421CDCDBF8F1
:104EDC0000200393D145D2F81080C7BF2946224643
:104EEC002A4621465846C047019A039BB61AB1B2CE
:104EFC0036B2002E05DA029A1544009A56182DB2D5
:104F0C0036B2013424B2E0E705B0BDE8F08F2DE9EC
:104F1C00F347BDF82C800768BDF92890CDF80080C8
:104F2C000446FF6916468A461D46B8472368CDF8E5
:104F3C00008009F1FF323244DF6951462B4620468E
:104F4C0012B2B8472368CDF800809F6932464B46B1
:104F5C0051462046B8476B1E03EB0A012368CDF877
:104F6C0028809D6932464B4609B22046AC4602B0B9
:104F7C00BDE8F047604737B5013B13440468BDF802
:104F8C00185001951BB2009364690B46A04703B0FF
:104F9C0030BD37B5BDF818500468CDE90025013B8C
:104FAC000B4464691BB2A04703B030BD2DE9F34735
:104FBC00BDF92890BDF82C80054692460C46CE18BB
:104FCC00B4420BDA2B68CDF800809F6921464B4622
:104FDC00524628460134B84724B2F1E702B0BDE886
:104FEC00F08713B502680191B0F90E100091546A64
:104FFC00B0F90C3000221146A04702B010BD70472A
:10500C0030B54281C2814FF0FF320024054D426120
:10501C0001224460056001818181046102838276F2
:10502C0030BD00BF18870B002DE9F04F2DED028B22
:10503C008DB007460491BDF860100591BDF8641061
:10504C000691B0F90C1004989DF86850814252DD1D
:10505C00B7F90E1091424EDD062111FB0504002C10
:10506C0049DD02EBC504002C45DD03EB83030B93F8
:10507C0093B2079308339BB2089100240993052C33
:10508C001CBF2C4B0B9A079E16BF1B1900239B5C55
:10509C000393049AABB20A9304FB05F313FA82F35D
:1050AC001BB204EB020A08EE103AB0460FFA85F96F
:1050BC000FFA8AFA039BDB072FD5012D3B681FD112
:1050CC00D3F810B0059B32B251463846D847039BF3
:1050DC005B0803930A9B01369844099BB6B2B34212
:1050EC001FFA88F8E6D1089B013B013413F0FF034B
:1050FC0064B20893C3D10DB0BDEC028BBDE8F08F48
:10510C00059ACDE9009218EE101AD3F824B00FFAD4
:10511C0088F24B463846D847D9E7DDE90523934258
:10512C00D5D0012D3B6803D1D3F810B0069BCAE74C
:10513C00069AE6E715820B0030B50A2985B00446BD
:10514C0007D1027E638A03EBC203638200232382AE
:10515C0021E00D291FD0037E0293C38A0193838A19
:10516C000093B0F912200B46B0F91010FFF75CFF5A
:10517C00207E238A00EB400103EB4103A17E1BB28E
:10518C000246238239B1B4F90C106FF0050505FB0A
:10519C0000118B42D6DC012005B030BD0182428269
:1051AC007047012938BF012101767047C182818285
:1051BC007047407E7047B0F90C007047B0F90E0094
:1051CC0070470000F0B5457EBDF81440022D69D043
:1051DC00032D00F09980012D6CD10589D2432A440E
:1051EC0012B2002A5DDBB0F90850954259DD002956
:1051FC00BEBF5B181BB20021B0F90A00CD18854266
:10520C00C4BF431A1BB2002B4BDDC1F3C400DFF843
:10521C0020C102EBC01211F00701DBB20CEB020053
:10522C001AD0C1F10805404EEDB2AB42775D3FBFDD
:10523C00A5EB030EFF2646FA0EF637401CF802606B
:10524C00012C0CBF3E43BE43AB420CF8026028D38A
:10525C0008390B44DBB28030072B19D9012C4FF0E5
:10526C00FF3518BF0025EDB200F180011A46083A4F
:10527C00D2B2072A01F8805C01F18001F7D8A3F1C2
:10528C000802C2F3C402013200EBC21003F00703A0
:10529C003BB1264AD25C0378012C0CBF13439343D9
:1052AC000370F0BD4589D2432A44CD180189491BAE
:1052BC0012B209B2002AF4DBB0F90A509542F0DDC3
:1052CC000029BEBF5B181BB20021B0F90870CE18C4
:1052DC00BE42C4BF6B1A1BB2002BE2DDD01080257E
:1052EC0010FB05111248014402F007000122824014
:1052FC00012CD2B20B440CD18B42D2D011F8010B41
:10530C00104301F8010CF7E7CD184189491B09B28C
:10531C0067E7D243D2B28B42C3D011F8010B1040D5
:10532C0001F8010CF7E700BF7CE0032074E00320D8
:10533C0084E00320F0B5457EBDF81440022D34D036
:10534C00032D00F09B80012D37D1D5180289521BFB
:10535C0012B20029C0F29180B0F90A508D4240F38C
:10536C008C80002ABEBF9B181BB20022B0F90870BB
:10537C00D618BE42C4BFAB1A1BB2002B7DDDC810C1
:10538C00802510FB05224548024401F0070001214D
:10539C008140012CC9B2134475D19A426DD012F8D8
:1053AC00010B084302F8010CF7E70589C9432944AE
:1053BC00D5184289521B09B212B200295DDBB0F933
:1053CC0008508D4259DD002ABEBF9B181BB200222B
:1053DC00B0F90A00D5188542C4BF831A1BB2002B42
:1053EC004BDDC2F3C400DFF8B4C001EBC01112F006
:1053FC000702DBB20CEB01001AD0C2F10805284EF3
:10540C00EDB2AB42775D3FBFA5EB030EFF2646FA2C
:10541C000EF637401CF80160012C0CBF3E43BE4316
:10542C00AB420CF8016028D3083A1344DBB280304D
:10543C00072B19D9012C4FF0FF3518BF0025EDB201
:10544C0000F180011A46083AD2B2072A01F8805CB2
:10545C0001F18001F7D8A3F10802C2F3C4020132B2
:10546C0000EBC21003F007033BB10E4AD25C037889
:10547C00012C0CBF134393430370F0BD4589C94302
:10548C00294409B265E7C943C9B29A42F5D012F86A
:10549C00010B084002F8010CF7E700BF84E0032081
:1054AC007CE0032074E0032070470000F8B50D1E6B
:1054BC00064614461F462DDBFFF77DFEA84229DD6C
:1054CC00002C27DB3046FFF779FEA04222DD304668
:1054DC00FFF76FFE02281ED0032825D0012804D127
:1054EC003389E2431A442C4615B2002C2246B8BF2D
:1054FC00E21DD210802112FB01550E49012204F04D
:10550C0007044B5702FA04F464B297420CBF2343CE
:10551C00A3434B55F8BD318972890139E4434D1BC6
:10552C0014442DB224B2E0E77389013B5B1B254682
:10553C001CB2DAE784E0032010B524210446FEF700
:10554C00A6FD204610BD000038B5402204460D468D
:10555C008021FFF755FD064B2360FF2384F8213093
:10556C0063774FF6FF73E38384F82050204638BDF1
:10557C0050870B0002484FF48062002102F0F0BA11
:10558C0084E0032007B590F8223043B10191FFF776
:10559C0043FC019903B05DF804EB01F091BA0B46A2
:1055AC00817F407F012203B05DF804EB02F00BB960
:1055BC0038B590F91D30013304460D461DD090F9D5
:1055CC002100012180B202F0D2F894F91F000021D1
:1055DC0080B202F0CCF894F92100002180B202F0E4
:1055EC00C6F829462046FFF7CDFF94F9210001218A
:1055FC00BDE8384080B202F0BAB802F021F994F953
:10560C001B1000F053FF02F01BF9036800219B688C
:10561C00984702F015F9036829469B68984702F0F1
:10562C000FF9BDE8384000F048BF0000F8B5212163
:10563C000446FFF7BDFF00212046FFF7B9FF7F218D
:10564C002046FFF7B5FF22212046FFF7B1FF0021CE
:10565C002046FFF7ADFF07212046FFF7A9FF94F97D
:10566C001D30294F01332AD094F92100012180B239
:10567C0002F07DF894F91F00012180B202F077F856
:10568C0094F92100002180B202F071F8012000F0A1
:10569C009FFB4FF48065013D17F8011B2046ADB20E
:1056AC00FFF770FF002DF6D1012000F091FB94F96B
:1056BC0021000121BDE8F84080B202F058B8002565
:1056CC0002F0BEF894F91B1000F0F0FE02F0B8F8EE
:1056DC00036840219B68984705F11006B6B202F0AA
:1056EC00AFF80368795D9B6898476B1C9DB2AE421E
:1056FC00F5D102F0A5F800F0E0FEB6F5806F00D110
:10570C00F8BD3546DCE700BF84E0032038B590F9DE
:10571C001D300177013304460D46C27600F0C98076
:10572C0090F91F00012180B202F010F894F92100C9
:10573C00012180B202F00AF894F82230002B00F01C
:10574C00A68094F92100012180B202F010F8FFF735
:10575C0063FB012101F01EF9FFF75EFB102101F044
:10576C0089F9FFF759FB002101F028F9FFF754FBE9
:10577C0001F0FCF894F92000012180B201F0E6FF61
:10578C0094F92000012180B201F0F1FF012000F01A
:10579C00E7FD94F92000002180B201F0E8FF0A2017
:1057AC0000F0DEFD94F92000012180B201F0DFFF52
:1057BC002046AE21FFF7FCFE2046D521FFF7F8FE70
:1057CC0020468021FFF7F4FE2046A821FFF7F0FECB
:1057DC0020463F21FFF7ECFE2046D321FFF7E8FEE1
:1057EC0020460021FFF7E4FE20464021FFF7E0FEB3
:1057FC008D212046FFF7DCFE012D0CBF102114215A
:10580C002046FFF7D5FE20462021FFF7D1FE20468B
:10581C000021FFF7CDFE2046A121FFF7C9FE20464F
:10582C00C821FFF7C5FE2046DA21FFF7C1FE20464E
:10583C001221FFF7BDFE81212046FFF7B9FE012D95
:10584C000CBF9F21CF212046FFF7B2FED921204665
:10585C00FFF7AEFE012D0CBF2221F1212046FFF7F0
:10586C00A7FE2046DB21FFF7A3FE20464021FFF7D1
:10587C009FFE2046A421FFF79BFE2046A621FFF7A2
:10588C0097FE2046AF21BDE83840FFF791BE94F952
:10589C001D00012180B201F059FF94F91E00012175
:1058AC0080B201F053FF94F82230002B3FF462AF2A
:1058BC0047E701F0C5FF00F0EFFD5BE738B50446A4
:1058CC00C0680D4608B100F007FDA379062B0CBF8C
:1058DC000420032010FB05F080B2A08000F0F4FC43
:1058EC00E06028B1A288002102F03AF9658038BD49
:1058FC00A0806080FBE710B504460121C07901F05F
:10590C0025FFE079002101F032FF0123237010BD47
:10591C0037B5037805460C461BB1C079002101F060
:10592C0015FF2B78EC715BB1A0B20121019001F055
:10593C000DFF0198002103B0BDE8304001F017BF06
:10594C0003B030BD70B50025044616468371C0E91E
:10595C00035505700572FFF7B1FF20463146FFF77E
:10596C00D7FF204670BD0000C368002B00F0A48157
:10597C002DE9F04F8379023BDBB2042B9CBFBF4A6D
:10598C0052F8234085B0054688BF322400F028FA2F
:10599C002B69C01AA042F9D3B94CAE88D4F80035A3
:1059AC001BB9D4F86035002B7EDBB64CD4F800352F
:1059BC0023B9D4F86035002BC0F26E81B24CD4F808
:1059CC000035002B00F04481EB79B04AB04C1268E2
:1059DC00190102EB0313575CAE495B78D1F8FC203C
:1059EC0042F08072C1F8FC20226803F01F0343EAE6
:1059FC00471301273A432260A988D5F80C80D4F8C4
:105A0C0004909F40002944D04FF0000E72464FF096
:105A1C00A04118F801CB0820802663689B1A462BFE
:105A2C00FBD96268D1F808351CEA060F43EA070374
:105A3C00C1F808352FD063689B1A282BFBD9D1F8F5
:105A4C000C35013843EA07034FEA5606C1F80C350A
:105A5C00E3D1AB880EF1010E1FFA8EFE7345D8D838
:105A6C004FF4307103FB01F163689B1A462BFBD991
:105A7C006368A3EB09098945C0F0E4804FF4967084
:105A8C0000F0A6F9A988D5F80C80D4F80490002968
:105A9C00BAD10A46E8E763689B1A112BCFD8636822
:105AAC009B1A112BF7D9CAE7D4F86435002BBFF633
:105ABC007CAFD4F86835002BBFF677AFD4F86C35D3
:105ACC00002BBFF672AF3601331D1846009300F061
:105ADC00FBFB00283FF478AFAB88002B00F0ED8087
:105AEC00EA68013B12FA83F702F1FF3E002348F209
:105AFC00060248F20D011EF801CF1CF0800F0CBFFE
:105B0C0093468B461CF0400F0CBF16460E461CF0FD
:105B1C00200F0CBF9046884603F10109CDF8088090
:105B2C00019603F102081FFA89F9019E20F813B0BF
:105B3C001FFA88F820F81960029E20F8186003F10B
:105B4C0003081CF0100F1FFA88F80CBF93468B4605
:105B5C0020F818B003F104081CF0080F1FFA88F89D
:105B6C000CBF93468B4620F818B003F105081CF0C7
:105B7C00040F1FFA88F80CBF93468B4620F818B018
:105B8C0003F1080A03F1060807339BB21CF0020F5D
:105B9C001FFA88F80CBF93468B46CDF80CA01CF06E
:105BAC00010F20F818B015BF20F8131020F813209F
:105BBC001FFA8AF3BDF80C3077459CD1591C02337F
:105BCC0089B29BB249005B004FF400474752009AE0
:105BDC00C7522E4B56081F6800221423C4F8042504
:105BEC00C4F80C25C4F80835C4F81425C4F81025DD
:105BFC00C4F82005C4F82465C4F82825C4F82C255D
:105C0C00EB7907EB031C1B010121FE5C9CF80130B6
:105C1C0003F01F0343EA4613C4F86035C4F80015BB
:105C2C00C4F81021A160D4F81031002BFBD0002354
:105C3C004FF0FF32C4F81031C4F80035C4F86025B9
:105C4C0000F04AFB00F0CCF8286105B0BDE8F08FFD
:105C5C00D4F86035002BBFF6B7AED4F86435002B02
:105C6C00BFF6B2AED4F86835002BBFF6ADAED4F8A3
:105C7C006C35002BBFF6A8AE25E700BF80870B0064
:105C8C0000C00140001002400020024030E603201A
:105C9C00001000E000ED00E0D4F86435002BBFF6F6
:105CAC008DAED4F86835002BBFF688AED4F86C35C1
:105CBC00002BBFF683AE06E770470423022183E76F
:105CCC0043888B42F0B52DD9067AC2F30743C2F351
:105CDC000724D5B23EB1734374437543C3F3072312
:105CEC00C4F307242D0A90F806C0C768BCF1060F50
:105CFC000CBF042603264E43ACF1020CB919BCF1BF
:105D0C00060F1DD8DFE80CF0041C08040F04040077
:105D1C00BC554B708D7005E0FE2B28BFFE23BB5588
:105D2C004D708C70F0BDBB554C708D70037A120E9B
:105D3C0013B9D2B2CA70F5E75A43C2F30722F9E796
:105D4C00BB554C70E6E7037A4A1CD2B2934270B54D
:105D5C001FD0013B13F0FF03C4680CD0FF291FBFF9
:105D6C00110201F1FF31B1FBF3F39BB204BF4FF60B
:105D7C00FF71B1FBF3F325468688291B89B28E424D
:105D8C0006D929785943C1F3072105F8011BF3E71C
:105D9C00027270BD8288C068002101F0E1BE000073
:105DAC0008B500F02DF8014B186008BD30E6032053
:105DBC0008B5024B1B685B6C019308BD48020300DD
:105DCC0008B5024B1B685B68019308BD1802030001
:105DDC0008B5024B1B68DB68019308BD1802030071
:105DEC0008B5024B1B681B69019308BD1802030020
:105DFC0008B5024B1B685B69019308BD18020300D0
:105E0C0008B5024B1B681B68019308BD2C020300EC
:105E1C0008B5024B1B689B68019308BD2C0203005C
:105E2C0008B5024B1B68DB68019308BD2C0203000C
:105E3C0008B5024B1B681B69019308BD2C020300BB
:105E4C0008B5024B1B685B69019308BD2C0203006B
:105E5C0008B5024B1B689B69019308BD2C0203001B
:105E6C0008B5024B1B68DB69019308BD2C020300CB
:105E7C0008B5024B1B681B6A019308BD2C0203007A
:105E8C0008B5024B1B685B6A019308BD2C0203002A
:105E9C0008B5024B1B68DB68019308BD28020300A0
:105EAC0008B5024B1B689B69019308BD28020300CF
:105EBC0008B5024B1B68DB69019308BD280203007F
:105ECC0008B5024B1B681B6A019308BD280203002E
:105EDC0008B5024B1B685B6A019308BD28020300DE
:105EEC0008B5024B1B689B6A019308BD280203008E
:105EFC0008B5024B1B68DB6A019308BD280203003E
:105F0C0008B5024B1B681B6B019308BD28020300EC
:105F1C0008B5024B1B685B6B019308BD280203009C
:105F2C0008B5024B1B681B6C019308BD28020300CB
:105F3C0008B5024B1B685B69019308BD6C0203003A
:105F4C0008B5024B1B685B69019308BD6402030032
:105F5C0008B5024B1B681B6A019308BD6402030061
:105F6C0008B5024B1B689B6A019308BD64020300D1
:105F7C0008B5024B1B689B68019308BD68020300BF
:105F8C0008B5024B1B68DB68019308BD680203006F
:105F9C0008B5024B1B689B69019308BD38020300CE
:105FAC0008B5024B1B68DB69019308BD380203007E
:105FBC0008B5024B1B681B6A019308BD380203002D
:105FCC0008B5024B1B689B6A019308BD380203009D
:105FDC0008B5024B1B681B6B019308BD380203000C
:105FEC0008B5024B1B689B6B019308BD380203007C
:105FFC0008B5024B1B681B68019308BD30020300F7
:10600C0008B5024B1B689B68019308BD3002030066
:10601C0008B5024B1B68DB68019308BD3002030016
:10602C0008B5024B1B681B69019308BD30020300C5
:10603C0008B5024B1B685B69019308BD3002030075
:10604C0008B5024B1B68DB69019308BD30020300E5
:10605C0008B5024B1B681B6A019308BD3002030094
:10606C0008B5024B1B685B6A019308BD3002030044
:10607C0008B5024B1B681B6C019308BD3002030072
:10608C0008B5024B1B685B6C019308BD3002030022
:10609C0008B5024B1B68DB68019308BD3C0203008A
:1060AC0008B5024B1B681B69019308BD3C02030039
:1060BC0008B5024B1B685B69019308BD3C020300E9
:1060CC0008B5024B1B689B69019308BD3C02030099
:1060DC0008B5024B1B68DB69019308BD3C02030049
:1060EC0008B5024B1B681B6A019308BD3C020300F8
:1060FC0008B5024B1B689B6A019308BD3C02030068
:10610C0008B5024B1B681B6C019308BD3C020300D5
:10611C0008B5024B1B681B68019308BD4C020300B9
:10612C0008B5024B1B685B68019308BD4C02030069
:10613C0008B5024B1B681B69019308BD4C02030098
:10614C0008B5024B1B685B69019308BD4C02030048
:10615C0008B5024B1B689B69019308BD4C020300F8
:10616C0008B5024B1B68DB69019308BD4C020300A8
:10617C0008B5024B1B681B6A019308BD4C02030057
:10618C0008B5024B1B685B6B019308BD60020300F2
:10619C0008B5024B1B681B6D019308BD6002030020
:1061AC0008B5024B1B685B68019308BD2002030015
:1061BC0008B5024B1B685B69019308BD2002030004
:1061CC0008B5034B1B68D3F88830019308BD000059
:1061DC002002030008B5034B1B68D3F894300193DD
:1061EC0008BD00002002030008B5024B1B68DB6BE6
:1061FC00019308BD4402030008B5024B1B685B68A1
:10620C00019308BD4002030008B5024B1B689B6854
:10621C00019308BD4002030008B5024B1B68DB6804
:10622C00019308BD4002030008B5024B1B681B69B3
:10623C00019308BD4002030008B5024B1B685B6963
:10624C00019308BD4002030008B5024B1B689B6913
:10625C00019308BD4002030008B5024B1B68DB69C3
:10626C00019308BD4002030008B5024B1B681B6A72
:10627C00019308BD4002030008B5024B1B689B6AE2
:10628C00019308BD4002030008B5024B1B681B6B51
:10629C00019308BD4002030008B5024B1B685B6B01
:1062AC00019308BD4002030008B5024B1B681B6C30
:1062BC00019308BD4002030008B5024B1B685B6CE0
:1062CC00019308BD4002030008B5024B1B681B6814
:1062DC00019308BD1C02030008B5024B1B685B68E8
:1062EC00019308BD1C02030008B5024B1B689B6898
:1062FC00019308BD1C02030008B5024B1B685B6AC6
:10630C00019308BD1C02030008B5024B1B68DB6A35
:10631C00019308BD1C02030008B5024B1B68DB6B24
:10632C00019308BD1C02030008B5024B1B681B6CD3
:10633C00019308BD1C02030008B5024B1B685B6C83
:10634C00019308BD1C0203008A4210B507D0441A01
:10635C000298C01A4443501A94FBF0F0184410BD34
:10636C000021FFF725BF10B58368044613B1032243
:10637C0001469847204610BD024800230360FFF7F2
:10638C0017BD00BF34E60320002240681146FFF71A
:10639C006BBF002240681146FFF77EBF40680022A9
:1063AC00FFF772BF4068002281F00101FFF754BF74
:1063BC00002340681A461946FFF746BF0023406881
:1063CC001A461946FFF738BF002240681146FFF7FE
:1063DC002BBF002240681146FFF716BF4068002211
:1063EC000221FFF719BF002340681A46FFF704BFCC
:1063FC00024B03225A60024A1A60704738E60320A7
:10640C00A4870B007047F8B5064615460C468F1846
:10641C00BC4206D0336814F8011B9B683046984781
:10642C00F6E72846F8BD007C0022FFF749BD007C4A
:10643C000021FFF74DBD007C0021FFF751BD007C12
:10644C000021FFF755BD007C0021FFF759BD10B5A9
:10645C0014210446FDF71BFE204610BD38B504463A
:10646C0015464FF47A730022C4E90123094B2174B9
:10647C00084623602946FFF753FDBF3008D16B69EE
:10648C00DB0705D56868FFF727FFE868FFF724FFEF
:10649C00204638BDE0870B000023007C1A461946C5
:1064AC00FFF7F6BC007C0022FFF7FABCC9B2FFF77D
:1064BC00F9BF007C0022FFF7FBBC0121FFF7F9BFFD
:1064CC00826810B50AB901F021FABDE81040C36822
:1064DC0018470000F8B5104F57F8204006460D46F7
:1064EC0034B12046FFF73FFF10212046FDF7CFFDCA
:1064FC001020FDF7C8FD044650B100238360AB6843
:10650C0033B1022229469847EB68E360AB68A3607D
:10651C0047F826402046F8BD40E60320F0B587B08A
:10652C000546039117461E46FFF79AFC0399284629
:10653C00FFF7D0FF0446E8B100218E424FF0040370
:10654C00ADF815108DF817108DF81430A2BF05A9F1
:10655C009DF830308DF81630009102460749A8BFDF
:10656C008DF815603B462846FFF772FC10B10020F1
:10657C0007B0F0BD201E18BF0120F9E7CD640B0059
:10658C00FFF77EBCFFF774BC704710B518210446AA
:10659C00FDF77DFD204610BDF0B5037D062B8DB0BB
:1065AC000E4600F104074FF0000412D000F108056C
:1065BC0015F8011D0A22304600F073F9AF4204446D
:1065CC0019D0002CF4D02E21304600F051F904449F
:1065DC00EEE72F236A4639460A208DF80040FFF774
:1065EC00AFFC684601F004FB33680246DB68694681
:1065FC0030469847044620460DB0F0BD10B5054B0B
:10660C000446112240F8043B002101F0A9FA20466F
:10661C0010BD00BF08880B000346074A10B543F8AD
:10662C00042B01F1100251F8044B43F8044B914236
:10663C00F9D10A781A7010BD08880B00037D042B61
:10664C0004D14068003818BF01207047062B07D1D1
:10665C0043683BB983682BB9C3681BB90069F1E780
:10666C00002070470120704710B59DF8084044EA9F
:10667C00032343EA024242EA0161042341600375A9
:10668C0010BD000007B5064B0360CB7800938B78E8
:10669C004A780978FFF7E8FF03B05DF804FB00BF08
:1066AC0008880B00014B024A1A607047D0E60320A1
:1066BC0014880B00002340681A46FFF79DBD406804
:1066CC0000220221FFF7A8BD002240681146FFF707
:1066DC009BBD002240681146FFF7A6BD0023406811
:1066EC001A461946FFF7A8BD002340681A461946FA
:1066FC00FFF7AABD40680021FFF7D6BD4068002116
:10670C00FFF7DABD4068002281F00101FFF7A4BD5C
:10671C0040680022FFF7B8BD002240681146FFF721
:10672C00BBBD002240681146FFF79EBD2DE9F0432A
:10673C0095B014460D460746FFF760FF00211C225A
:10674C000DA8009101F00CFA40230C9320466B46E7
:10675C000CAA0021FFF714FC044600284BD102467A
:10676C0001216868FFF760FD0221804622466868B7
:10677C00FFF75AFD009E81462146002E3BD0002992
:10678C0039D17368022B03D00A2B11D0F669F4E7C8
:10679C00B8F1000FFAD0716906A8043107ADFFF704
:1067AC0071FF0FCD3C1D0FC42B6823704146EDE7E4
:1067BC00B9F1000FEAD07469102201A801F0D0F9E8
:1067CC0006238DF8143001AD04F108031834186851
:1067DC0059682A4603C20833A3421546F7D101A9CA
:1067EC0006A807ADFFF718FF0FCD3C1D0FC42B6893
:1067FC0023704946CAE70098FFF7BAFB384615B034
:10680C00BDE8F083024B034A1A6000225A607047BD
:10681C00D4E6032020880B00F8B506460D468F18E9
:10682C000024BD420CD0336815F8011B9B68304620
:10683C009847031E01DB1C44F3E7002C08BF1C46E1
:10684C002046F8BD13B50446084659B1019101F034
:10685C00CFF923680199DB680246204602B0BDE8F7
:10686C001040184702B010BD08B5FFF7EBFF08BD8C
:10687C0003689B68184738B50D210546FFF7F8FFEC
:10688C000A2104462846FFF7F3FF204438BD38B5EB
:10689C000546FFF7D7FF04462846FFF7ECFF2044D8
:1068AC0038BD30B58BB00023012A8DF8243098BF49
:1068BC000A2209AC0D46B1FBF2F101FB125303F0B5
:1068CC00FF03092B94BF30333733DBB2AA4204F8F1
:1068DC00013DEFD92146FFF7B5FF0BB030BD2DE9D7
:1068EC00F04186B000AF05460E46381D1421144603
:1068FC003B60FFF701FD13280ED8391D2846FFF722
:10690C00A1FF04461EB12846FFF7B5FF04442046FC
:10691C001837BD46BDE8F08100F1080323F00703EA
:10692C00E846ADEB030D2246411C3B686846FFF779
:10693C00E3FC69462846FFF785FF0446C546E1E7B8
:10694C00014B00229A607047DCE603200021FFF720
:10695C0097BB0021FFF78CBB10B50446084621708D
:10696C00FFF76EFB00236360204610BD13B5044691
:10697C000078FFF7EEFF58B9207801904FF6FF71C1
:10698C00FFF736FB019802B0BDE81040FFF7DEBF01
:10699C0002B010BD13B5044600780191FFF7D9FF82
:1069AC00019948B920780190FFF72AFB019802B0B1
:1069BC00BDE81040FFF7CABF02B010BD13B50446C6
:1069CC0000780191FFF7C5FF019948B92078019033
:1069DC00FFF71EFB019802B0BDE81040FFF7B6BFF1
:1069EC0002B010BD400830B5186000241868884209
:1069FC00E5B206D90134082C02D040081860F5E73E
:106A0C000725024B5B5D137030BD00BF54880B0033
:106A1C002DE9F04188B000230446007802930E461D
:106A2C001746FFF796FF054600BB94F80080014619
:106A3C00142203A801F094F80B232A4603A940461C
:106A4C00ADF80C30FFF70CFB04988DF8075002AB37
:106A5C000DF1070207FB06F1FFF7C4FF20789DF844
:106A6C000710FFF7DDFA2078FFF770FF029808B0E7
:106A7C00BDE8F08138B5044600780D46FFF769FF94
:106A8C000346D0B9616899B10C4A12F8010B8542E2
:106A9C0002D00133082BF8D10133DBB20122D940EB
:106AAC002046FFF7B5FF2078BDE83840FFF74EBF12
:106ABC0020782946FFF7B4FAF5E738BD54880B0067
:106ACC0008B50078FFF7B4FAC0B208BD10B504469B
:106ADC00FFF78EF9E060236820465B699847002831
:106AEC0008DAFFF785F9E368C01AA3689842F2D375
:106AFC004FF0FF3010BD000038B50D460749044675
:106B0C0000F059F82846FFF7E1FF002804DBC1B27A
:106B1C00204600F0CBF8F5E7204638BD18810B0075
:106B2C0010B504460068FFF7D7FB204610BD10B522
:106B3C000446006808B1FFF7CFFB0023C4E901331A
:106B4C00236010BD38B504460D4600680131FFF7CF
:106B5C00CBFB10B1C4E90005012038BD10B50368AA
:106B6C00044623B143688B4201D3012010BD20465B
:106B7C00FFF7E8FF0028F9D0A368002BF5D12268B5
:106B8C001370F2E737B50D46114601920446FFF734
:106B9C00E5FF019A28B92046FFF7C9FF204603B04C
:106BAC0030BDA2602946206800F0CCFF2268A368A3
:106BBC000021D154F2E7002313B5C0E90033044699
:106BCC008360037341B10846019101F011F80199FA
:106BDC0002462046FFF7D6FF204602B010BD884281
:106BEC0010B5044605D00B682BB18A681946FFF71F
:106BFC00C9FF204610BDFFF79AFFFAE710B5002336
:106C0C000446C0E9003383600373FFF7E8FF2046B6
:106C1C0010BD13B5044659B10846019100F0E8FFC8
:106C2C00019902462046FFF7ADFF204602B010BD89
:106C3C00FFF77DFFF9E710B504468AB00023C4E9DD
:106C4C000033A3602373084601A900F08FFC01A94F
:106C5C002046FFF7DEFF20460AB010BD70B5054692
:106C6C000E4609B9002070BD6AB1846814442146EF
:106C7C00FFF774FF0028F5D02868AB68314618443C
:106C8C0000F0AEFFAC600120EDE713B504460846FA
:106C9C0051B1019100F0ACFF01990246204602B0BF
:106CAC00BDE81040FFF7DABF02B010BD07B50023F6
:106CBC008DF80410012201A98DF80530FFF7CEFFE5
:106CCC0003B05DF804FB10B58A6809680446FFF749
:106CDC00C5FF10B92046FFF72AFF204610BD13B59B
:106CEC00044629B92046FFF722FF204602B010BD0A
:106CFC000846019100F07CFF019902462046FFF7FF
:106D0C00ADFF0028EED0F0E7054B02221A60054BD0
:106D1C00054A9A600020C3E90000FFF741BA00BFA2
:106D2C00F8E60320ECE603200000FFFF13B5036830
:106D3C008DF80710DC6B01224FF0FF330DF10701CA
:106D4C00A04702B010BD10B40368DC6B4FF0FF33EA
:106D5C00A4465DF8044B604713B5134602688DF8E2
:106D6C000710D46B0DF107010122A04702B010BD32
:106D7C0010B54369B3F88620B3F884309A420446C0
:106D8C0008D06369B3F88420511CA3F88410134411
:106D9C00187910BD03681B6998470028F1D14FF092
:106DAC00FF30F6E7704743691868C043C00F70475F
:106DBC0070470000064B994210B500F10C0405D049
:106DCC00084600F0A7FD002808BF0024204610BD8F
:106DDC0094870B0010B5AC210446FDF758F92046FA
:106DEC0010BDAC21FDF753B92DE9F0414FF000086F
:106DFC0086B01C46C0F8048005460E461746414630
:106E0C00102202A800F0ACFE631C09D04FF47A7378
:106E1C00B4FBF3F203FB1244CDE902285C43049467
:106E2C00686910230093006802AB41F2050240F63A
:106E3C00FF71FFF7ADF8002807DAFFF76DFA03686A
:106E4C006B60002006B0BDE8F08168690023006823
:106E5C003A463146FFF7BCF8031EEEDB1846F1E765
:106E6C0030B587B0044601AD6846FFF70BFC0FCD7B
:106E7C0004340FC42B68237007B030BD70B54D6956
:106E8C00054B04468C3544F8043B06460FCD0FC425
:106E9C002B682370304670BD08880B002DE9F04339
:106EAC009846036893B00D460024DB6A06461746E5
:106EBC00984728466B46224621460094FFF760F817
:106ECC000546002863D1009B002B4BD05B69002B3F
:106EDC0048D006A8FFF792FB009B5C696378022BF5
:106EEC0004D1211D06A8FFF7BBFF26E00A2B24D1F5
:106EFC001122294601A800F033FEA368002B38D0DC
:106F0C0004F108030DF1040C183418685968624632
:106F1C0003C20833A3429446F7D1062301A90CA857
:106F2C008DF81430FFF778FB0DF1340CBCE80F0032
:106F3C0007AC0FC4DCF80030237006A8FFF77EFB0B
:106F4C0080B1336807ADD3F82090124B0C930FCD62
:106F5C000DAC0FC42B6823703A4643460CA930463F
:106F6C00C84705460098FFF703F8284613B0BDE85C
:106F7C00F083E368002BC3D14FF6FF70D4F8109068
:106F8C00FEF7E6FF8145BBD104F11401AAE72546C3
:106F9C00E8E700BF08880B0038B543691A68002A77
:106FAC00054610DAB3F88620B3F884309A420AD139
:106FBC0003681B699847044628B92B682846DB6A86
:106FCC009847204638BD0120FCE710B54369B3F85B
:106FDC008620B3F884309A42044605D06369B3F82E
:106FEC0084201344187910BD03681B699847002846
:106FFC00F4D14FF0FF30F6E7F8B543691746B3F814
:10700C008620B3F884309A4205460E4616D069693C
:10701C00B1F88430B1F88640E41ABC4228BF3C4633
:10702C00043322461944304600F08CFD6A69B2F8EC
:10703C0084302344A2F884302046F8BD03681B69D1
:10704C0098470028E3D14FF0FF34F5E7426900235D
:10705C00A2F884304269A2F8863070472DE9F041DD
:10706C001F4603680C46DB6A8AB0054616469847ED
:10707C00237DD5F81480042B0CBF02200A20062295
:10708C000121FEF7ADFFC8F800006B691B68002BEF
:10709C0008DA2B682846DB6A0024984720460AB099
:1070AC00BDE8F0812846FFF7D1FFB7B1002303A953
:1070BC00F8B20393ADF81030FEF73AFF0028E8D190
:1070CC00686906230093006803AB41F20B0240F69B
:1070DC00FF71FEF75DFF0028DBD11C22002103A805
:1070EC0000F03EFD237D042B1DD14FF40773304679
:1070FC00ADF80C30FEF734FFADF80E006068FEF70B
:10710C0027FF04906B691C22186803A9FEF750FF37
:10711C000028BED104340FCC6D698C350FC52368A3
:10712C002B700124BAE740F61C233046ADF80C3026
:10713C00FEF716FF05AEADF80E00231D04F1140783
:10714C0018685968324603C20833BB421646F7D159
:10715C00D8E7000030B54269B2F886308BB00446EF
:10716C002BB1B2F884209A4201D1FFF76FFF61690D
:10717C000868002818DBB1F886507F2D14D804312C
:10718C000823C5F180022944FEF71AFF002813DDFD
:10719C006369B3F886200AB9A3F884206369B3F84D
:1071AC0086201044A3F886006369B3F88600B3F810
:1071BC008430C01A0BB030BDFFF7AEF803680B2B50
:1071CC00F2D0FFF7A9F803680B2BEDD02023002594
:1071DC00CDE90235FFF7A0F803680193084B094984
:1071EC00009302AA2B463220FEF7D2FF636918687F
:1071FC00FEF7D6FE63694FF0FF321A60D4E700BF8A
:10720C0063880B005C880B0010B543690446186852
:10721C00002801DBFEF7C4FE63694FF0FF321A60F1
:10722C006069112200218C3000F09AFC2046BDE8E8
:10723C001040FFF70BBF10B5002304460160C0F8E7
:10724C0084308830FFF7DAF9204610BD73B500237F
:10725C004FF47A72C0E901320E4A03610260436155
:10726C000446AC200191FCF70EFF051E05F10C063F
:10727C0008D00123C5E90133074B01992B60304637
:10728C00FFF7D9FF2046C4E90565FFF7DFFE02B022
:10729C0070BD00BF98880B007C880B0010B54FF0B8
:1072AC00FF310446FFF7D2FF204610BD10B504464F
:1072BC000068002801DBFEF773FE204610BD0C3081
:1072CC00FFF7F4BF024B1A68024B1A60704700BFFD
:1072DC0084E40320FCE6032070474174704708B532
:1072EC00007CFEF705FF20EAE07008BD08B5007CC5
:1072FC00FEF7D6FE20EAE07008BD08B5007CFEF76C
:10730C00DFFE40EAE07008BD08B5007CFEF7D0FE59
:10731C0040EAE07008BD007CFEF7DABE37B5457C6C
:10732C0004462DB1207C03B0BDE83040FEF7B0BE62
:10733C00007C0191FEF7DCFE00280199F2DC284666
:10734C0003B030BD10B514210446FCF7A0FE204656
:10735C0010BD000010B54FF47A7304460846114670
:10736C000022C4E90123044B2360012320746374BD
:10737C00FEF7C6FE204610BD00890B004174704715
:10738C007047704708B50021007CFEF7E1FE40EA2B
:10739C00E07008BD08B50121007CFEF7D9FE40EA7B
:1073AC00E07008BD08B5007CFEF7CAFE20EAE0706C
:1073BC0008BD08B5007CFEF7BBFE20EAE07008BDF6
:1073CC0013B50446007C0191FEF7BAFE0028019922
:1073DC0001DC607C20B1207CFEF7C2FE20EAE0706C
:1073EC0002B010BD007CFEF7C3BE10B514210446DC
:1073FC00FCF74DFE204610BD10B54FF47A730446D1
:10740C0008460021C4E90113044B236001232074B6
:10741C0063741146FEF77CFE204610BD30890B00CC
:10742C00007C0022FEF77CBE10B51422044600211D
:10743C0000F096FB204610BD10B50F4C88B003A889
:10744C00FFF7F2FF2178BFF35B8F11F001010FD131
:10745C0020460191FCF72AFE019948B103AA07487E
:10746C00FFF7CAFF2046FCF726FE054800F064FB38
:10747C00024808B010BD00BF00E7032004E703205A
:10748C008D730B00002240681146FEF7CDBE002222
:10749C0040681146FEF7E8BE002240681146FEF730
:1074AC00FBBE40680022FEF7EFBE4068002281F070
:1074BC000101FEF7D1BE002340681A461946FEF7BB
:1074CC00C3BE002340681A461946FEF7B5BE00221B
:1074DC0040681146FEF798BE406800220221FEF774
:1074EC009BBE002340681A46FEF786BE024B042260
:1074FC005A60024A1A60704718E7032060890B0033
:10750C0010B5044600F074FB013823182046834262
:10751C0006D90278197800F8011B03F80129F6E75F
:10752C0010BD70B50C46911E22291DD8254630B9C8
:10753C00234430229D4210D205F8012BFAE7B0FB10
:10754C00F2F602FB1600C1B2092894BF3031573154
:10755C00C9B205F8011B3046E9E7002320462B7021
:10756C00FFF7CEFF204670BD0020FCE738B5031EA8
:10757C000C4615460EDAB3F1004F4FF02D0214BF36
:10758C005842184601230A702A461944FFF7C9FFCE
:10759C00204638BD0123F9E7014B1860704700BF46
:1075AC0088E4032008B50B4B43B1FFF745FF036894
:1075BC001B699847002801DDAFF30080064B43B1EF
:1075CC0000F07EF903681B699847002801DDAFF3D2
:1075DC00008008BD000000000000000008B5FFF7A7
:1075EC00E1FFFEF705FC014B186008BD28E70320FE
:1075FC000548064A064908B5121A00F0A3FA054BCD
:10760C00054A1A6008BD00BF00F4032004F40320EF
:10761C00548B0B0000F403201E1C279A07B5002383
:10762C0000931A466FF07701FEF7D4FD03B05DF8B6
:10763C0004FB000007B543880A2B08D0502B0BD154
:10764C00094B1B684BB103B05DF804EB1847FFF70F
:10765C00E5FF03B05DF804FB002300931A466FF0BE
:10766C007701FEF7B7FDF4E724E7032010B51248C5
:10767C000021FEF761FE114B1A68114B9A42114B17
:10768C000CBF012200221A7001D0FFF7B1FFFEF7E8
:10769C0097FB044600F06CFA0B4B13B12046AFF38A
:1076AC00008000210848FEF79FFDBDE81040074808
:1076BC000021FEF785BD00BFA5750B0000F403206B
:1076CC001E1C279A20E703200000000041760B00C7
:1076DC00232813B502D9002002B010BDA0F10B0372
:1076EC00022B1AD8174C2178BFF35B8F11F00101D4
:1076FC000BD120460191FCF7D9FC019928B1124815
:10770C00FFF72AF92046FCF7D6FC0F4B1878FEF74A
:10771C009FFC0028DFD10120DEE7012809D800F00A
:10772C008FF80021007CFEF7F3FB80F00100C0B263
:10773C00D2E709380128EED800F0C2F8007CFEF739
:10774C00CFFCF2E724E6032028E60320232838B5F3
:10775C0004460D460AD8FF2908D0FFF7B9FF28B117
:10776C0029462046BDE83840FEF752BB38BD38B537
:10777C0004460D46FEF754FBFF2810D0062804D80B
:10778C004D2323FA00F0C30709D42046FFF7A0FFCE
:10779C0028B129462046BDE83840FEF749BB38BD24
:1077AC0010B50446FEF73CFB031FDBB2012B08D9D6
:1077BC002046FFF78DFF20B12046BDE81040FEF7B4
:1077CC003FBB002010BD2DE9F04190461F46072419
:1077DC0006460D46C4F10701B8F1000F12D147FA65
:1077EC0001F101F001013046FFF7C1FF01212846EC
:1077FC00FFF7BDFF00212846FFF7B9FF013CE9D296
:10780C00BDE8F08147FA04F1EBE7704738B50A4B55
:10781C0003600123044643610849202000F074F8FA
:10782C00202560600549A560284600F06DF8C4E984
:10783C000305204638BD00BF1800010094890B00D9
:10784C0030B50E4D2978BFF35B8F11F0010487B072
:10785C0011D12846FCF72AFC68B16846FFF7D6FF21
:10786C006A4621460648FEF7F9FD2846FCF723FC3C
:10787C00044800F061F9024807B030BD2CE7032042
:10788C0030E7032017780B007047000038B504462A
:10789C0014252A46002100F063F92580402507496C
:1078AC0025812846258200F02FF80449606028467F
:1078BC0000F02AF8E060204638BD00BF94890B0028
:1078CC0030B50E4D2978BFF35B8F11F0010487B0F2
:1078DC0011D12846FCF7EAFB68B101A8FFF7D6FFE7
:1078EC0001AA21460648FFF735FD2846FCF7E3FBC5
:1078FC00044800F021F9024807B030BD44E70320EA
:10790C0048E7032095780B00FCF7BFBB08B5FEF7E2
:10791C00FBFC0000014900F0F9B800BFB0890B0076
:10792C007FB500241023CDE90234036815469E6907
:10793C0012686B46CDE90044B0479DF8043003F063
:10794C000603062B03BF009B2B600120204604B0CE
:10795C0070BD0098904214BF0120062070470000B3
:10796C0010B5034B0360044600F0CDF8204610BD63
:10797C00F0890B0010B50446FFF7F2FF20460821F2
:10798C00FCF785FB204610BD2DE9F0411F46DDE9D3
:10799C000834DDF8188098450646154607D1079936
:1079AC0000F0B4F818B165710020BDE8F0813946DB
:1079BC00304600F0ABF80028F6D00123C4F8008064
:1079CC002571A371F0E738B515461C4600F09EF8FA
:1079DC0020B10823E36006232560237138BD73B5FD
:1079EC0005460C4601921E4600F090F850B9032E45
:1079FC0008D82368019A5B692946204602B0BDE885
:107A0C007040184702B070BD10B5034B03600446BC
:107A1C00FFF7A6FF204610BD508A0B0010B5044698
:107A2C00FFF7F2FF20460C21FCF731FB204610BD7E
:107A3C00F7B5089F974205460E4614460AD0A8682B
:107A4C0002680897156A31462246AC4603B0BDE879
:107A5C00F04060471946019300F058F8019B00284C
:107A6C00EDD0062003B0F0BD2DE9F14F0D461946BF
:107A7C00DDE90A4BDDE90CA681461746984600F075
:107A8C0045F890B1002D3460377109DB61198A45D6
:107A9C000CBF06210121B171002001B0BDE8F08FAF
:107AAC000235F9D10123B371F6E7544506D1594695
:107ABC00484600F02BF808B17771EDE7D9F80800CB
:107ACC000368CDE90CA6CDE90A4BDC693A4643467E
:107ADC002946A44601B0BDE8F04F60472DE9F041BE
:107AEC0007460C4615461E46FFF76DFF48B9B868A9
:107AFC0003689F692A4633462146BC46BDE8F041DF
:107B0C006047BDE8F081704700207047814208B59E
:107B1C000ED0406803782A2B0CD049680B782A2B9E
:107B2C0008BF013100F052F8B0FA80F0400908BDEE
:107B3C000120FCE70020FAE7002301461A4618460C
:107B4C0000F05EB80A44914200F1FF3300D1704757
:107B5C0010B511F8014B03F8014F9142F9D110BD4A
:107B6C0002440346934200D1704703F8011BF9E726
:107B7C0038B5104B1D68AB6B0446B3B91820FEF733
:107B8C00A3FB0246A86320B90B4B0C484221FEF71D
:107B9C00CBFB0B490B4BC0E900130B4B83600B2346
:107BAC00838100210120C2E90401AB6B00221C611E
:107BBC005A6138BD88E40320898A0B00A08A0B0027
:107BCC000E33CDAB34126DE6ECDE050010F8012B54
:107BDC0011F8013B012A28BF9A42F7D0D01A7047FE
:107BEC00034611F8012B03F8012B002AF9D1704739
:107BFC00034613F8012B002AFBD1181A01387047E1
:107C0C002DE9F843DFF8B8800646D8F800001F4687
:107C1C000D46914600F056F8254B1C6834B9254C9E
:107C2C001C60254B13B11B68C4F8883063681F2B8C
:107C3C0007DDD8F8000000F047F84FF0FF30BDE842
:107C4C00F8834EB3D4F8880088B91C4B23B9D8F804
:107C5C00000000F038F8F0E74FF48470FEF734FBC6
:107C6C000028F4D00023C0E94033C4F888006368CE
:107C7C0040F8239001229A4000EB8301D0F80031A8
:107C8C001343C0F80031022EC1F8807002BFD0F847
:107C9C0004311343C0F804316368D8F800005A1C4F
:107CAC000233626044F8235000F00EF80020C6E75F
:107CBC00E8E703205CE7032000000000D5620B001E
:107CCC00ECE4032070477047704700001D400B0028
:107CDC0059400B0081400B0085400B000000000058
:107CEC0043616C6C206F6E207075726520766972C2
:107CFC007475616C00417373657274696F6E466163
:107D0C00696C757265202A705F70696E203C202842
:107D1C003332202B20313629004E6F204368616EA0
:107D2C006765202D2043616E63656C6C696E6720FE
:107D3C00434D440A007B226F6E223A747275652C97
:107D4C0022736174223A002C22627269223A002C4E
:107D5C0022687565223A007B226F6E223A66616C4E
:107D6C0073657D0053656E64696E6720436F6D6D3E
:107D7C00616E6420746F2048756500505554202F37
:107D8C006170692F002F6C69676874732F002F73F3
:107D9C007461746520485454502F312E3100486F53
:107DAC0073743A2000436F6E74656E742D4C656E5F
:107DBC006774683A2000436F6E74656E742D547945
:107DCC0070653A20746578742F706C61696E3B63D2
:107DDC006861727365743D5554462D380046726F58
:107DEC006D20487565005377697463684F4E202584
:107DFC0069200A003C3F786D6C2076657273696F60
:107E0C006E3D22312E302220656E636F64696E6781
:107E1C003D227574662D38223F3E3C733A456E7692
:107E2C00656C6F706520786D6C6E733A733D22686B
:107E3C007474703A2F2F736368656D61732E786D4F
:107E4C006C736F61702E6F72672F736F61702F651B
:107E5C006E76656C6F70652F2220733A656E636F5A
:107E6C0064696E675374796C653D22687474703AFA
:107E7C002F2F736368656D61732E786D6C736F61F2
:107E8C00702E6F72672F736F61702F656E636F64E6
:107E9C00696E672F223E3C733A426F64793E3C75A3
:107EAC003A53657442696E617279537461746520DA
:107EBC00786D6C6E733A753D2275726E3A42656CD4
:107ECC006B696E3A736572766963653A6261736960
:107EDC00636576656E743A31223E3C42696E61721E
:107EEC007953746174653E313C2F42696E617279CD
:107EFC0053746174653E3C2F753A53657442696ED8
:107F0C0061727953746174653E3C2F733A426F64AD
:107F1C00793E3C2F733A456E76656C6F70653E000A
:107F2C00504F5354202F75706E702F636F6E747298
:107F3C006F6C2F62617369636576656E743120486E
:107F4C005454502F312E3100436F6E74656E742D66
:107F5C00547970653A20746578742F786D6C3B2079
:107F6C00636861727365743D7574662D3800534F88
:107F7C004150414354494F4E3A202275726E3A4259
:107F8C00656C6B696E3A736572766963653A6261AA
:107F9C007369636576656E743A312353657442690F
:107FAC006E61727953746174652200436F6E6E65F5
:107FBC006374696F6E3A206B6565702D616C6976C0
:107FCC0065007377697463684F4646202569200AFB
:107FDC00003C3F786D6C2076657273696F6E3D2244
:107FEC00312E302220656E636F64696E673D227599
:107FFC0074662D38223F3E3C733A456E76656C6F45
:10800C00706520786D6C6E733A733D226874747071
:10801C003A2F2F736368656D61732E786D6C736F77
:10802C0061702E6F72672F736F61702F656E76653E
:10803C006C6F70652F2220733A656E636F64696E86
:10804C00675374796C653D22687474703A2F2F7382
:10805C006368656D61732E786D6C736F61702E6FD4
:10806C0072672F736F61702F656E636F64696E67D3
:10807C002F223E3C733A426F64793E3C753A53650D
:10808C007442696E617279537461746520786D6C99
:10809C006E733A753D2275726E3A42656C6B696E01
:1080AC003A736572766963653A6261736963657682
:1080BC00656E743A31223E3C42696E61727953743A
:1080CC006174653E303C2F42696E61727953746104
:1080DC0074653E3C2F753A53657442696E617279D2
:1080EC0053746174653E3C2F733A426F64793E3C25
:1080FC002F733A456E76656C6F70653E00496F5410
:10810C004E6574776F726B002C000A0A00256300B1
:10811C0048454C4C4F20204C4F56450A5D0062752B
:10812C0074746F6E2034206973207072657373657C
:10813C00640D004155544F005748415420444F2082
:10814C00550A2057414E5400427574746F6E73205B
:10815C0061726520636C69636B45440D005348552F
:10816C005420455220444F574E0A0073657474696D
:10817C006E6720636F6C6F72206F662062756C6225
:10818C0020256920746F20636F6C6F722025303648
:10819C00690A003139322E3136382E312E33300007
:1081AC003139322E3136382E312E333100313932CD
:1081BC002E3136382E312E3332003139322E3136C3
:1081CC00382E312E3333003139322E3136382E31B0
:1081DC002E3334004D516C5A7A69524F30576169C5
:1081EC00354D734D486C6C38784155415171773829
:1081FC003551727238744D3337463354003139323D
:10820C002E3136382E312E350000000000003E5B3A
:10821C004F5B3E3E6B4F6B3E1C3E7C3E1C183C7EC7
:10822C003C181C577D571C1C5E7F5E1C00183C18AC
:10823C0000FFE7C3E7FF0018241800FFE7DBE7FFA8
:10824C0030483A060E2629792926407F0505074035
:10825C007F05253F5A3CE73C5A7F3E1C1C08081CF6
:10826C001C3E7F14227F22145F5F005F5F06097F34
:10827C00017F006689956A606060606094A2FFA2CD
:10828C009408047E040810207E201008082A1C087C
:10829C00081C2A08081E101010100C1E0C1E0C3086
:1082AC00383E3830060E3E0E06000000000000007E
:1082BC005F00000007000700147F147F14242A7F3E
:1082CC002A1223130864623649562050000807030B
:1082DC0000001C2241000041221C002A1C7F1C2A89
:1082EC0008083E08080080703000080808080800DC
:1082FC000060600020100804023E5149453E0042D7
:10830C007F400072494949462141494D33181412A6
:10831C007F1027454545393C4A49493141211109CE
:10832C00073649494936464949291E0000140000C0
:10833C0000403400000008142241141414141400DA
:10834C004122140802015909063E415D594E7C1226
:10835C0011127C7F494949363E414141227F4141BE
:10836C00413E7F494949417F090909013E4141513B
:10837C00737F0808087F00417F41002040413F0186
:10838C007F081422417F404040407F021C027F7FC7
:10839C000408107F3E4141413E7F090909063E41D8
:1083AC0051215E7F09192946264949493203017F2B
:1083BC0001033F4040403F1F2040201F3F403840BA
:1083CC003F631408146303047804036159494D4353
:1083DC00007F4141410204081020004141417F04CB
:1083EC0002010204404040404000030708002054B2
:1083FC005478407F28444438384444442838444412
:10840C00287F385454541800087E090218A4A49CE0
:10841C00787F0804047800447D40002040403D00F3
:10842C007F1028440000417F40007C047804787C55
:10843C00080404783844444438FC182424181824BC
:10844C002418FC7C08040408485454542404043FA5
:10845C0044243C4040207C1C2040201C3C403040AC
:10846C003C44281028444C9090907C4464544C44D8
:10847C000008364100000077000000413608000279
:10848C00010204023C2623263C1EA1A161123A40A3
:10849C0040207A385454555921555579412154541A
:1084AC007841215554784020545579400C1E527215
:1084BC0012395555555939545454593955545458F1
:1084CC000000457C410002457D420001457C40F0A6
:1084DC00292429F0F0282528F07C545545002054F7
:1084EC00547C547C0A097F49324949493232484804
:1084FC004832324A4848303A4141217A3A42402087
:10850C0078009DA0A07D39444444393D4040403D15
:10851C003C24FF2424487E4943662B2FFC2F2BFF41
:10852C000929F620C0887E090320545479410000A3
:10853C00447D413048484A32384040227A007A0A19
:10854C000A727D0D19317D2629292F2826292929E2
:10855C002630484D40203808080808080808083814
:10856C002F10C8ACBA2F102834FA00007B0000087A
:10857C00142A142222142A1408AA005500AAAA5557
:10858C00AA55AA000000FF00101010FF00141414CC
:10859C00FF001010FF00FF1010F010F0141414FC6A
:1085AC00001414F700FF0000FF00FF1414F404FC87
:1085BC00141417101F10101F101F1414141F001068
:1085CC001010F0000000001F101010101F101010E1
:1085DC0010F010000000FF101010101010101010F0
:1085EC00FF10000000FF140000FF00FF00001F1030
:1085FC00170000FC04F414141710171414F404F4EA
:10860C000000FF00F714141414141414F700F714DA
:10861C001414171410101F101F141414F414101029
:10862C00F010F000001F101F0000001F14000000CD
:10863C00FC140000F010F01010FF10FF141414FFC5
:10864C00141010101F00000000F010FFFFFFFFFFC0
:10865C00F0F0F0F0F0FFFFFF0000000000FFFF0F54
:10866C000F0F0F0F38444438447C2A2A3E147E02E4
:10867C00020606027E027E02635549416338444479
:10868C003C04407E201E2006027E020299A5E7A52E
:10869C00991C2A492A1C4C7201724C304A4D4D309F
:1086AC003048784830BC625A463D3E494949007EC4
:1086BC000101017E2A2A2A2A2A44445F444440515B
:1086CC004A444040444A51400000FF0103E080FF0F
:1086DC00000008086B6B083612362436060F090F9B
:1086EC0006000018180000001010003040FF0101B7
:1086FC00001F01011E00191D1712003C3C3C3C00E0
:10870C00000000000000000000000000000000005D
:10871C000000000045510B0025680B00A1400B0028
:10872C005D4E0B00834F0B009F4F0B001B4F0B003C
:10873C00B94F0B00EF4F0B000B500B00000000006B
:10874C0000000000B5540B0045550B0045510B00C3
:10875C0025680B00B9540B005D4E0B0041530B0008
:10876C00D1510B001B4F0B00B94F0B00EF4F0B00FF
:10877C000B500B002C01000018000000F40100004D
:10878C002C01000050000000000000000000000060
:10879C000000000000000000F3630B00E9630B0015
:1087AC00DF630B00D5630B00C9630B00BD630B00CB
:1087BC0001670B0009670B00B1630B00A9630B0089
:1087CC009F630B0095630B0039670B0000000000E2
:1087DC000000000011640B005B640B0033640B00A1
:1087EC0013640B003B640B0043640B004B640B00E5
:1087FC0053640B000000000000000000A5650B0096
:10880C0095650B0097650B0061707000000000000F
:10881C0000000000C1660B00CB660B00D5660B0098
:10882C00DF660B00E9660B00F5660B0001670B00B9
:10883C0009670B0011670B001D670B0025670B0008
:10884C002F670B0039670B000008101820283038F0
:10885C00776972696E670072656376206572726FF4
:10886C0072203D2025640000000000000000000084
:10887C00BD6D0B00E16D0B00CB720B00EF6D0B00AF
:10888C00C16D0B00000000000000000049430B000C
:10889C007D430B00396D0B00536D0B0061710B00A8
:1088AC007D6D0B00D76F0B00B16D0B0069700B0069
:1088BC00A96E0B0005700B0015720B00A56F0B0059
:1088CC00B36D0B00656D0B00F56D0B00896E0B0025
:1088DC0025592D256D2D25645425483A254D3A25CD
:1088EC0053257A0061736374696D650000000000A4
:1088FC0000000000E5720B0051730B0029730B0094
:10890C0025680B00F9720B0015730B0007730B0035
:10891C0023730B00E7720B00EB720B0000000000DE
:10892C00000000008F730B00F7730B00CD730B006E
:10893C0025680B00BF730B0091730B00A1730B0028
:10894C00F1730B00B1730B0089730B000000000076
:10895C0000000000EF740B00E5740B00DB740B00DF
:10896C0091740B00CF740B00C3740B0001670B00E8
:10897C0009670B00B7740B00AF740B00A5740B00E8
:10898C009B740B0039670B0000537431395F5370C3
:10899C005F6D616B655F7368617265645F7461675D
:1089AC0000000000F0890B0095890B00508A0B0029
:1089BC00C4890B00748A0B004E31305F5F6378788A
:1089CC00616269763131375F5F636C6173735F74B9
:1089DC007970655F696E666F4500000000000000ED
:1089EC00B8890B006D790B0081790B00157B0B009E
:1089FC00157B0B00EB790B002D790B00D3790B0059
:108A0C0095790B005F790B00508A0B00208A0B00C4
:108A1C00B8890B004E31305F5F637878616269769C
:108A2C003132305F5F73695F636C6173735F74794C
:108A3C0070655F696E666F45000000000000000005
:108A4C00148A0B00157A0B00297A0B00157B0B008E
:108A5C00157B0B00EB790B002D790B00E97A0B00E1
:108A6C00757A0B003D7A0B00F0890B007C8A0B00A9
:108A7C00537439747970655F696E666F0052454541
:108A8C004E54206D616C6C6F632073756363656508
:108A9C00646564002F746D702F6A656E6B696E73FC
:108AAC002D4743432D31302D706970656C696E65AF
:108ABC002D34385F32303230313132345F31363030
:108ACC00363138303633392F7372632F6E65776CCD
:108ADC0069622F6E65776C69622F6C6962632F73A4
:108AEC0074646C69622F72616E642E630000000006
:108AFC00054D0B00AD5D0B0085630B00FD630B009A
:108B0C00B1660B0011680B004D690B00156D0B0065
:108B1C00D1720B00F9740B00000000000000000083
:048B2C000000000045
:108B3000040000001400000003000000474E550030
:108B4000B701E08577C516AAE8D95E057FD9047418
:048B50009457F1F154
:048B5400000000001D
:108B5800C8AF0000E45700008CB90000881300007B
:108B680050C30000102700009F810B00AC810B0050
:108B7800B9810B00C6810B00D3810B0001C0000036
:108B8800000103070F1F3F7F0080C0E0F0F8FCFEE4
:108B980000000000000000000000000000000000CD
:108BA80000000000000000000000000000000000BD
:108BB80000000000000000000000000000000000AD
:108BC800000000000000000000000000000000801D
:108BD800808000000000000000000000000000008D
:108BE800008080C0C00000000000000000000000FD
:108BF800000000000000000000000000000000006D
:108C0800000000000000000000000000000000005C
:108C1800000000000000000000000000000000004C
:108C28000000000080C0E0F0F8FCF8E00000000060
:108C380000000000000000000000000000808080AC
:108C4800808000808000000000808080808000FF9D
:108C5800FFFF00000000808080800000808000000E
:108C680080FFFF808000808000808080800080807E
:108C78000000000000808000008C8E84000080F8D6
:108C8800F8F880000000000000000000000000006C
:108C9800F0F0F0F0F0F0F0F0F0F0F0F0E0E0C0808C
:108CA80000E0FCFEFFFFFF7FFFFFFFFFFF0000006B
:108CB8000000000000000000000000FEFFC70101E6
:108CC800010183FFFF00007CFEC70101010183FF52
:108CD800FFFF0038FEC78301010183C7FFFF0000C3
:108CE80001FFFF010100FFFF0701010100007FFFF5
:108CF80080000000FFFF7F0000FFFFFF000001FF72
:108D0800FFFF01000000000000000000000000005C
:108D1800030F3F7F7FFFFFFFFFFFFFFFE7C7C78FFF
:108D28008F9FBFFFFFC3C0F0FFFFFFFFFFFCFCFCEE
:108D3800FCFCFCFCFCF8F8F0F0E0C00001030303C5
:108D480003030103030000000001030303030101FF
:108D580003010000000103030303010103030000F2
:108D680000030300000003030000000000000001EE
:108D780003030303030100000001030100000003D3
:108D880003010000000000000000000000000000D7
:108D980000000080C0E0F0F9FFFFFFFFFF3F1F0F5A
:108DA80087C7F7FFFF1F1F3DFCF8F8F8F87C7DFF29
:108DB800FFFFFFFFFFFFFF7F3F0F0700303000007E
:108DC800000000000000000000000000000000009B
:108DD80000000000FEFEFC00000000000000000093
:108DE80000000000000000000000000000E0C000DB
:108DF800000000000000000000003030000000000B
:108E0800000000000000000000000000000000005A
:108E180000C0FEFFFFFFFFFFFFFFFFFF7F7F3F1F39
:108E28000F071F7FFFFFF8F8FFFFFFFFFFFEF8E0C7
:108E3800000000010000000000000000FEFE00002D
:108E480000FCFEFC0C06060EFCF80000F0F81C0EF8
:108E58000606060CFFFFFF0000FEFE00000000FCF7
:108E6800FEFC00183C7E66E6CE84000006FFFF0686
:108E780006FCFEFC0C0606060000FEFE0000C0F81C
:108E8800FC4E4646464E7C7840183C76E6CECC8072
:108E980000000000000000000000000000000000CA
:108EA8000000000001070F1F1F3F3F3F3F1F0F0338
:108EB8000000000000000000000000000F0F00008C
:108EC800000F0F0F000000000F0F000003070E0C2B
:108ED80018180C060F0F0F0000010F0E0C180C0FBE
:108EE800070100040E0C180C0F070000000F0F00FC
:108EF800000F0F0F0000000000000F0F0000000718
:108F0800070C0C181C0C060600040E0C180C0F0796
:108F18000000000000000000000000000000000049
:108F28000000000000000000000000000000000039
:108F38000000000000000000000000000000000029
:108F48000000000000000000000000000000000019
:108F58000000000000000000000000000000000009
:108F680000000000000000000000000000000000F9
:108F780000000000000000000000000000000000E9
:108F880000000000000000000000000000000000D9
:108F9800F0880B008CE403200000000000000000B3
:108FA80000000000000000000000000000000000B9
:108FB80000000000000000000000000000000000A9
:108FC8000000000000000000000000000000000099
:108FD8000000000000000000000000000000000089
:108FE8000000000000000000000000000000000079
:0C8FF8000000000000000000ECE7032077
:10900400FFFFFFFF00000102030405060708090A29
:109014000B0C0D0E0F101112131415161718191A24
:089024001B1C1D1E1F2028006B
:04902C00785634122C
:04000003B000401CED
:00000001FF
